{
  "contractName": "AnimalNFT",
  "abi": [
    {
      "inputs": [
        {
          "internalType": "uint32[]",
          "name": "_species",
          "type": "uint32[]"
        },
        {
          "internalType": "uint32[]",
          "name": "_rank",
          "type": "uint32[]"
        },
        {
          "internalType": "string[]",
          "name": "_ipfsURI",
          "type": "string[]"
        },
        {
          "internalType": "string[]",
          "name": "_ipfsImage",
          "type": "string[]"
        },
        {
          "internalType": "uint256[]",
          "name": "_number",
          "type": "uint256[]"
        }
      ],
      "stateMutability": "nonpayable",
      "type": "constructor"
    },
    {
      "anonymous": false,
      "inputs": [
        {
          "indexed": true,
          "internalType": "address",
          "name": "owner",
          "type": "address"
        },
        {
          "indexed": true,
          "internalType": "address",
          "name": "approved",
          "type": "address"
        },
        {
          "indexed": true,
          "internalType": "uint256",
          "name": "tokenId",
          "type": "uint256"
        }
      ],
      "name": "Approval",
      "type": "event"
    },
    {
      "anonymous": false,
      "inputs": [
        {
          "indexed": true,
          "internalType": "address",
          "name": "owner",
          "type": "address"
        },
        {
          "indexed": true,
          "internalType": "address",
          "name": "operator",
          "type": "address"
        },
        {
          "indexed": false,
          "internalType": "bool",
          "name": "approved",
          "type": "bool"
        }
      ],
      "name": "ApprovalForAll",
      "type": "event"
    },
    {
      "anonymous": false,
      "inputs": [
        {
          "indexed": true,
          "internalType": "address",
          "name": "previousOwner",
          "type": "address"
        },
        {
          "indexed": true,
          "internalType": "address",
          "name": "newOwner",
          "type": "address"
        }
      ],
      "name": "OwnershipTransferred",
      "type": "event"
    },
    {
      "anonymous": false,
      "inputs": [
        {
          "indexed": true,
          "internalType": "address",
          "name": "from",
          "type": "address"
        },
        {
          "indexed": true,
          "internalType": "address",
          "name": "to",
          "type": "address"
        },
        {
          "indexed": true,
          "internalType": "uint256",
          "name": "tokenId",
          "type": "uint256"
        }
      ],
      "name": "Transfer",
      "type": "event"
    },
    {
      "inputs": [
        {
          "internalType": "address",
          "name": "to",
          "type": "address"
        },
        {
          "internalType": "uint256",
          "name": "tokenId",
          "type": "uint256"
        }
      ],
      "name": "approve",
      "outputs": [],
      "stateMutability": "nonpayable",
      "type": "function"
    },
    {
      "inputs": [
        {
          "internalType": "address",
          "name": "owner",
          "type": "address"
        }
      ],
      "name": "balanceOf",
      "outputs": [
        {
          "internalType": "uint256",
          "name": "",
          "type": "uint256"
        }
      ],
      "stateMutability": "view",
      "type": "function",
      "constant": true
    },
    {
      "inputs": [
        {
          "internalType": "uint256",
          "name": "tokenId",
          "type": "uint256"
        }
      ],
      "name": "getApproved",
      "outputs": [
        {
          "internalType": "address",
          "name": "",
          "type": "address"
        }
      ],
      "stateMutability": "view",
      "type": "function",
      "constant": true
    },
    {
      "inputs": [
        {
          "internalType": "address",
          "name": "owner",
          "type": "address"
        },
        {
          "internalType": "address",
          "name": "operator",
          "type": "address"
        }
      ],
      "name": "isApprovedForAll",
      "outputs": [
        {
          "internalType": "bool",
          "name": "",
          "type": "bool"
        }
      ],
      "stateMutability": "view",
      "type": "function",
      "constant": true
    },
    {
      "inputs": [],
      "name": "name",
      "outputs": [
        {
          "internalType": "string",
          "name": "",
          "type": "string"
        }
      ],
      "stateMutability": "view",
      "type": "function",
      "constant": true
    },
    {
      "inputs": [],
      "name": "owner",
      "outputs": [
        {
          "internalType": "address",
          "name": "",
          "type": "address"
        }
      ],
      "stateMutability": "view",
      "type": "function",
      "constant": true
    },
    {
      "inputs": [
        {
          "internalType": "uint256",
          "name": "tokenId",
          "type": "uint256"
        }
      ],
      "name": "ownerOf",
      "outputs": [
        {
          "internalType": "address",
          "name": "",
          "type": "address"
        }
      ],
      "stateMutability": "view",
      "type": "function",
      "constant": true
    },
    {
      "inputs": [],
      "name": "renounceOwnership",
      "outputs": [],
      "stateMutability": "nonpayable",
      "type": "function"
    },
    {
      "inputs": [
        {
          "internalType": "address",
          "name": "from",
          "type": "address"
        },
        {
          "internalType": "address",
          "name": "to",
          "type": "address"
        },
        {
          "internalType": "uint256",
          "name": "tokenId",
          "type": "uint256"
        }
      ],
      "name": "safeTransferFrom",
      "outputs": [],
      "stateMutability": "nonpayable",
      "type": "function"
    },
    {
      "inputs": [
        {
          "internalType": "address",
          "name": "from",
          "type": "address"
        },
        {
          "internalType": "address",
          "name": "to",
          "type": "address"
        },
        {
          "internalType": "uint256",
          "name": "tokenId",
          "type": "uint256"
        },
        {
          "internalType": "bytes",
          "name": "data",
          "type": "bytes"
        }
      ],
      "name": "safeTransferFrom",
      "outputs": [],
      "stateMutability": "nonpayable",
      "type": "function"
    },
    {
      "inputs": [
        {
          "internalType": "address",
          "name": "operator",
          "type": "address"
        },
        {
          "internalType": "bool",
          "name": "approved",
          "type": "bool"
        }
      ],
      "name": "setApprovalForAll",
      "outputs": [],
      "stateMutability": "nonpayable",
      "type": "function"
    },
    {
      "inputs": [
        {
          "internalType": "bytes4",
          "name": "interfaceId",
          "type": "bytes4"
        }
      ],
      "name": "supportsInterface",
      "outputs": [
        {
          "internalType": "bool",
          "name": "",
          "type": "bool"
        }
      ],
      "stateMutability": "view",
      "type": "function",
      "constant": true
    },
    {
      "inputs": [],
      "name": "symbol",
      "outputs": [
        {
          "internalType": "string",
          "name": "",
          "type": "string"
        }
      ],
      "stateMutability": "view",
      "type": "function",
      "constant": true
    },
    {
      "inputs": [
        {
          "internalType": "uint256",
          "name": "tokenId",
          "type": "uint256"
        }
      ],
      "name": "tokenURI",
      "outputs": [
        {
          "internalType": "string",
          "name": "",
          "type": "string"
        }
      ],
      "stateMutability": "view",
      "type": "function",
      "constant": true
    },
    {
      "inputs": [
        {
          "internalType": "address",
          "name": "from",
          "type": "address"
        },
        {
          "internalType": "address",
          "name": "to",
          "type": "address"
        },
        {
          "internalType": "uint256",
          "name": "tokenId",
          "type": "uint256"
        }
      ],
      "name": "transferFrom",
      "outputs": [],
      "stateMutability": "nonpayable",
      "type": "function"
    },
    {
      "inputs": [
        {
          "internalType": "address",
          "name": "newOwner",
          "type": "address"
        }
      ],
      "name": "transferOwnership",
      "outputs": [],
      "stateMutability": "nonpayable",
      "type": "function"
    },
    {
      "inputs": [],
      "name": "_createAnimalNFT",
      "outputs": [
        {
          "internalType": "uint256",
          "name": "",
          "type": "uint256"
        }
      ],
      "stateMutability": "nonpayable",
      "type": "function"
    },
    {
      "inputs": [
        {
          "internalType": "uint256",
          "name": "tokenId",
          "type": "uint256"
        }
      ],
      "name": "_getSpecies",
      "outputs": [
        {
          "internalType": "uint32",
          "name": "",
          "type": "uint32"
        }
      ],
      "stateMutability": "view",
      "type": "function",
      "constant": true
    },
    {
      "inputs": [
        {
          "internalType": "uint256",
          "name": "tokenId",
          "type": "uint256"
        }
      ],
      "name": "_getRank",
      "outputs": [
        {
          "internalType": "uint32",
          "name": "",
          "type": "uint32"
        }
      ],
      "stateMutability": "view",
      "type": "function",
      "constant": true
    },
    {
      "inputs": [
        {
          "internalType": "uint256",
          "name": "tokenId",
          "type": "uint256"
        }
      ],
      "name": "_getIpfsImage",
      "outputs": [
        {
          "internalType": "string",
          "name": "",
          "type": "string"
        }
      ],
      "stateMutability": "view",
      "type": "function",
      "constant": true
    },
    {
      "inputs": [
        {
          "internalType": "uint256",
          "name": "tokenId",
          "type": "uint256"
        }
      ],
      "name": "_getIpfsUri",
      "outputs": [
        {
          "internalType": "string",
          "name": "",
          "type": "string"
        }
      ],
      "stateMutability": "view",
      "type": "function",
      "constant": true
    },
    {
      "inputs": [
        {
          "internalType": "uint256",
          "name": "tokenId",
          "type": "uint256"
        }
      ],
      "name": "_getNumber",
      "outputs": [
        {
          "internalType": "uint256",
          "name": "",
          "type": "uint256"
        }
      ],
      "stateMutability": "view",
      "type": "function",
      "constant": true
    },
    {
      "inputs": [
        {
          "internalType": "uint256",
          "name": "tokenId",
          "type": "uint256"
        }
      ],
      "name": "_getMinter",
      "outputs": [
        {
          "internalType": "address",
          "name": "",
          "type": "address"
        }
      ],
      "stateMutability": "view",
      "type": "function",
      "constant": true
    },
    {
      "inputs": [
        {
          "internalType": "uint256",
          "name": "tokenId",
          "type": "uint256"
        },
        {
          "internalType": "address",
          "name": "newOwner",
          "type": "address"
        }
      ],
      "name": "_setOwner",
      "outputs": [],
      "stateMutability": "nonpayable",
      "type": "function"
    },
    {
      "inputs": [
        {
          "internalType": "uint256",
          "name": "tokenId",
          "type": "uint256"
        }
      ],
      "name": "_getOwner",
      "outputs": [
        {
          "internalType": "address",
          "name": "",
          "type": "address"
        }
      ],
      "stateMutability": "view",
      "type": "function",
      "constant": true
    }
  ],
  "bytecode": "0x60806040523480156200001157600080fd5b5060405162004828380380620048288339818101604052810190620000379190620008de565b6040518060400160405280600981526020017f416e696d616c4e465400000000000000000000000000000000000000000000008152506040518060400160405280600381526020017f414d5400000000000000000000000000000000000000000000000000000000008152508160009081620000b4919062000c42565b508060019081620000c6919062000c42565b505050620000e9620000dd6200035960201b60201c565b6200036160201b60201c565b60005b85518110156200034d5760096040518060e0016040528088848151811062000119576200011862000d29565b5b602002602001015163ffffffff16815260200187848151811062000142576200014162000d29565b5b602002602001015163ffffffff1681526020018684815181106200016b576200016a62000d29565b5b602002602001015181526020018584815181106200018e576200018d62000d29565b5b60200260200101518152602001848481518110620001b157620001b062000d29565b5b60200260200101518152602001600073ffffffffffffffffffffffffffffffffffffffff168152602001600073ffffffffffffffffffffffffffffffffffffffff16815250908060018154018082558091505060019003906000526020600020906006020160009091909190915060008201518160000160006101000a81548163ffffffff021916908363ffffffff16021790555060208201518160000160046101000a81548163ffffffff021916908363ffffffff160217905550604082015181600101908162000284919062000c42565b5060608201518160020190816200029c919062000c42565b506080820151816003015560a08201518160040160006101000a81548173ffffffffffffffffffffffffffffffffffffffff021916908373ffffffffffffffffffffffffffffffffffffffff16021790555060c08201518160050160006101000a81548173ffffffffffffffffffffffffffffffffffffffff021916908373ffffffffffffffffffffffffffffffffffffffff16021790555050508080620003449062000d87565b915050620000ec565b50505050505062000dd4565b600033905090565b6000600760009054906101000a900473ffffffffffffffffffffffffffffffffffffffff16905081600760006101000a81548173ffffffffffffffffffffffffffffffffffffffff021916908373ffffffffffffffffffffffffffffffffffffffff1602179055508173ffffffffffffffffffffffffffffffffffffffff168173ffffffffffffffffffffffffffffffffffffffff167f8be0079c531659141344cd1fd0a4f28419497f9722a3daafe3b4186f6b6457e060405160405180910390a35050565b6000604051905090565b600080fd5b600080fd5b600080fd5b6000601f19601f8301169050919050565b7f4e487b7100000000000000000000000000000000000000000000000000000000600052604160045260246000fd5b6200048b8262000440565b810181811067ffffffffffffffff82111715620004ad57620004ac62000451565b5b80604052505050565b6000620004c262000427565b9050620004d0828262000480565b919050565b600067ffffffffffffffff821115620004f357620004f262000451565b5b602082029050602081019050919050565b600080fd5b600063ffffffff82169050919050565b620005248162000509565b81146200053057600080fd5b50565b600081519050620005448162000519565b92915050565b6000620005616200055b84620004d5565b620004b6565b9050808382526020820190506020840283018581111562000587576200058662000504565b5b835b81811015620005b457806200059f888262000533565b84526020840193505060208101905062000589565b5050509392505050565b600082601f830112620005d657620005d56200043b565b5b8151620005e88482602086016200054a565b91505092915050565b600067ffffffffffffffff8211156200060f576200060e62000451565b5b602082029050602081019050919050565b600080fd5b600067ffffffffffffffff82111562000643576200064262000451565b5b6200064e8262000440565b9050602081019050919050565b60005b838110156200067b5780820151818401526020810190506200065e565b60008484015250505050565b60006200069e620006988462000625565b620004b6565b905082815260208101848484011115620006bd57620006bc62000620565b5b620006ca8482856200065b565b509392505050565b600082601f830112620006ea57620006e96200043b565b5b8151620006fc84826020860162000687565b91505092915050565b60006200071c6200071684620005f1565b620004b6565b9050808382526020820190506020840283018581111562000742576200074162000504565b5b835b818110156200079057805167ffffffffffffffff8111156200076b576200076a6200043b565b5b8086016200077a8982620006d2565b8552602085019450505060208101905062000744565b5050509392505050565b600082601f830112620007b257620007b16200043b565b5b8151620007c484826020860162000705565b91505092915050565b600067ffffffffffffffff821115620007eb57620007ea62000451565b5b602082029050602081019050919050565b6000819050919050565b6200081181620007fc565b81146200081d57600080fd5b50565b600081519050620008318162000806565b92915050565b60006200084e6200084884620007cd565b620004b6565b9050808382526020820190506020840283018581111562000874576200087362000504565b5b835b81811015620008a157806200088c888262000820565b84526020840193505060208101905062000876565b5050509392505050565b600082601f830112620008c357620008c26200043b565b5b8151620008d584826020860162000837565b91505092915050565b600080600080600060a08688031215620008fd57620008fc62000431565b5b600086015167ffffffffffffffff8111156200091e576200091d62000436565b5b6200092c88828901620005be565b955050602086015167ffffffffffffffff81111562000950576200094f62000436565b5b6200095e88828901620005be565b945050604086015167ffffffffffffffff81111562000982576200098162000436565b5b62000990888289016200079a565b935050606086015167ffffffffffffffff811115620009b457620009b362000436565b5b620009c2888289016200079a565b925050608086015167ffffffffffffffff811115620009e657620009e562000436565b5b620009f488828901620008ab565b9150509295509295909350565b600081519050919050565b7f4e487b7100000000000000000000000000000000000000000000000000000000600052602260045260246000fd5b6000600282049050600182168062000a5457607f821691505b60208210810362000a6a5762000a6962000a0c565b5b50919050565b60008190508160005260206000209050919050565b60006020601f8301049050919050565b600082821b905092915050565b60006008830262000ad47fffffffffffffffffffffffffffffffffffffffffffffffffffffffffffffffff8262000a95565b62000ae0868362000a95565b95508019841693508086168417925050509392505050565b6000819050919050565b600062000b2362000b1d62000b1784620007fc565b62000af8565b620007fc565b9050919050565b6000819050919050565b62000b3f8362000b02565b62000b5762000b4e8262000b2a565b84845462000aa2565b825550505050565b600090565b62000b6e62000b5f565b62000b7b81848462000b34565b505050565b5b8181101562000ba35762000b9760008262000b64565b60018101905062000b81565b5050565b601f82111562000bf25762000bbc8162000a70565b62000bc78462000a85565b8101602085101562000bd7578190505b62000bef62000be68562000a85565b83018262000b80565b50505b505050565b600082821c905092915050565b600062000c176000198460080262000bf7565b1980831691505092915050565b600062000c32838362000c04565b9150826002028217905092915050565b62000c4d8262000a01565b67ffffffffffffffff81111562000c695762000c6862000451565b5b62000c75825462000a3b565b62000c8282828562000ba7565b600060209050601f83116001811462000cba576000841562000ca5578287015190505b62000cb1858262000c24565b86555062000d21565b601f19841662000cca8662000a70565b60005b8281101562000cf45784890151825560018201915060208501945060208101905062000ccd565b8683101562000d14578489015162000d10601f89168262000c04565b8355505b6001600288020188555050505b505050505050565b7f4e487b7100000000000000000000000000000000000000000000000000000000600052603260045260246000fd5b7f4e487b7100000000000000000000000000000000000000000000000000000000600052601160045260246000fd5b600062000d9482620007fc565b91507fffffffffffffffffffffffffffffffffffffffffffffffffffffffffffffffff820362000dc95762000dc862000d58565b5b600182019050919050565b613a448062000de46000396000f3fe608060405234801561001057600080fd5b50600436106101735760003560e01c806370a08231116100de578063a8dae8bd11610097578063c87b56dd11610071578063c87b56dd14610482578063cfed7103146104b2578063e985e9c5146104e2578063f2fde38b1461051257610173565b8063a8dae8bd14610406578063b07e7b1814610436578063b88d4fde1461046657610173565b806370a0823114610356578063715018a61461038657806389ae77a8146103905780638da5cb5b146103ae57806395d89b41146103cc578063a22cb465146103ea57610173565b8063302e41ee11610130578063302e41ee1461025e578063339d8c7b1461028e57806342842e0e146102be57806362059839146102da5780636352211e146102f657806364d4eeab1461032657610173565b806301ffc9a71461017857806306fdde03146101a8578063081812fc146101c6578063095ea7b3146101f65780631e7b25881461021257806323b872dd14610242575b600080fd5b610192600480360381019061018d9190612460565b61052e565b60405161019f91906124a8565b60405180910390f35b6101b0610610565b6040516101bd9190612553565b60405180910390f35b6101e060048036038101906101db91906125ab565b6106a2565b6040516101ed9190612619565b60405180910390f35b610210600480360381019061020b9190612660565b6106e8565b005b61022c600480360381019061022791906125ab565b6107ff565b6040516102399190612553565b60405180910390f35b61025c600480360381019061025791906126a0565b6108b6565b005b610278600480360381019061027391906125ab565b610916565b6040516102859190612553565b60405180910390f35b6102a860048036038101906102a391906125ab565b6109cd565b6040516102b59190612712565b60405180910390f35b6102d860048036038101906102d391906126a0565b610a0c565b005b6102f460048036038101906102ef919061272d565b610a2c565b005b610310600480360381019061030b91906125ab565b610a85565b60405161031d9190612619565b60405180910390f35b610340600480360381019061033b91906125ab565b610b36565b60405161034d9190612619565b60405180910390f35b610370600480360381019061036b919061276d565b610b76565b60405161037d91906127a9565b60405180910390f35b61038e610c2d565b005b610398610c41565b6040516103a591906127a9565b60405180910390f35b6103b6611099565b6040516103c39190612619565b60405180910390f35b6103d46110c3565b6040516103e19190612553565b60405180910390f35b61040460048036038101906103ff91906127f0565b611155565b005b610420600480360381019061041b91906125ab565b61116b565b60405161042d91906127a9565b60405180910390f35b610450600480360381019061044b91906125ab565b61119a565b60405161045d9190612712565b60405180910390f35b610480600480360381019061047b9190612965565b6111d9565b005b61049c600480360381019061049791906125ab565b61123b565b6040516104a99190612553565b60405180910390f35b6104cc60048036038101906104c791906125ab565b61134d565b6040516104d99190612619565b60405180910390f35b6104fc60048036038101906104f791906129e8565b61138d565b60405161050991906124a8565b60405180910390f35b61052c6004803603810190610527919061276d565b611421565b005b60007f80ac58cd000000000000000000000000000000000000000000000000000000007bffffffffffffffffffffffffffffffffffffffffffffffffffffffff1916827bffffffffffffffffffffffffffffffffffffffffffffffffffffffff191614806105f957507f5b5e139f000000000000000000000000000000000000000000000000000000007bffffffffffffffffffffffffffffffffffffffffffffffffffffffff1916827bffffffffffffffffffffffffffffffffffffffffffffffffffffffff1916145b806106095750610608826114a4565b5b9050919050565b60606000805461061f90612a57565b80601f016020809104026020016040519081016040528092919081815260200182805461064b90612a57565b80156106985780601f1061066d57610100808354040283529160200191610698565b820191906000526020600020905b81548152906001019060200180831161067b57829003601f168201915b5050505050905090565b60006106ad8261150e565b6004600083815260200190815260200160002060009054906101000a900473ffffffffffffffffffffffffffffffffffffffff169050919050565b60006106f382610a85565b90508073ffffffffffffffffffffffffffffffffffffffff168373ffffffffffffffffffffffffffffffffffffffff1603610763576040517f08c379a000000000000000000000000000000000000000000000000000000000815260040161075a90612afa565b60405180910390fd5b8073ffffffffffffffffffffffffffffffffffffffff16610782611559565b73ffffffffffffffffffffffffffffffffffffffff1614806107b157506107b0816107ab611559565b61138d565b5b6107f0576040517f08c379a00000000000000000000000000000000000000000000000000000000081526004016107e790612b8c565b60405180910390fd5b6107fa8383611561565b505050565b60606009828154811061081557610814612bac565b5b9060005260206000209060060201600101805461083190612a57565b80601f016020809104026020016040519081016040528092919081815260200182805461085d90612a57565b80156108aa5780601f1061087f576101008083540402835291602001916108aa565b820191906000526020600020905b81548152906001019060200180831161088d57829003601f168201915b50505050509050919050565b6108c76108c1611559565b8261161a565b610906576040517f08c379a00000000000000000000000000000000000000000000000000000000081526004016108fd90612c4d565b60405180910390fd5b6109118383836116af565b505050565b60606009828154811061092c5761092b612bac565b5b9060005260206000209060060201600201805461094890612a57565b80601f016020809104026020016040519081016040528092919081815260200182805461097490612a57565b80156109c15780601f10610996576101008083540402835291602001916109c1565b820191906000526020600020905b8154815290600101906020018083116109a457829003601f168201915b50505050509050919050565b6000600982815481106109e3576109e2612bac565b5b906000526020600020906006020160000160009054906101000a900463ffffffff169050919050565b610a27838383604051806020016040528060008152506111d9565b505050565b80600a600084815260200190815260200160002060050160006101000a81548173ffffffffffffffffffffffffffffffffffffffff021916908373ffffffffffffffffffffffffffffffffffffffff1602179055505050565b6000806002600084815260200190815260200160002060009054906101000a900473ffffffffffffffffffffffffffffffffffffffff169050600073ffffffffffffffffffffffffffffffffffffffff168173ffffffffffffffffffffffffffffffffffffffff1603610b2d576040517f08c379a0000000000000000000000000000000000000000000000000000000008152600401610b2490612cb9565b60405180910390fd5b80915050919050565b6000600a600083815260200190815260200160002060050160009054906101000a900473ffffffffffffffffffffffffffffffffffffffff169050919050565b60008073ffffffffffffffffffffffffffffffffffffffff168273ffffffffffffffffffffffffffffffffffffffff1603610be6576040517f08c379a0000000000000000000000000000000000000000000000000000000008152600401610bdd90612d4b565b60405180910390fd5b600360008373ffffffffffffffffffffffffffffffffffffffff1673ffffffffffffffffffffffffffffffffffffffff168152602001908152602001600020549050919050565b610c35611915565b610c3f6000611993565b565b6000610c4b611915565b6155f0610c586008611a59565b10610c98576040517f08c379a0000000000000000000000000000000000000000000000000000000008152600401610c8f90612db7565b60405180910390fd5b600073ffffffffffffffffffffffffffffffffffffffff166009610cbc6008611a59565b81548110610ccd57610ccc612bac565b5b906000526020600020906006020160040160009054906101000a900473ffffffffffffffffffffffffffffffffffffffff1673ffffffffffffffffffffffffffffffffffffffff1614610d55576040517f08c379a0000000000000000000000000000000000000000000000000000000008152600401610d4c90612e23565b60405180910390fd5b6000610d5f611a67565b9050600073ffffffffffffffffffffffffffffffffffffffff1660098281548110610d8d57610d8c612bac565b5b906000526020600020906006020160040160009054906101000a900473ffffffffffffffffffffffffffffffffffffffff1673ffffffffffffffffffffffffffffffffffffffff1614610e15576040517f08c379a0000000000000000000000000000000000000000000000000000000008152600401610e0c90612e8f565b60405180910390fd5b610e1f6008611b78565b6000610e2b6008611a59565b905060098281548110610e4157610e40612bac565b5b9060005260206000209060060201600a60008381526020019081526020016000206000820160009054906101000a900463ffffffff168160000160006101000a81548163ffffffff021916908363ffffffff1602179055506000820160049054906101000a900463ffffffff168160000160046101000a81548163ffffffff021916908363ffffffff16021790555060018201816001019081610ee49190613071565b5060028201816002019081610ef99190613071565b50600382015481600301556004820160009054906101000a900473ffffffffffffffffffffffffffffffffffffffff168160040160006101000a81548173ffffffffffffffffffffffffffffffffffffffff021916908373ffffffffffffffffffffffffffffffffffffffff1602179055506005820160009054906101000a900473ffffffffffffffffffffffffffffffffffffffff168160050160006101000a81548173ffffffffffffffffffffffffffffffffffffffff021916908373ffffffffffffffffffffffffffffffffffffffff160217905550905050610fdf3382611b8e565b610fe98133611d67565b61109181600a6000848152602001908152602001600020600101805461100e90612a57565b80601f016020809104026020016040519081016040528092919081815260200182805461103a90612a57565b80156110875780601f1061105c57610100808354040283529160200191611087565b820191906000526020600020905b81548152906001019060200180831161106a57829003601f168201915b5050505050611dc0565b809250505090565b6000600760009054906101000a900473ffffffffffffffffffffffffffffffffffffffff16905090565b6060600180546110d290612a57565b80601f01602080910402602001604051908101604052809291908181526020018280546110fe90612a57565b801561114b5780601f106111205761010080835404028352916020019161114b565b820191906000526020600020905b81548152906001019060200180831161112e57829003601f168201915b5050505050905090565b611167611160611559565b8383611e2d565b5050565b60006009828154811061118157611180612bac565b5b9060005260206000209060060201600301549050919050565b6000600982815481106111b0576111af612bac565b5b906000526020600020906006020160000160049054906101000a900463ffffffff169050919050565b6111ea6111e4611559565b8361161a565b611229576040517f08c379a000000000000000000000000000000000000000000000000000000000815260040161122090612c4d565b60405180910390fd5b61123584848484611f99565b50505050565b60606112468261150e565b600060066000848152602001908152602001600020805461126690612a57565b80601f016020809104026020016040519081016040528092919081815260200182805461129290612a57565b80156112df5780601f106112b4576101008083540402835291602001916112df565b820191906000526020600020905b8154815290600101906020018083116112c257829003601f168201915b5050505050905060006112f0611ff5565b90506000815103611305578192505050611348565b60008251111561133a578082604051602001611322929190613195565b60405160208183030381529060405292505050611348565b6113438461200c565b925050505b919050565b6000600a600083815260200190815260200160002060040160009054906101000a900473ffffffffffffffffffffffffffffffffffffffff169050919050565b6000600560008473ffffffffffffffffffffffffffffffffffffffff1673ffffffffffffffffffffffffffffffffffffffff16815260200190815260200160002060008373ffffffffffffffffffffffffffffffffffffffff1673ffffffffffffffffffffffffffffffffffffffff16815260200190815260200160002060009054906101000a900460ff16905092915050565b611429611915565b600073ffffffffffffffffffffffffffffffffffffffff168173ffffffffffffffffffffffffffffffffffffffff1603611498576040517f08c379a000000000000000000000000000000000000000000000000000000000815260040161148f9061322b565b60405180910390fd5b6114a181611993565b50565b60007f01ffc9a7000000000000000000000000000000000000000000000000000000007bffffffffffffffffffffffffffffffffffffffffffffffffffffffff1916827bffffffffffffffffffffffffffffffffffffffffffffffffffffffff1916149050919050565b61151781612074565b611556576040517f08c379a000000000000000000000000000000000000000000000000000000000815260040161154d90612cb9565b60405180910390fd5b50565b600033905090565b816004600083815260200190815260200160002060006101000a81548173ffffffffffffffffffffffffffffffffffffffff021916908373ffffffffffffffffffffffffffffffffffffffff160217905550808273ffffffffffffffffffffffffffffffffffffffff166115d483610a85565b73ffffffffffffffffffffffffffffffffffffffff167f8c5be1e5ebec7d5bd14f71427d1e84f3dd0314c0f7b2291e5b200ac8c7c3b92560405160405180910390a45050565b60008061162683610a85565b90508073ffffffffffffffffffffffffffffffffffffffff168473ffffffffffffffffffffffffffffffffffffffff1614806116685750611667818561138d565b5b806116a657508373ffffffffffffffffffffffffffffffffffffffff1661168e846106a2565b73ffffffffffffffffffffffffffffffffffffffff16145b91505092915050565b8273ffffffffffffffffffffffffffffffffffffffff166116cf82610a85565b73ffffffffffffffffffffffffffffffffffffffff1614611725576040517f08c379a000000000000000000000000000000000000000000000000000000000815260040161171c906132bd565b60405180910390fd5b600073ffffffffffffffffffffffffffffffffffffffff168273ffffffffffffffffffffffffffffffffffffffff1603611794576040517f08c379a000000000000000000000000000000000000000000000000000000000815260040161178b9061334f565b60405180910390fd5b61179f8383836120e0565b6117aa600082611561565b6001600360008573ffffffffffffffffffffffffffffffffffffffff1673ffffffffffffffffffffffffffffffffffffffff16815260200190815260200160002060008282546117fa919061339e565b925050819055506001600360008473ffffffffffffffffffffffffffffffffffffffff1673ffffffffffffffffffffffffffffffffffffffff168152602001908152602001600020600082825461185191906133d2565b92505081905550816002600083815260200190815260200160002060006101000a81548173ffffffffffffffffffffffffffffffffffffffff021916908373ffffffffffffffffffffffffffffffffffffffff160217905550808273ffffffffffffffffffffffffffffffffffffffff168473ffffffffffffffffffffffffffffffffffffffff167fddf252ad1be2c89b69c2b068fc378daa952ba7f163c4a11628f55a4df523b3ef60405160405180910390a46119108383836120e5565b505050565b61191d611559565b73ffffffffffffffffffffffffffffffffffffffff1661193b611099565b73ffffffffffffffffffffffffffffffffffffffff1614611991576040517f08c379a000000000000000000000000000000000000000000000000000000000815260040161198890613452565b60405180910390fd5b565b6000600760009054906101000a900473ffffffffffffffffffffffffffffffffffffffff16905081600760006101000a81548173ffffffffffffffffffffffffffffffffffffffff021916908373ffffffffffffffffffffffffffffffffffffffff1602179055508173ffffffffffffffffffffffffffffffffffffffff168173ffffffffffffffffffffffffffffffffffffffff167f8be0079c531659141344cd1fd0a4f28419497f9722a3daafe3b4186f6b6457e060405160405180910390a35050565b600081600001549050919050565b600080611a746008611a59565b4233611a806008611a59565b604051602001611a92939291906134db565b6040516020818303038152906040528051906020012060001c611ab59190613547565b905060008190505b600980549050811015611b6f57600073ffffffffffffffffffffffffffffffffffffffff166009808054905083611af49190613547565b81548110611b0557611b04612bac565b5b906000526020600020906006020160040160009054906101000a900473ffffffffffffffffffffffffffffffffffffffff1673ffffffffffffffffffffffffffffffffffffffff1603611b5c578092505050611b75565b8080611b6790613578565b915050611abd565b50809150505b90565b6001816000016000828254019250508190555050565b600073ffffffffffffffffffffffffffffffffffffffff168273ffffffffffffffffffffffffffffffffffffffff1603611bfd576040517f08c379a0000000000000000000000000000000000000000000000000000000008152600401611bf49061360c565b60405180910390fd5b611c0681612074565b15611c46576040517f08c379a0000000000000000000000000000000000000000000000000000000008152600401611c3d90613678565b60405180910390fd5b611c52600083836120e0565b6001600360008473ffffffffffffffffffffffffffffffffffffffff1673ffffffffffffffffffffffffffffffffffffffff1681526020019081526020016000206000828254611ca291906133d2565b92505081905550816002600083815260200190815260200160002060006101000a81548173ffffffffffffffffffffffffffffffffffffffff021916908373ffffffffffffffffffffffffffffffffffffffff160217905550808273ffffffffffffffffffffffffffffffffffffffff16600073ffffffffffffffffffffffffffffffffffffffff167fddf252ad1be2c89b69c2b068fc378daa952ba7f163c4a11628f55a4df523b3ef60405160405180910390a4611d63600083836120e5565b5050565b80600a600084815260200190815260200160002060040160006101000a81548173ffffffffffffffffffffffffffffffffffffffff021916908373ffffffffffffffffffffffffffffffffffffffff1602179055505050565b611dc982612074565b611e08576040517f08c379a0000000000000000000000000000000000000000000000000000000008152600401611dff9061370a565b60405180910390fd5b80600660008481526020019081526020016000209081611e28919061372a565b505050565b8173ffffffffffffffffffffffffffffffffffffffff168373ffffffffffffffffffffffffffffffffffffffff1603611e9b576040517f08c379a0000000000000000000000000000000000000000000000000000000008152600401611e9290613848565b60405180910390fd5b80600560008573ffffffffffffffffffffffffffffffffffffffff1673ffffffffffffffffffffffffffffffffffffffff16815260200190815260200160002060008473ffffffffffffffffffffffffffffffffffffffff1673ffffffffffffffffffffffffffffffffffffffff16815260200190815260200160002060006101000a81548160ff0219169083151502179055508173ffffffffffffffffffffffffffffffffffffffff168373ffffffffffffffffffffffffffffffffffffffff167f17307eab39ab6107e8899845ad3d59bd9653f200f220920489ca2b5937696c3183604051611f8c91906124a8565b60405180910390a3505050565b611fa48484846116af565b611fb0848484846120ea565b611fef576040517f08c379a0000000000000000000000000000000000000000000000000000000008152600401611fe6906138da565b60405180910390fd5b50505050565b606060405180602001604052806000815250905090565b60606120178261150e565b6000612021611ff5565b90506000815111612041576040518060200160405280600081525061206c565b8061204b84612271565b60405160200161205c929190613195565b6040516020818303038152906040525b915050919050565b60008073ffffffffffffffffffffffffffffffffffffffff166002600084815260200190815260200160002060009054906101000a900473ffffffffffffffffffffffffffffffffffffffff1673ffffffffffffffffffffffffffffffffffffffff1614159050919050565b505050565b505050565b600061210b8473ffffffffffffffffffffffffffffffffffffffff166123d1565b15612264578373ffffffffffffffffffffffffffffffffffffffff1663150b7a02612134611559565b8786866040518563ffffffff1660e01b8152600401612156949392919061394f565b6020604051808303816000875af192505050801561219257506040513d601f19601f8201168201806040525081019061218f91906139b0565b60015b612214573d80600081146121c2576040519150601f19603f3d011682016040523d82523d6000602084013e6121c7565b606091505b50600081510361220c576040517f08c379a0000000000000000000000000000000000000000000000000000000008152600401612203906138da565b60405180910390fd5b805181602001fd5b63150b7a0260e01b7bffffffffffffffffffffffffffffffffffffffffffffffffffffffff1916817bffffffffffffffffffffffffffffffffffffffffffffffffffffffff191614915050612269565b600190505b949350505050565b6060600082036122b8576040518060400160405280600181526020017f300000000000000000000000000000000000000000000000000000000000000081525090506123cc565b600082905060005b600082146122ea5780806122d390613578565b915050600a826122e391906139dd565b91506122c0565b60008167ffffffffffffffff8111156123065761230561283a565b5b6040519080825280601f01601f1916602001820160405280156123385781602001600182028036833780820191505090505b5090505b600085146123c557600182612351919061339e565b9150600a856123609190613547565b603061236c91906133d2565b60f81b81838151811061238257612381612bac565b5b60200101907effffffffffffffffffffffffffffffffffffffffffffffffffffffffffffff1916908160001a905350600a856123be91906139dd565b945061233c565b8093505050505b919050565b6000808273ffffffffffffffffffffffffffffffffffffffff163b119050919050565b6000604051905090565b600080fd5b600080fd5b60007fffffffff0000000000000000000000000000000000000000000000000000000082169050919050565b61243d81612408565b811461244857600080fd5b50565b60008135905061245a81612434565b92915050565b600060208284031215612476576124756123fe565b5b60006124848482850161244b565b91505092915050565b60008115159050919050565b6124a28161248d565b82525050565b60006020820190506124bd6000830184612499565b92915050565b600081519050919050565b600082825260208201905092915050565b60005b838110156124fd5780820151818401526020810190506124e2565b60008484015250505050565b6000601f19601f8301169050919050565b6000612525826124c3565b61252f81856124ce565b935061253f8185602086016124df565b61254881612509565b840191505092915050565b6000602082019050818103600083015261256d818461251a565b905092915050565b6000819050919050565b61258881612575565b811461259357600080fd5b50565b6000813590506125a58161257f565b92915050565b6000602082840312156125c1576125c06123fe565b5b60006125cf84828501612596565b91505092915050565b600073ffffffffffffffffffffffffffffffffffffffff82169050919050565b6000612603826125d8565b9050919050565b612613816125f8565b82525050565b600060208201905061262e600083018461260a565b92915050565b61263d816125f8565b811461264857600080fd5b50565b60008135905061265a81612634565b92915050565b60008060408385031215612677576126766123fe565b5b60006126858582860161264b565b925050602061269685828601612596565b9150509250929050565b6000806000606084860312156126b9576126b86123fe565b5b60006126c78682870161264b565b93505060206126d88682870161264b565b92505060406126e986828701612596565b9150509250925092565b600063ffffffff82169050919050565b61270c816126f3565b82525050565b60006020820190506127276000830184612703565b92915050565b60008060408385031215612744576127436123fe565b5b600061275285828601612596565b92505060206127638582860161264b565b9150509250929050565b600060208284031215612783576127826123fe565b5b60006127918482850161264b565b91505092915050565b6127a381612575565b82525050565b60006020820190506127be600083018461279a565b92915050565b6127cd8161248d565b81146127d857600080fd5b50565b6000813590506127ea816127c4565b92915050565b60008060408385031215612807576128066123fe565b5b60006128158582860161264b565b9250506020612826858286016127db565b9150509250929050565b600080fd5b600080fd5b7f4e487b7100000000000000000000000000000000000000000000000000000000600052604160045260246000fd5b61287282612509565b810181811067ffffffffffffffff821117156128915761289061283a565b5b80604052505050565b60006128a46123f4565b90506128b08282612869565b919050565b600067ffffffffffffffff8211156128d0576128cf61283a565b5b6128d982612509565b9050602081019050919050565b82818337600083830152505050565b6000612908612903846128b5565b61289a565b90508281526020810184848401111561292457612923612835565b5b61292f8482856128e6565b509392505050565b600082601f83011261294c5761294b612830565b5b813561295c8482602086016128f5565b91505092915050565b6000806000806080858703121561297f5761297e6123fe565b5b600061298d8782880161264b565b945050602061299e8782880161264b565b93505060406129af87828801612596565b925050606085013567ffffffffffffffff8111156129d0576129cf612403565b5b6129dc87828801612937565b91505092959194509250565b600080604083850312156129ff576129fe6123fe565b5b6000612a0d8582860161264b565b9250506020612a1e8582860161264b565b9150509250929050565b7f4e487b7100000000000000000000000000000000000000000000000000000000600052602260045260246000fd5b60006002820490506001821680612a6f57607f821691505b602082108103612a8257612a81612a28565b5b50919050565b7f4552433732313a20617070726f76616c20746f2063757272656e74206f776e6560008201527f7200000000000000000000000000000000000000000000000000000000000000602082015250565b6000612ae46021836124ce565b9150612aef82612a88565b604082019050919050565b60006020820190508181036000830152612b1381612ad7565b9050919050565b7f4552433732313a20617070726f76652063616c6c6572206973206e6f7420746f60008201527f6b656e206f776e6572206e6f7220617070726f76656420666f7220616c6c0000602082015250565b6000612b76603e836124ce565b9150612b8182612b1a565b604082019050919050565b60006020820190508181036000830152612ba581612b69565b9050919050565b7f4e487b7100000000000000000000000000000000000000000000000000000000600052603260045260246000fd5b7f4552433732313a2063616c6c6572206973206e6f7420746f6b656e206f776e6560008201527f72206e6f7220617070726f766564000000000000000000000000000000000000602082015250565b6000612c37602e836124ce565b9150612c4282612bdb565b604082019050919050565b60006020820190508181036000830152612c6681612c2a565b9050919050565b7f4552433732313a20696e76616c696420746f6b656e2049440000000000000000600082015250565b6000612ca36018836124ce565b9150612cae82612c6d565b602082019050919050565b60006020820190508181036000830152612cd281612c96565b9050919050565b7f4552433732313a2061646472657373207a65726f206973206e6f74206120766160008201527f6c6964206f776e65720000000000000000000000000000000000000000000000602082015250565b6000612d356029836124ce565b9150612d4082612cd9565b604082019050919050565b60006020820190508181036000830152612d6481612d28565b9050919050565b7f414c4c20414e494d414c53205745524520495353554544000000000000000000600082015250565b6000612da16017836124ce565b9150612dac82612d6b565b602082019050919050565b60006020820190508181036000830152612dd081612d94565b9050919050565b7f414c524541445920495353554544204e46540000000000000000000000000000600082015250565b6000612e0d6012836124ce565b9150612e1882612dd7565b602082019050919050565b60006020820190508181036000830152612e3c81612e00565b9050919050565b7f4e4654204d494e54455220414c52454144592045584953545300000000000000600082015250565b6000612e796019836124ce565b9150612e8482612e43565b602082019050919050565b60006020820190508181036000830152612ea881612e6c565b9050919050565b600081549050612ebe81612a57565b9050919050565b60008190508160005260206000209050919050565b60006020601f8301049050919050565b600082821b905092915050565b600060088302612f277fffffffffffffffffffffffffffffffffffffffffffffffffffffffffffffffff82612eea565b612f318683612eea565b95508019841693508086168417925050509392505050565b6000819050919050565b6000612f6e612f69612f6484612575565b612f49565b612575565b9050919050565b6000819050919050565b612f8883612f53565b612f9c612f9482612f75565b848454612ef7565b825550505050565b600090565b612fb1612fa4565b612fbc818484612f7f565b505050565b5b81811015612fe057612fd5600082612fa9565b600181019050612fc2565b5050565b601f82111561302557612ff681612ec5565b612fff84612eda565b8101602085101561300e578190505b61302261301a85612eda565b830182612fc1565b50505b505050565b600082821c905092915050565b60006130486000198460080261302a565b1980831691505092915050565b60006130618383613037565b9150826002028217905092915050565b81810361307f575050613157565b61308882612eaf565b67ffffffffffffffff8111156130a1576130a061283a565b5b6130ab8254612a57565b6130b6828285612fe4565b6000601f8311600181146130e557600084156130d3578287015490505b6130dd8582613055565b865550613150565b601f1984166130f387612ec5565b96506130fe86612ec5565b60005b8281101561312657848901548255600182019150600185019450602081019050613101565b86831015613143578489015461313f601f891682613037565b8355505b6001600288020188555050505b5050505050505b565b600081905092915050565b600061316f826124c3565b6131798185613159565b93506131898185602086016124df565b80840191505092915050565b60006131a18285613164565b91506131ad8284613164565b91508190509392505050565b7f4f776e61626c653a206e6577206f776e657220697320746865207a65726f206160008201527f6464726573730000000000000000000000000000000000000000000000000000602082015250565b60006132156026836124ce565b9150613220826131b9565b604082019050919050565b6000602082019050818103600083015261324481613208565b9050919050565b7f4552433732313a207472616e736665722066726f6d20696e636f72726563742060008201527f6f776e6572000000000000000000000000000000000000000000000000000000602082015250565b60006132a76025836124ce565b91506132b28261324b565b604082019050919050565b600060208201905081810360008301526132d68161329a565b9050919050565b7f4552433732313a207472616e7366657220746f20746865207a65726f2061646460008201527f7265737300000000000000000000000000000000000000000000000000000000602082015250565b60006133396024836124ce565b9150613344826132dd565b604082019050919050565b600060208201905081810360008301526133688161332c565b9050919050565b7f4e487b7100000000000000000000000000000000000000000000000000000000600052601160045260246000fd5b60006133a982612575565b91506133b483612575565b92508282039050818111156133cc576133cb61336f565b5b92915050565b60006133dd82612575565b91506133e883612575565b9250828201905080821115613400576133ff61336f565b5b92915050565b7f4f776e61626c653a2063616c6c6572206973206e6f7420746865206f776e6572600082015250565b600061343c6020836124ce565b915061344782613406565b602082019050919050565b6000602082019050818103600083015261346b8161342f565b9050919050565b6000819050919050565b61348d61348882612575565b613472565b82525050565b60008160601b9050919050565b60006134ab82613493565b9050919050565b60006134bd826134a0565b9050919050565b6134d56134d0826125f8565b6134b2565b82525050565b60006134e7828661347c565b6020820191506134f782856134c4565b601482019150613507828461347c565b602082019150819050949350505050565b7f4e487b7100000000000000000000000000000000000000000000000000000000600052601260045260246000fd5b600061355282612575565b915061355d83612575565b92508261356d5761356c613518565b5b828206905092915050565b600061358382612575565b91507fffffffffffffffffffffffffffffffffffffffffffffffffffffffffffffffff82036135b5576135b461336f565b5b600182019050919050565b7f4552433732313a206d696e7420746f20746865207a65726f2061646472657373600082015250565b60006135f66020836124ce565b9150613601826135c0565b602082019050919050565b60006020820190508181036000830152613625816135e9565b9050919050565b7f4552433732313a20746f6b656e20616c7265616479206d696e74656400000000600082015250565b6000613662601c836124ce565b915061366d8261362c565b602082019050919050565b6000602082019050818103600083015261369181613655565b9050919050565b7f45524337323155524953746f726167653a2055524920736574206f66206e6f6e60008201527f6578697374656e7420746f6b656e000000000000000000000000000000000000602082015250565b60006136f4602e836124ce565b91506136ff82613698565b604082019050919050565b60006020820190508181036000830152613723816136e7565b9050919050565b613733826124c3565b67ffffffffffffffff81111561374c5761374b61283a565b5b6137568254612a57565b613761828285612fe4565b600060209050601f8311600181146137945760008415613782578287015190505b61378c8582613055565b8655506137f4565b601f1984166137a286612ec5565b60005b828110156137ca578489015182556001820191506020850194506020810190506137a5565b868310156137e757848901516137e3601f891682613037565b8355505b6001600288020188555050505b505050505050565b7f4552433732313a20617070726f766520746f2063616c6c657200000000000000600082015250565b60006138326019836124ce565b915061383d826137fc565b602082019050919050565b6000602082019050818103600083015261386181613825565b9050919050565b7f4552433732313a207472616e7366657220746f206e6f6e20455243373231526560008201527f63656976657220696d706c656d656e7465720000000000000000000000000000602082015250565b60006138c46032836124ce565b91506138cf82613868565b604082019050919050565b600060208201905081810360008301526138f3816138b7565b9050919050565b600081519050919050565b600082825260208201905092915050565b6000613921826138fa565b61392b8185613905565b935061393b8185602086016124df565b61394481612509565b840191505092915050565b6000608082019050613964600083018761260a565b613971602083018661260a565b61397e604083018561279a565b81810360608301526139908184613916565b905095945050505050565b6000815190506139aa81612434565b92915050565b6000602082840312156139c6576139c56123fe565b5b60006139d48482850161399b565b91505092915050565b60006139e882612575565b91506139f383612575565b925082613a0357613a02613518565b5b82820490509291505056fea26469706673582212207f79c4f3f49aa0e96835570a88c701e184860e8f2b73ce232112d7ccd3d4c9ee64736f6c63430008100033",
  "immutableReferences": {},
  "source": "pragma solidity ^0.8.16;\r\n\r\nimport \"@openzeppelin/contracts/token/ERC721/ERC721.sol\";\r\nimport \"@openzeppelin/contracts/utils/Counters.sol\";\r\nimport \"@openzeppelin/contracts/access/Ownable.sol\";\r\nimport \"@openzeppelin/contracts/token/ERC721/extensions/ERC721URIStorage.sol\";\r\n\r\n/*\r\n    ?\r\n1.   \r\n2.      .\r\n3.   REST      ??     id       \r\n4,      .     .\r\n5.  struct     \r\n*/\r\ncontract AnimalNFT is ERC721URIStorage, Ownable {\r\n    \r\n    //   \r\n    struct AnimalInfo {\r\n        uint32 species; //1~15: string      \r\n        uint32 rank; //EW - CR - EN - VU - LC\r\n        string ipfsURI; //IPFS  \r\n        string ipfsImage; //IPFS   \r\n        uint256 number; //     \r\n\r\n        //    \r\n        address minter;\r\n        address owner;\r\n    }\r\n    \r\n    //using   \r\n    using Counters for Counters.Counter;\r\n\r\n    //    :   1 \r\n    Counters.Counter private _tokenIds;\r\n\r\n    //const   \r\n    uint256 constant LIMITED_NUMBER = 22000;\r\n\r\n\r\n    //uint256 test;\r\n    //   :  22000\r\n    AnimalInfo[] LIMITED_ANIMALS; // 2    .\r\n    mapping(uint256 => AnimalInfo) MINTED_ANIMALS; //    => ArrayList     \r\n\r\n    //ERC721URIStrage :  ID  URI \r\n    //mapping(uint256 => string) private _tokenURIs;\r\n\r\n    //   /\r\n    //mapping(uint256 => address) private _tokenOwners;\r\n\r\n    //  : 22000      =>   transactionHistories[tokenId]\r\n    //mapping(uint256 => address) private _minters; => AnimalInfo Struct    \r\n\r\n    //AnimalInfo   (  )\r\n    mapping(uint256 => AnimalInfo) private _animalInfos;\r\n\r\n\r\n    // \r\n    //: ,  ->  {: AMT}\r\n    constructor(\r\n        uint32[] memory _species,\r\n        uint32[] memory _rank,\r\n        string[] memory _ipfsURI,\r\n        string[] memory _ipfsImage,\r\n        uint256[] memory _number) ERC721(\"AnimalNFT\", \"AMT\") {\r\n        \r\n        //22000    \r\n        for(uint256 i = 0; i< _species.length; i++){\r\n            LIMITED_ANIMALS.push(\r\n                AnimalInfo(\r\n                    _species[i],\r\n                    _rank[i],\r\n                    _ipfsURI[i],\r\n                    _ipfsImage[i],\r\n                    _number[i],\r\n                    address(0),\r\n                    address(0)\r\n                )\r\n            );\r\n        }\r\n    }\r\n\r\n    function _createAnimalNFT (\r\n        //address recipient\r\n        //string memory tokenURI\r\n    ) public onlyOwner returns (uint256)\r\n    {\r\n        // \r\n        require(_tokenIds.current() < 22000, \"ALL ANIMALS WERE ISSUED\");\r\n        require(LIMITED_ANIMALS[_tokenIds.current()].minter == address(0), \"ALREADY ISSUED NFT\");\r\n        \r\n        //   \r\n        uint256 random = _randomAnimalNFT();\r\n\r\n        // :    \r\n        require(LIMITED_ANIMALS[random].minter == address(0), \"NFT MINTER ALREADY EXISTS\");\r\n\r\n        _tokenIds.increment(); //   NFT  1  INDEX \r\n        \r\n        //AnimalInfo newAnimalInfo = new AnimalInfo(LIMITED_ANIMAL[random].species, LIMITED_ANIMAL[random])\r\n        \r\n        uint256 newItemId = _tokenIds.current();\r\n        MINTED_ANIMALS[newItemId] = LIMITED_ANIMALS[random];\r\n\r\n        //ERC721  owner =>  contract   ->     \r\n        _mint(msg.sender, newItemId); \r\n        _setMinter(newItemId, msg.sender);\r\n        _setTokenURI(newItemId, MINTED_ANIMALS[newItemId].ipfsURI);\r\n\r\n        return newItemId;\r\n    }\r\n\r\n    \r\n    function _randomAnimalNFT(  \r\n    ) private view returns(uint){\r\n        //1\r\n        //Solidity deterministic -> random  \r\n        // keccak256  abi     \r\n        // Solidity  ArrayList add  delete  \r\n        //uint256 random = uint(keccak256(abi.encodePacked(block.timestamp, msg.sender, _tokenIds.current()))) % (MINTED_ANIMALS.length);\r\n        //MINTED_ANIMALS.push(LIMITED_ANIMALS[random]);\r\n        //delete LIMITED_ANIMALS\r\n        \r\n        //2\r\n        //   \r\n        //       i   tmp        j   \r\n        //uint256[] memory tmp = new uint256[](LIMITED_NUMBER - _tokenIds.current());\r\n        //for(uint256 i=0; i<LIMITED_ANIMALS.length; i++){\r\n        //    if(LIMITED_ANIMALS[i].minter == address(0)){\r\n        //        tmp.push(i); \r\n        //    }\r\n        //}\r\n        \r\n        //3 = 1 + 2 = view   gas      gas .\r\n        uint256 random = uint(keccak256(abi.encodePacked(block.timestamp, msg.sender, _tokenIds.current()))) % (_tokenIds.current());\r\n        // random         .\r\n        for(uint256 i = random; i<LIMITED_ANIMALS.length; i++){\r\n            //   \r\n            if(LIMITED_ANIMALS[(i % LIMITED_ANIMALS.length)].minter == address(0)){ \r\n                return i;\r\n            }\r\n        }\r\n        \r\n        return random;\r\n        //delete LIMITED_ANIMALS\r\n        \r\n    }\r\n\r\n    function _getSpecies(\r\n        uint256 tokenId\r\n    ) public view returns(uint32){\r\n        return LIMITED_ANIMALS[tokenId].species;\r\n    } \r\n    function _getRank(\r\n        uint256 tokenId\r\n    ) public view returns(uint32){\r\n        return LIMITED_ANIMALS[tokenId].rank;\r\n    }\r\n\r\n    function _getIpfsImage(\r\n        uint256 tokenId\r\n    ) public view returns(string memory){\r\n        return LIMITED_ANIMALS[tokenId].ipfsImage;\r\n    }\r\n\r\n    function _getIpfsUri(\r\n        uint256 tokenId\r\n    ) public view returns(string memory){\r\n        return LIMITED_ANIMALS[tokenId].ipfsURI;\r\n    }\r\n\r\n    function _getNumber(\r\n        uint256 tokenId\r\n    ) public view returns(uint256){\r\n        return LIMITED_ANIMALS[tokenId].number;\r\n    }\r\n\r\n    //Animal Info  mint \r\n    function _setMinter (\r\n        uint256 tokenId,\r\n        address minter \r\n    ) private {\r\n        MINTED_ANIMALS[tokenId].minter = minter;\r\n    }\r\n\r\n    function _getMinter (\r\n        uint256 tokenId\r\n    ) public view returns(address){\r\n        //require(_tokenIds.current() < tokenId, \"tokenId is a cause of OverFlow\");\r\n        return MINTED_ANIMALS[tokenId].minter;\r\n    }\r\n\r\n    function _setOwner (\r\n        uint256 tokenId,\r\n        address newOwner\r\n    ) public {\r\n        MINTED_ANIMALS[tokenId].owner = newOwner;\r\n    }\r\n\r\n    function _getOwner (\r\n        uint256 tokenId\r\n    ) public view returns(address){\r\n        //require(_tokenIds.current() < tokenId, \"tokenId is a cause of OverFlow\");\r\n        return MINTED_ANIMALS[tokenId].owner;\r\n    }\r\n}",
  "sourcePath": "C:\\Users\\multicampus\\project\\S07P21D103\\solidity\\truffle\\contracts\\AnimalNFT.sol",
  "compiler": {
    "name": "solc",
    "version": "0.8.16+commit.07a7930e.Emscripten.clang"
  },
  "schemaVersion": "3.4.9",
  "updatedAt": "2022-09-04T07:21:59.639Z",
  "networkType": "ethereum",
  "devdoc": {
    "kind": "dev",
    "methods": {
      "approve(address,uint256)": {
        "details": "See {IERC721-approve}."
      },
      "balanceOf(address)": {
        "details": "See {IERC721-balanceOf}."
      },
      "getApproved(uint256)": {
        "details": "See {IERC721-getApproved}."
      },
      "isApprovedForAll(address,address)": {
        "details": "See {IERC721-isApprovedForAll}."
      },
      "name()": {
        "details": "See {IERC721Metadata-name}."
      },
      "owner()": {
        "details": "Returns the address of the current owner."
      },
      "ownerOf(uint256)": {
        "details": "See {IERC721-ownerOf}."
      },
      "renounceOwnership()": {
        "details": "Leaves the contract without owner. It will not be possible to call `onlyOwner` functions anymore. Can only be called by the current owner. NOTE: Renouncing ownership will leave the contract without an owner, thereby removing any functionality that is only available to the owner."
      },
      "safeTransferFrom(address,address,uint256)": {
        "details": "See {IERC721-safeTransferFrom}."
      },
      "safeTransferFrom(address,address,uint256,bytes)": {
        "details": "See {IERC721-safeTransferFrom}."
      },
      "setApprovalForAll(address,bool)": {
        "details": "See {IERC721-setApprovalForAll}."
      },
      "supportsInterface(bytes4)": {
        "details": "See {IERC165-supportsInterface}."
      },
      "symbol()": {
        "details": "See {IERC721Metadata-symbol}."
      },
      "tokenURI(uint256)": {
        "details": "See {IERC721Metadata-tokenURI}."
      },
      "transferFrom(address,address,uint256)": {
        "details": "See {IERC721-transferFrom}."
      },
      "transferOwnership(address)": {
        "details": "Transfers ownership of the contract to a new account (`newOwner`). Can only be called by the current owner."
      }
    },
    "version": 1
  },
  "userdoc": {
    "kind": "user",
    "methods": {},
    "version": 1
  }
}