{
  "contractName": "AnimalNft",
  "abi": [
    {
      "inputs": [
        {
          "internalType": "uint32[]",
          "name": "species",
          "type": "uint32[]"
        },
        {
          "internalType": "uint32[]",
          "name": "rank",
          "type": "uint32[]"
        },
        {
          "internalType": "string[]",
          "name": "tokenUri",
          "type": "string[]"
        },
        {
          "internalType": "uint256[]",
          "name": "number",
          "type": "uint256[]"
        }
      ],
      "stateMutability": "nonpayable",
      "type": "constructor"
    },
    {
      "anonymous": false,
      "inputs": [
        {
          "indexed": true,
          "internalType": "address",
          "name": "owner",
          "type": "address"
        },
        {
          "indexed": true,
          "internalType": "address",
          "name": "approved",
          "type": "address"
        },
        {
          "indexed": true,
          "internalType": "uint256",
          "name": "tokenId",
          "type": "uint256"
        }
      ],
      "name": "Approval",
      "type": "event"
    },
    {
      "anonymous": false,
      "inputs": [
        {
          "indexed": true,
          "internalType": "address",
          "name": "owner",
          "type": "address"
        },
        {
          "indexed": true,
          "internalType": "address",
          "name": "operator",
          "type": "address"
        },
        {
          "indexed": false,
          "internalType": "bool",
          "name": "approved",
          "type": "bool"
        }
      ],
      "name": "ApprovalForAll",
      "type": "event"
    },
    {
      "anonymous": false,
      "inputs": [
        {
          "indexed": true,
          "internalType": "address",
          "name": "previousOwner",
          "type": "address"
        },
        {
          "indexed": true,
          "internalType": "address",
          "name": "newOwner",
          "type": "address"
        }
      ],
      "name": "OwnershipTransferred",
      "type": "event"
    },
    {
      "anonymous": false,
      "inputs": [
        {
          "indexed": true,
          "internalType": "address",
          "name": "from",
          "type": "address"
        },
        {
          "indexed": true,
          "internalType": "address",
          "name": "to",
          "type": "address"
        },
        {
          "indexed": true,
          "internalType": "uint256",
          "name": "tokenId",
          "type": "uint256"
        }
      ],
      "name": "Transfer",
      "type": "event"
    },
    {
      "inputs": [
        {
          "internalType": "address",
          "name": "to",
          "type": "address"
        },
        {
          "internalType": "uint256",
          "name": "tokenId",
          "type": "uint256"
        }
      ],
      "name": "approve",
      "outputs": [],
      "stateMutability": "nonpayable",
      "type": "function"
    },
    {
      "inputs": [
        {
          "internalType": "address",
          "name": "owner",
          "type": "address"
        }
      ],
      "name": "balanceOf",
      "outputs": [
        {
          "internalType": "uint256",
          "name": "",
          "type": "uint256"
        }
      ],
      "stateMutability": "view",
      "type": "function",
      "constant": true
    },
    {
      "inputs": [
        {
          "internalType": "uint256",
          "name": "tokenId",
          "type": "uint256"
        }
      ],
      "name": "getApproved",
      "outputs": [
        {
          "internalType": "address",
          "name": "",
          "type": "address"
        }
      ],
      "stateMutability": "view",
      "type": "function",
      "constant": true
    },
    {
      "inputs": [
        {
          "internalType": "address",
          "name": "owner",
          "type": "address"
        },
        {
          "internalType": "address",
          "name": "operator",
          "type": "address"
        }
      ],
      "name": "isApprovedForAll",
      "outputs": [
        {
          "internalType": "bool",
          "name": "",
          "type": "bool"
        }
      ],
      "stateMutability": "view",
      "type": "function",
      "constant": true
    },
    {
      "inputs": [],
      "name": "name",
      "outputs": [
        {
          "internalType": "string",
          "name": "",
          "type": "string"
        }
      ],
      "stateMutability": "view",
      "type": "function",
      "constant": true
    },
    {
      "inputs": [],
      "name": "owner",
      "outputs": [
        {
          "internalType": "address",
          "name": "",
          "type": "address"
        }
      ],
      "stateMutability": "view",
      "type": "function",
      "constant": true
    },
    {
      "inputs": [
        {
          "internalType": "uint256",
          "name": "tokenId",
          "type": "uint256"
        }
      ],
      "name": "ownerOf",
      "outputs": [
        {
          "internalType": "address",
          "name": "",
          "type": "address"
        }
      ],
      "stateMutability": "view",
      "type": "function",
      "constant": true
    },
    {
      "inputs": [],
      "name": "renounceOwnership",
      "outputs": [],
      "stateMutability": "nonpayable",
      "type": "function"
    },
    {
      "inputs": [
        {
          "internalType": "address",
          "name": "from",
          "type": "address"
        },
        {
          "internalType": "address",
          "name": "to",
          "type": "address"
        },
        {
          "internalType": "uint256",
          "name": "tokenId",
          "type": "uint256"
        }
      ],
      "name": "safeTransferFrom",
      "outputs": [],
      "stateMutability": "nonpayable",
      "type": "function"
    },
    {
      "inputs": [
        {
          "internalType": "address",
          "name": "from",
          "type": "address"
        },
        {
          "internalType": "address",
          "name": "to",
          "type": "address"
        },
        {
          "internalType": "uint256",
          "name": "tokenId",
          "type": "uint256"
        },
        {
          "internalType": "bytes",
          "name": "data",
          "type": "bytes"
        }
      ],
      "name": "safeTransferFrom",
      "outputs": [],
      "stateMutability": "nonpayable",
      "type": "function"
    },
    {
      "inputs": [
        {
          "internalType": "address",
          "name": "operator",
          "type": "address"
        },
        {
          "internalType": "bool",
          "name": "approved",
          "type": "bool"
        }
      ],
      "name": "setApprovalForAll",
      "outputs": [],
      "stateMutability": "nonpayable",
      "type": "function"
    },
    {
      "inputs": [
        {
          "internalType": "bytes4",
          "name": "interfaceId",
          "type": "bytes4"
        }
      ],
      "name": "supportsInterface",
      "outputs": [
        {
          "internalType": "bool",
          "name": "",
          "type": "bool"
        }
      ],
      "stateMutability": "view",
      "type": "function",
      "constant": true
    },
    {
      "inputs": [],
      "name": "symbol",
      "outputs": [
        {
          "internalType": "string",
          "name": "",
          "type": "string"
        }
      ],
      "stateMutability": "view",
      "type": "function",
      "constant": true
    },
    {
      "inputs": [
        {
          "internalType": "uint256",
          "name": "tokenId",
          "type": "uint256"
        }
      ],
      "name": "tokenURI",
      "outputs": [
        {
          "internalType": "string",
          "name": "",
          "type": "string"
        }
      ],
      "stateMutability": "view",
      "type": "function",
      "constant": true
    },
    {
      "inputs": [
        {
          "internalType": "address",
          "name": "from",
          "type": "address"
        },
        {
          "internalType": "address",
          "name": "to",
          "type": "address"
        },
        {
          "internalType": "uint256",
          "name": "tokenId",
          "type": "uint256"
        }
      ],
      "name": "transferFrom",
      "outputs": [],
      "stateMutability": "nonpayable",
      "type": "function"
    },
    {
      "inputs": [
        {
          "internalType": "address",
          "name": "newOwner",
          "type": "address"
        }
      ],
      "name": "transferOwnership",
      "outputs": [],
      "stateMutability": "nonpayable",
      "type": "function"
    },
    {
      "inputs": [],
      "name": "_createAnimalNft",
      "outputs": [
        {
          "internalType": "uint256",
          "name": "",
          "type": "uint256"
        }
      ],
      "stateMutability": "nonpayable",
      "type": "function"
    },
    {
      "inputs": [
        {
          "internalType": "uint256",
          "name": "tokenId",
          "type": "uint256"
        }
      ],
      "name": "_getSpecies",
      "outputs": [
        {
          "internalType": "uint32",
          "name": "",
          "type": "uint32"
        }
      ],
      "stateMutability": "view",
      "type": "function",
      "constant": true
    },
    {
      "inputs": [
        {
          "internalType": "uint256",
          "name": "tokenId",
          "type": "uint256"
        }
      ],
      "name": "_getRank",
      "outputs": [
        {
          "internalType": "uint32",
          "name": "",
          "type": "uint32"
        }
      ],
      "stateMutability": "view",
      "type": "function",
      "constant": true
    },
    {
      "inputs": [
        {
          "internalType": "uint256",
          "name": "tokenId",
          "type": "uint256"
        }
      ],
      "name": "_getTokenUri",
      "outputs": [
        {
          "internalType": "string",
          "name": "",
          "type": "string"
        }
      ],
      "stateMutability": "view",
      "type": "function",
      "constant": true
    },
    {
      "inputs": [
        {
          "internalType": "uint256",
          "name": "tokenId",
          "type": "uint256"
        }
      ],
      "name": "_getNumber",
      "outputs": [
        {
          "internalType": "uint256",
          "name": "",
          "type": "uint256"
        }
      ],
      "stateMutability": "view",
      "type": "function",
      "constant": true
    },
    {
      "inputs": [
        {
          "internalType": "uint256",
          "name": "tokenId",
          "type": "uint256"
        }
      ],
      "name": "_getMinter",
      "outputs": [
        {
          "internalType": "address",
          "name": "",
          "type": "address"
        }
      ],
      "stateMutability": "view",
      "type": "function",
      "constant": true
    },
    {
      "inputs": [
        {
          "internalType": "uint256",
          "name": "tokenId",
          "type": "uint256"
        },
        {
          "internalType": "address",
          "name": "newOwner",
          "type": "address"
        }
      ],
      "name": "_setOwner",
      "outputs": [],
      "stateMutability": "nonpayable",
      "type": "function"
    },
    {
      "inputs": [
        {
          "internalType": "uint256",
          "name": "tokenId",
          "type": "uint256"
        }
      ],
      "name": "_getOwner",
      "outputs": [
        {
          "internalType": "address",
          "name": "",
          "type": "address"
        }
      ],
      "stateMutability": "view",
      "type": "function",
      "constant": true
    }
  ],
  "bytecode": "0x60806040523480156200001157600080fd5b506040516200469f3803806200469f8339818101604052810190620000379190620008a2565b6040518060400160405280600981526020017f416e696d616c4e465400000000000000000000000000000000000000000000008152506040518060400160405280600381526020017f414d5400000000000000000000000000000000000000000000000000000000008152508160009081620000b4919062000bd1565b508060019081620000c6919062000bd1565b505050620000e9620000dd6200031d60201b60201c565b6200032560201b60201c565b60005b8451811015620003125760096040518060c0016040528087848151811062000119576200011862000cb8565b5b602002602001015163ffffffff16815260200186848151811062000142576200014162000cb8565b5b602002602001015163ffffffff1681526020018584815181106200016b576200016a62000cb8565b5b602002602001015181526020018484815181106200018e576200018d62000cb8565b5b60200260200101518152602001600073ffffffffffffffffffffffffffffffffffffffff168152602001600073ffffffffffffffffffffffffffffffffffffffff16815250908060018154018082558091505060019003906000526020600020906005020160009091909190915060008201518160000160006101000a81548163ffffffff021916908363ffffffff16021790555060208201518160000160046101000a81548163ffffffff021916908363ffffffff160217905550604082015181600101908162000261919062000bd1565b506060820151816002015560808201518160030160006101000a81548173ffffffffffffffffffffffffffffffffffffffff021916908373ffffffffffffffffffffffffffffffffffffffff16021790555060a08201518160040160006101000a81548173ffffffffffffffffffffffffffffffffffffffff021916908373ffffffffffffffffffffffffffffffffffffffff16021790555050508080620003099062000d16565b915050620000ec565b505050505062000d63565b600033905090565b6000600760009054906101000a900473ffffffffffffffffffffffffffffffffffffffff16905081600760006101000a81548173ffffffffffffffffffffffffffffffffffffffff021916908373ffffffffffffffffffffffffffffffffffffffff1602179055508173ffffffffffffffffffffffffffffffffffffffff168173ffffffffffffffffffffffffffffffffffffffff167f8be0079c531659141344cd1fd0a4f28419497f9722a3daafe3b4186f6b6457e060405160405180910390a35050565b6000604051905090565b600080fd5b600080fd5b600080fd5b6000601f19601f8301169050919050565b7f4e487b7100000000000000000000000000000000000000000000000000000000600052604160045260246000fd5b6200044f8262000404565b810181811067ffffffffffffffff8211171562000471576200047062000415565b5b80604052505050565b600062000486620003eb565b905062000494828262000444565b919050565b600067ffffffffffffffff821115620004b757620004b662000415565b5b602082029050602081019050919050565b600080fd5b600063ffffffff82169050919050565b620004e881620004cd565b8114620004f457600080fd5b50565b6000815190506200050881620004dd565b92915050565b6000620005256200051f8462000499565b6200047a565b905080838252602082019050602084028301858111156200054b576200054a620004c8565b5b835b81811015620005785780620005638882620004f7565b8452602084019350506020810190506200054d565b5050509392505050565b600082601f8301126200059a5762000599620003ff565b5b8151620005ac8482602086016200050e565b91505092915050565b600067ffffffffffffffff821115620005d357620005d262000415565b5b602082029050602081019050919050565b600080fd5b600067ffffffffffffffff82111562000607576200060662000415565b5b620006128262000404565b9050602081019050919050565b60005b838110156200063f57808201518184015260208101905062000622565b60008484015250505050565b6000620006626200065c84620005e9565b6200047a565b905082815260208101848484011115620006815762000680620005e4565b5b6200068e8482856200061f565b509392505050565b600082601f830112620006ae57620006ad620003ff565b5b8151620006c08482602086016200064b565b91505092915050565b6000620006e0620006da84620005b5565b6200047a565b90508083825260208201905060208402830185811115620007065762000705620004c8565b5b835b818110156200075457805167ffffffffffffffff8111156200072f576200072e620003ff565b5b8086016200073e898262000696565b8552602085019450505060208101905062000708565b5050509392505050565b600082601f830112620007765762000775620003ff565b5b815162000788848260208601620006c9565b91505092915050565b600067ffffffffffffffff821115620007af57620007ae62000415565b5b602082029050602081019050919050565b6000819050919050565b620007d581620007c0565b8114620007e157600080fd5b50565b600081519050620007f581620007ca565b92915050565b6000620008126200080c8462000791565b6200047a565b90508083825260208201905060208402830185811115620008385762000837620004c8565b5b835b81811015620008655780620008508882620007e4565b8452602084019350506020810190506200083a565b5050509392505050565b600082601f830112620008875762000886620003ff565b5b815162000899848260208601620007fb565b91505092915050565b60008060008060808587031215620008bf57620008be620003f5565b5b600085015167ffffffffffffffff811115620008e057620008df620003fa565b5b620008ee8782880162000582565b945050602085015167ffffffffffffffff811115620009125762000911620003fa565b5b620009208782880162000582565b935050604085015167ffffffffffffffff811115620009445762000943620003fa565b5b62000952878288016200075e565b925050606085015167ffffffffffffffff811115620009765762000975620003fa565b5b62000984878288016200086f565b91505092959194509250565b600081519050919050565b7f4e487b7100000000000000000000000000000000000000000000000000000000600052602260045260246000fd5b60006002820490506001821680620009e357607f821691505b602082108103620009f957620009f86200099b565b5b50919050565b60008190508160005260206000209050919050565b60006020601f8301049050919050565b600082821b905092915050565b60006008830262000a637fffffffffffffffffffffffffffffffffffffffffffffffffffffffffffffffff8262000a24565b62000a6f868362000a24565b95508019841693508086168417925050509392505050565b6000819050919050565b600062000ab262000aac62000aa684620007c0565b62000a87565b620007c0565b9050919050565b6000819050919050565b62000ace8362000a91565b62000ae662000add8262000ab9565b84845462000a31565b825550505050565b600090565b62000afd62000aee565b62000b0a81848462000ac3565b505050565b5b8181101562000b325762000b2660008262000af3565b60018101905062000b10565b5050565b601f82111562000b815762000b4b81620009ff565b62000b568462000a14565b8101602085101562000b66578190505b62000b7e62000b758562000a14565b83018262000b0f565b50505b505050565b600082821c905092915050565b600062000ba66000198460080262000b86565b1980831691505092915050565b600062000bc1838362000b93565b9150826002028217905092915050565b62000bdc8262000990565b67ffffffffffffffff81111562000bf85762000bf762000415565b5b62000c048254620009ca565b62000c1182828562000b36565b600060209050601f83116001811462000c49576000841562000c34578287015190505b62000c40858262000bb3565b86555062000cb0565b601f19841662000c5986620009ff565b60005b8281101562000c835784890151825560018201915060208501945060208101905062000c5c565b8683101562000ca3578489015162000c9f601f89168262000b93565b8355505b6001600288020188555050505b505050505050565b7f4e487b7100000000000000000000000000000000000000000000000000000000600052603260045260246000fd5b7f4e487b7100000000000000000000000000000000000000000000000000000000600052601160045260246000fd5b600062000d2382620007c0565b91507fffffffffffffffffffffffffffffffffffffffffffffffffffffffffffffffff820362000d585762000d5762000ce7565b5b600182019050919050565b61392c8062000d736000396000f3fe608060405234801561001057600080fd5b50600436106101585760003560e01c8063715018a6116100c3578063b07e7b181161007c578063b07e7b18146103eb578063b88d4fde1461041b578063c87b56dd14610437578063cfed710314610467578063e985e9c514610497578063f2fde38b146104c757610158565b8063715018a6146103295780638da5cb5b1461033357806395d89b41146103515780639b12632b1461036f578063a22cb4651461039f578063a8dae8bd146103bb57610158565b806342842e0e1161011557806342842e0e14610243578063620598391461025f57806362b514b01461027b5780636352211e1461029957806364d4eeab146102c957806370a08231146102f957610158565b806301ffc9a71461015d57806306fdde031461018d578063081812fc146101ab578063095ea7b3146101db57806323b872dd146101f7578063339d8c7b14610213575b600080fd5b61017760048036038101906101729190612348565b6104e3565b6040516101849190612390565b60405180910390f35b6101956105c5565b6040516101a2919061243b565b60405180910390f35b6101c560048036038101906101c09190612493565b610657565b6040516101d29190612501565b60405180910390f35b6101f560048036038101906101f09190612548565b61069d565b005b610211600480360381019061020c9190612588565b6107b4565b005b61022d60048036038101906102289190612493565b610814565b60405161023a91906125fa565b60405180910390f35b61025d60048036038101906102589190612588565b610853565b005b61027960048036038101906102749190612615565b610873565b005b6102836108cc565b6040516102909190612664565b60405180910390f35b6102b360048036038101906102ae9190612493565b610d07565b6040516102c09190612501565b60405180910390f35b6102e360048036038101906102de9190612493565b610db8565b6040516102f09190612501565b60405180910390f35b610313600480360381019061030e919061267f565b610df8565b6040516103209190612664565b60405180910390f35b610331610eaf565b005b61033b610ec3565b6040516103489190612501565b60405180910390f35b610359610eed565b604051610366919061243b565b60405180910390f35b61038960048036038101906103849190612493565b610f7f565b604051610396919061243b565b60405180910390f35b6103b960048036038101906103b491906126d8565b611036565b005b6103d560048036038101906103d09190612493565b61104c565b6040516103e29190612664565b60405180910390f35b61040560048036038101906104009190612493565b61107b565b60405161041291906125fa565b60405180910390f35b6104356004803603810190610430919061284d565b6110ba565b005b610451600480360381019061044c9190612493565b61111c565b60405161045e919061243b565b60405180910390f35b610481600480360381019061047c9190612493565b61122e565b60405161048e9190612501565b60405180910390f35b6104b160048036038101906104ac91906128d0565b61126e565b6040516104be9190612390565b60405180910390f35b6104e160048036038101906104dc919061267f565b611302565b005b60007f80ac58cd000000000000000000000000000000000000000000000000000000007bffffffffffffffffffffffffffffffffffffffffffffffffffffffff1916827bffffffffffffffffffffffffffffffffffffffffffffffffffffffff191614806105ae57507f5b5e139f000000000000000000000000000000000000000000000000000000007bffffffffffffffffffffffffffffffffffffffffffffffffffffffff1916827bffffffffffffffffffffffffffffffffffffffffffffffffffffffff1916145b806105be57506105bd82611385565b5b9050919050565b6060600080546105d49061293f565b80601f01602080910402602001604051908101604052809291908181526020018280546106009061293f565b801561064d5780601f106106225761010080835404028352916020019161064d565b820191906000526020600020905b81548152906001019060200180831161063057829003601f168201915b5050505050905090565b6000610662826113ef565b6004600083815260200190815260200160002060009054906101000a900473ffffffffffffffffffffffffffffffffffffffff169050919050565b60006106a882610d07565b90508073ffffffffffffffffffffffffffffffffffffffff168373ffffffffffffffffffffffffffffffffffffffff1603610718576040517f08c379a000000000000000000000000000000000000000000000000000000000815260040161070f906129e2565b60405180910390fd5b8073ffffffffffffffffffffffffffffffffffffffff1661073761143a565b73ffffffffffffffffffffffffffffffffffffffff16148061076657506107658161076061143a565b61126e565b5b6107a5576040517f08c379a000000000000000000000000000000000000000000000000000000000815260040161079c90612a74565b60405180910390fd5b6107af8383611442565b505050565b6107c56107bf61143a565b826114fb565b610804576040517f08c379a00000000000000000000000000000000000000000000000000000000081526004016107fb90612b06565b60405180910390fd5b61080f838383611590565b505050565b60006009828154811061082a57610829612b26565b5b906000526020600020906005020160000160009054906101000a900463ffffffff169050919050565b61086e838383604051806020016040528060008152506110ba565b505050565b80600a600084815260200190815260200160002060040160006101000a81548173ffffffffffffffffffffffffffffffffffffffff021916908373ffffffffffffffffffffffffffffffffffffffff1602179055505050565b60006155f06108db60086117f6565b1061091b576040517f08c379a000000000000000000000000000000000000000000000000000000000815260040161091290612ba1565b60405180910390fd5b600073ffffffffffffffffffffffffffffffffffffffff16600961093f60086117f6565b815481106109505761094f612b26565b5b906000526020600020906005020160030160009054906101000a900473ffffffffffffffffffffffffffffffffffffffff1673ffffffffffffffffffffffffffffffffffffffff16146109d8576040517f08c379a00000000000000000000000000000000000000000000000000000000081526004016109cf90612c0d565b60405180910390fd5b60006109e2611804565b9050600073ffffffffffffffffffffffffffffffffffffffff1660098281548110610a1057610a0f612b26565b5b906000526020600020906005020160030160009054906101000a900473ffffffffffffffffffffffffffffffffffffffff1673ffffffffffffffffffffffffffffffffffffffff1614610a98576040517f08c379a0000000000000000000000000000000000000000000000000000000008152600401610a8f90612c79565b60405180910390fd5b610aa2600861191c565b6000610aae60086117f6565b905060098281548110610ac457610ac3612b26565b5b9060005260206000209060050201600a60008381526020019081526020016000206000820160009054906101000a900463ffffffff168160000160006101000a81548163ffffffff021916908363ffffffff1602179055506000820160049054906101000a900463ffffffff168160000160046101000a81548163ffffffff021916908363ffffffff16021790555060018201816001019081610b679190612e5b565b50600282015481600201556003820160009054906101000a900473ffffffffffffffffffffffffffffffffffffffff168160030160006101000a81548173ffffffffffffffffffffffffffffffffffffffff021916908373ffffffffffffffffffffffffffffffffffffffff1602179055506004820160009054906101000a900473ffffffffffffffffffffffffffffffffffffffff168160040160006101000a81548173ffffffffffffffffffffffffffffffffffffffff021916908373ffffffffffffffffffffffffffffffffffffffff160217905550905050610c4d3382611932565b610c578133611b0b565b610cff81600a60008481526020019081526020016000206001018054610c7c9061293f565b80601f0160208091040260200160405190810160405280929190818152602001828054610ca89061293f565b8015610cf55780601f10610cca57610100808354040283529160200191610cf5565b820191906000526020600020905b815481529060010190602001808311610cd857829003601f168201915b5050505050611b64565b809250505090565b6000806002600084815260200190815260200160002060009054906101000a900473ffffffffffffffffffffffffffffffffffffffff169050600073ffffffffffffffffffffffffffffffffffffffff168173ffffffffffffffffffffffffffffffffffffffff1603610daf576040517f08c379a0000000000000000000000000000000000000000000000000000000008152600401610da690612f8f565b60405180910390fd5b80915050919050565b6000600a600083815260200190815260200160002060040160009054906101000a900473ffffffffffffffffffffffffffffffffffffffff169050919050565b60008073ffffffffffffffffffffffffffffffffffffffff168273ffffffffffffffffffffffffffffffffffffffff1603610e68576040517f08c379a0000000000000000000000000000000000000000000000000000000008152600401610e5f90613021565b60405180910390fd5b600360008373ffffffffffffffffffffffffffffffffffffffff1673ffffffffffffffffffffffffffffffffffffffff168152602001908152602001600020549050919050565b610eb7611bd1565b610ec16000611c4f565b565b6000600760009054906101000a900473ffffffffffffffffffffffffffffffffffffffff16905090565b606060018054610efc9061293f565b80601f0160208091040260200160405190810160405280929190818152602001828054610f289061293f565b8015610f755780601f10610f4a57610100808354040283529160200191610f75565b820191906000526020600020905b815481529060010190602001808311610f5857829003601f168201915b5050505050905090565b606060098281548110610f9557610f94612b26565b5b90600052602060002090600502016001018054610fb19061293f565b80601f0160208091040260200160405190810160405280929190818152602001828054610fdd9061293f565b801561102a5780601f10610fff5761010080835404028352916020019161102a565b820191906000526020600020905b81548152906001019060200180831161100d57829003601f168201915b50505050509050919050565b61104861104161143a565b8383611d15565b5050565b60006009828154811061106257611061612b26565b5b9060005260206000209060050201600201549050919050565b60006009828154811061109157611090612b26565b5b906000526020600020906005020160000160049054906101000a900463ffffffff169050919050565b6110cb6110c561143a565b836114fb565b61110a576040517f08c379a000000000000000000000000000000000000000000000000000000000815260040161110190612b06565b60405180910390fd5b61111684848484611e81565b50505050565b6060611127826113ef565b60006006600084815260200190815260200160002080546111479061293f565b80601f01602080910402602001604051908101604052809291908181526020018280546111739061293f565b80156111c05780601f10611195576101008083540402835291602001916111c0565b820191906000526020600020905b8154815290600101906020018083116111a357829003601f168201915b5050505050905060006111d1611edd565b905060008151036111e6578192505050611229565b60008251111561121b57808260405160200161120392919061307d565b60405160208183030381529060405292505050611229565b61122484611ef4565b925050505b919050565b6000600a600083815260200190815260200160002060030160009054906101000a900473ffffffffffffffffffffffffffffffffffffffff169050919050565b6000600560008473ffffffffffffffffffffffffffffffffffffffff1673ffffffffffffffffffffffffffffffffffffffff16815260200190815260200160002060008373ffffffffffffffffffffffffffffffffffffffff1673ffffffffffffffffffffffffffffffffffffffff16815260200190815260200160002060009054906101000a900460ff16905092915050565b61130a611bd1565b600073ffffffffffffffffffffffffffffffffffffffff168173ffffffffffffffffffffffffffffffffffffffff1603611379576040517f08c379a000000000000000000000000000000000000000000000000000000000815260040161137090613113565b60405180910390fd5b61138281611c4f565b50565b60007f01ffc9a7000000000000000000000000000000000000000000000000000000007bffffffffffffffffffffffffffffffffffffffffffffffffffffffff1916827bffffffffffffffffffffffffffffffffffffffffffffffffffffffff1916149050919050565b6113f881611f5c565b611437576040517f08c379a000000000000000000000000000000000000000000000000000000000815260040161142e90612f8f565b60405180910390fd5b50565b600033905090565b816004600083815260200190815260200160002060006101000a81548173ffffffffffffffffffffffffffffffffffffffff021916908373ffffffffffffffffffffffffffffffffffffffff160217905550808273ffffffffffffffffffffffffffffffffffffffff166114b583610d07565b73ffffffffffffffffffffffffffffffffffffffff167f8c5be1e5ebec7d5bd14f71427d1e84f3dd0314c0f7b2291e5b200ac8c7c3b92560405160405180910390a45050565b60008061150783610d07565b90508073ffffffffffffffffffffffffffffffffffffffff168473ffffffffffffffffffffffffffffffffffffffff1614806115495750611548818561126e565b5b8061158757508373ffffffffffffffffffffffffffffffffffffffff1661156f84610657565b73ffffffffffffffffffffffffffffffffffffffff16145b91505092915050565b8273ffffffffffffffffffffffffffffffffffffffff166115b082610d07565b73ffffffffffffffffffffffffffffffffffffffff1614611606576040517f08c379a00000000000000000000000000000000000000000000000000000000081526004016115fd906131a5565b60405180910390fd5b600073ffffffffffffffffffffffffffffffffffffffff168273ffffffffffffffffffffffffffffffffffffffff1603611675576040517f08c379a000000000000000000000000000000000000000000000000000000000815260040161166c90613237565b60405180910390fd5b611680838383611fc8565b61168b600082611442565b6001600360008573ffffffffffffffffffffffffffffffffffffffff1673ffffffffffffffffffffffffffffffffffffffff16815260200190815260200160002060008282546116db9190613286565b925050819055506001600360008473ffffffffffffffffffffffffffffffffffffffff1673ffffffffffffffffffffffffffffffffffffffff168152602001908152602001600020600082825461173291906132ba565b92505081905550816002600083815260200190815260200160002060006101000a81548173ffffffffffffffffffffffffffffffffffffffff021916908373ffffffffffffffffffffffffffffffffffffffff160217905550808273ffffffffffffffffffffffffffffffffffffffff168473ffffffffffffffffffffffffffffffffffffffff167fddf252ad1be2c89b69c2b068fc378daa952ba7f163c4a11628f55a4df523b3ef60405160405180910390a46117f1838383611fcd565b505050565b600081600001549050919050565b600080600980549050423361181960086117f6565b60405160200161182b93929190613357565b6040516020818303038152906040528051906020012060001c61184e91906133c3565b905060008190505b6009805490508261186791906132ba565b81101561191357600073ffffffffffffffffffffffffffffffffffffffff16600980805490508361189891906133c3565b815481106118a9576118a8612b26565b5b906000526020600020906005020160030160009054906101000a900473ffffffffffffffffffffffffffffffffffffffff1673ffffffffffffffffffffffffffffffffffffffff1603611900578092505050611919565b808061190b906133f4565b915050611856565b50809150505b90565b6001816000016000828254019250508190555050565b600073ffffffffffffffffffffffffffffffffffffffff168273ffffffffffffffffffffffffffffffffffffffff16036119a1576040517f08c379a000000000000000000000000000000000000000000000000000000000815260040161199890613488565b60405180910390fd5b6119aa81611f5c565b156119ea576040517f08c379a00000000000000000000000000000000000000000000000000000000081526004016119e1906134f4565b60405180910390fd5b6119f660008383611fc8565b6001600360008473ffffffffffffffffffffffffffffffffffffffff1673ffffffffffffffffffffffffffffffffffffffff1681526020019081526020016000206000828254611a4691906132ba565b92505081905550816002600083815260200190815260200160002060006101000a81548173ffffffffffffffffffffffffffffffffffffffff021916908373ffffffffffffffffffffffffffffffffffffffff160217905550808273ffffffffffffffffffffffffffffffffffffffff16600073ffffffffffffffffffffffffffffffffffffffff167fddf252ad1be2c89b69c2b068fc378daa952ba7f163c4a11628f55a4df523b3ef60405160405180910390a4611b0760008383611fcd565b5050565b80600a600084815260200190815260200160002060030160006101000a81548173ffffffffffffffffffffffffffffffffffffffff021916908373ffffffffffffffffffffffffffffffffffffffff1602179055505050565b611b6d82611f5c565b611bac576040517f08c379a0000000000000000000000000000000000000000000000000000000008152600401611ba390613586565b60405180910390fd5b80600660008481526020019081526020016000209081611bcc91906135a6565b505050565b611bd961143a565b73ffffffffffffffffffffffffffffffffffffffff16611bf7610ec3565b73ffffffffffffffffffffffffffffffffffffffff1614611c4d576040517f08c379a0000000000000000000000000000000000000000000000000000000008152600401611c44906136c4565b60405180910390fd5b565b6000600760009054906101000a900473ffffffffffffffffffffffffffffffffffffffff16905081600760006101000a81548173ffffffffffffffffffffffffffffffffffffffff021916908373ffffffffffffffffffffffffffffffffffffffff1602179055508173ffffffffffffffffffffffffffffffffffffffff168173ffffffffffffffffffffffffffffffffffffffff167f8be0079c531659141344cd1fd0a4f28419497f9722a3daafe3b4186f6b6457e060405160405180910390a35050565b8173ffffffffffffffffffffffffffffffffffffffff168373ffffffffffffffffffffffffffffffffffffffff1603611d83576040517f08c379a0000000000000000000000000000000000000000000000000000000008152600401611d7a90613730565b60405180910390fd5b80600560008573ffffffffffffffffffffffffffffffffffffffff1673ffffffffffffffffffffffffffffffffffffffff16815260200190815260200160002060008473ffffffffffffffffffffffffffffffffffffffff1673ffffffffffffffffffffffffffffffffffffffff16815260200190815260200160002060006101000a81548160ff0219169083151502179055508173ffffffffffffffffffffffffffffffffffffffff168373ffffffffffffffffffffffffffffffffffffffff167f17307eab39ab6107e8899845ad3d59bd9653f200f220920489ca2b5937696c3183604051611e749190612390565b60405180910390a3505050565b611e8c848484611590565b611e9884848484611fd2565b611ed7576040517f08c379a0000000000000000000000000000000000000000000000000000000008152600401611ece906137c2565b60405180910390fd5b50505050565b606060405180602001604052806000815250905090565b6060611eff826113ef565b6000611f09611edd565b90506000815111611f295760405180602001604052806000815250611f54565b80611f3384612159565b604051602001611f4492919061307d565b6040516020818303038152906040525b915050919050565b60008073ffffffffffffffffffffffffffffffffffffffff166002600084815260200190815260200160002060009054906101000a900473ffffffffffffffffffffffffffffffffffffffff1673ffffffffffffffffffffffffffffffffffffffff1614159050919050565b505050565b505050565b6000611ff38473ffffffffffffffffffffffffffffffffffffffff166122b9565b1561214c578373ffffffffffffffffffffffffffffffffffffffff1663150b7a0261201c61143a565b8786866040518563ffffffff1660e01b815260040161203e9493929190613837565b6020604051808303816000875af192505050801561207a57506040513d601f19601f820116820180604052508101906120779190613898565b60015b6120fc573d80600081146120aa576040519150601f19603f3d011682016040523d82523d6000602084013e6120af565b606091505b5060008151036120f4576040517f08c379a00000000000000000000000000000000000000000000000000000000081526004016120eb906137c2565b60405180910390fd5b805181602001fd5b63150b7a0260e01b7bffffffffffffffffffffffffffffffffffffffffffffffffffffffff1916817bffffffffffffffffffffffffffffffffffffffffffffffffffffffff191614915050612151565b600190505b949350505050565b6060600082036121a0576040518060400160405280600181526020017f300000000000000000000000000000000000000000000000000000000000000081525090506122b4565b600082905060005b600082146121d25780806121bb906133f4565b915050600a826121cb91906138c5565b91506121a8565b60008167ffffffffffffffff8111156121ee576121ed612722565b5b6040519080825280601f01601f1916602001820160405280156122205781602001600182028036833780820191505090505b5090505b600085146122ad576001826122399190613286565b9150600a8561224891906133c3565b603061225491906132ba565b60f81b81838151811061226a57612269612b26565b5b60200101907effffffffffffffffffffffffffffffffffffffffffffffffffffffffffffff1916908160001a905350600a856122a691906138c5565b9450612224565b8093505050505b919050565b6000808273ffffffffffffffffffffffffffffffffffffffff163b119050919050565b6000604051905090565b600080fd5b600080fd5b60007fffffffff0000000000000000000000000000000000000000000000000000000082169050919050565b612325816122f0565b811461233057600080fd5b50565b6000813590506123428161231c565b92915050565b60006020828403121561235e5761235d6122e6565b5b600061236c84828501612333565b91505092915050565b60008115159050919050565b61238a81612375565b82525050565b60006020820190506123a56000830184612381565b92915050565b600081519050919050565b600082825260208201905092915050565b60005b838110156123e55780820151818401526020810190506123ca565b60008484015250505050565b6000601f19601f8301169050919050565b600061240d826123ab565b61241781856123b6565b93506124278185602086016123c7565b612430816123f1565b840191505092915050565b600060208201905081810360008301526124558184612402565b905092915050565b6000819050919050565b6124708161245d565b811461247b57600080fd5b50565b60008135905061248d81612467565b92915050565b6000602082840312156124a9576124a86122e6565b5b60006124b78482850161247e565b91505092915050565b600073ffffffffffffffffffffffffffffffffffffffff82169050919050565b60006124eb826124c0565b9050919050565b6124fb816124e0565b82525050565b600060208201905061251660008301846124f2565b92915050565b612525816124e0565b811461253057600080fd5b50565b6000813590506125428161251c565b92915050565b6000806040838503121561255f5761255e6122e6565b5b600061256d85828601612533565b925050602061257e8582860161247e565b9150509250929050565b6000806000606084860312156125a1576125a06122e6565b5b60006125af86828701612533565b93505060206125c086828701612533565b92505060406125d18682870161247e565b9150509250925092565b600063ffffffff82169050919050565b6125f4816125db565b82525050565b600060208201905061260f60008301846125eb565b92915050565b6000806040838503121561262c5761262b6122e6565b5b600061263a8582860161247e565b925050602061264b85828601612533565b9150509250929050565b61265e8161245d565b82525050565b60006020820190506126796000830184612655565b92915050565b600060208284031215612695576126946122e6565b5b60006126a384828501612533565b91505092915050565b6126b581612375565b81146126c057600080fd5b50565b6000813590506126d2816126ac565b92915050565b600080604083850312156126ef576126ee6122e6565b5b60006126fd85828601612533565b925050602061270e858286016126c3565b9150509250929050565b600080fd5b600080fd5b7f4e487b7100000000000000000000000000000000000000000000000000000000600052604160045260246000fd5b61275a826123f1565b810181811067ffffffffffffffff8211171561277957612778612722565b5b80604052505050565b600061278c6122dc565b90506127988282612751565b919050565b600067ffffffffffffffff8211156127b8576127b7612722565b5b6127c1826123f1565b9050602081019050919050565b82818337600083830152505050565b60006127f06127eb8461279d565b612782565b90508281526020810184848401111561280c5761280b61271d565b5b6128178482856127ce565b509392505050565b600082601f83011261283457612833612718565b5b81356128448482602086016127dd565b91505092915050565b60008060008060808587031215612867576128666122e6565b5b600061287587828801612533565b945050602061288687828801612533565b93505060406128978782880161247e565b925050606085013567ffffffffffffffff8111156128b8576128b76122eb565b5b6128c48782880161281f565b91505092959194509250565b600080604083850312156128e7576128e66122e6565b5b60006128f585828601612533565b925050602061290685828601612533565b9150509250929050565b7f4e487b7100000000000000000000000000000000000000000000000000000000600052602260045260246000fd5b6000600282049050600182168061295757607f821691505b60208210810361296a57612969612910565b5b50919050565b7f4552433732313a20617070726f76616c20746f2063757272656e74206f776e6560008201527f7200000000000000000000000000000000000000000000000000000000000000602082015250565b60006129cc6021836123b6565b91506129d782612970565b604082019050919050565b600060208201905081810360008301526129fb816129bf565b9050919050565b7f4552433732313a20617070726f76652063616c6c6572206973206e6f7420746f60008201527f6b656e206f776e6572206e6f7220617070726f76656420666f7220616c6c0000602082015250565b6000612a5e603e836123b6565b9150612a6982612a02565b604082019050919050565b60006020820190508181036000830152612a8d81612a51565b9050919050565b7f4552433732313a2063616c6c6572206973206e6f7420746f6b656e206f776e6560008201527f72206e6f7220617070726f766564000000000000000000000000000000000000602082015250565b6000612af0602e836123b6565b9150612afb82612a94565b604082019050919050565b60006020820190508181036000830152612b1f81612ae3565b9050919050565b7f4e487b7100000000000000000000000000000000000000000000000000000000600052603260045260246000fd5b7f414c4c20414e494d414c53205745524520495353554544000000000000000000600082015250565b6000612b8b6017836123b6565b9150612b9682612b55565b602082019050919050565b60006020820190508181036000830152612bba81612b7e565b9050919050565b7f414c524541445920495353554544204e46540000000000000000000000000000600082015250565b6000612bf76012836123b6565b9150612c0282612bc1565b602082019050919050565b60006020820190508181036000830152612c2681612bea565b9050919050565b7f4e4654204d494e54455220414c52454144592045584953545300000000000000600082015250565b6000612c636019836123b6565b9150612c6e82612c2d565b602082019050919050565b60006020820190508181036000830152612c9281612c56565b9050919050565b600081549050612ca88161293f565b9050919050565b60008190508160005260206000209050919050565b60006020601f8301049050919050565b600082821b905092915050565b600060088302612d117fffffffffffffffffffffffffffffffffffffffffffffffffffffffffffffffff82612cd4565b612d1b8683612cd4565b95508019841693508086168417925050509392505050565b6000819050919050565b6000612d58612d53612d4e8461245d565b612d33565b61245d565b9050919050565b6000819050919050565b612d7283612d3d565b612d86612d7e82612d5f565b848454612ce1565b825550505050565b600090565b612d9b612d8e565b612da6818484612d69565b505050565b5b81811015612dca57612dbf600082612d93565b600181019050612dac565b5050565b601f821115612e0f57612de081612caf565b612de984612cc4565b81016020851015612df8578190505b612e0c612e0485612cc4565b830182612dab565b50505b505050565b600082821c905092915050565b6000612e3260001984600802612e14565b1980831691505092915050565b6000612e4b8383612e21565b9150826002028217905092915050565b818103612e69575050612f41565b612e7282612c99565b67ffffffffffffffff811115612e8b57612e8a612722565b5b612e95825461293f565b612ea0828285612dce565b6000601f831160018114612ecf5760008415612ebd578287015490505b612ec78582612e3f565b865550612f3a565b601f198416612edd87612caf565b9650612ee886612caf565b60005b82811015612f1057848901548255600182019150600185019450602081019050612eeb565b86831015612f2d5784890154612f29601f891682612e21565b8355505b6001600288020188555050505b5050505050505b565b7f4552433732313a20696e76616c696420746f6b656e2049440000000000000000600082015250565b6000612f796018836123b6565b9150612f8482612f43565b602082019050919050565b60006020820190508181036000830152612fa881612f6c565b9050919050565b7f4552433732313a2061646472657373207a65726f206973206e6f74206120766160008201527f6c6964206f776e65720000000000000000000000000000000000000000000000602082015250565b600061300b6029836123b6565b915061301682612faf565b604082019050919050565b6000602082019050818103600083015261303a81612ffe565b9050919050565b600081905092915050565b6000613057826123ab565b6130618185613041565b93506130718185602086016123c7565b80840191505092915050565b6000613089828561304c565b9150613095828461304c565b91508190509392505050565b7f4f776e61626c653a206e6577206f776e657220697320746865207a65726f206160008201527f6464726573730000000000000000000000000000000000000000000000000000602082015250565b60006130fd6026836123b6565b9150613108826130a1565b604082019050919050565b6000602082019050818103600083015261312c816130f0565b9050919050565b7f4552433732313a207472616e736665722066726f6d20696e636f72726563742060008201527f6f776e6572000000000000000000000000000000000000000000000000000000602082015250565b600061318f6025836123b6565b915061319a82613133565b604082019050919050565b600060208201905081810360008301526131be81613182565b9050919050565b7f4552433732313a207472616e7366657220746f20746865207a65726f2061646460008201527f7265737300000000000000000000000000000000000000000000000000000000602082015250565b60006132216024836123b6565b915061322c826131c5565b604082019050919050565b6000602082019050818103600083015261325081613214565b9050919050565b7f4e487b7100000000000000000000000000000000000000000000000000000000600052601160045260246000fd5b60006132918261245d565b915061329c8361245d565b92508282039050818111156132b4576132b3613257565b5b92915050565b60006132c58261245d565b91506132d08361245d565b92508282019050808211156132e8576132e7613257565b5b92915050565b6000819050919050565b6133096133048261245d565b6132ee565b82525050565b60008160601b9050919050565b60006133278261330f565b9050919050565b60006133398261331c565b9050919050565b61335161334c826124e0565b61332e565b82525050565b600061336382866132f8565b6020820191506133738285613340565b60148201915061338382846132f8565b602082019150819050949350505050565b7f4e487b7100000000000000000000000000000000000000000000000000000000600052601260045260246000fd5b60006133ce8261245d565b91506133d98361245d565b9250826133e9576133e8613394565b5b828206905092915050565b60006133ff8261245d565b91507fffffffffffffffffffffffffffffffffffffffffffffffffffffffffffffffff820361343157613430613257565b5b600182019050919050565b7f4552433732313a206d696e7420746f20746865207a65726f2061646472657373600082015250565b60006134726020836123b6565b915061347d8261343c565b602082019050919050565b600060208201905081810360008301526134a181613465565b9050919050565b7f4552433732313a20746f6b656e20616c7265616479206d696e74656400000000600082015250565b60006134de601c836123b6565b91506134e9826134a8565b602082019050919050565b6000602082019050818103600083015261350d816134d1565b9050919050565b7f45524337323155524953746f726167653a2055524920736574206f66206e6f6e60008201527f6578697374656e7420746f6b656e000000000000000000000000000000000000602082015250565b6000613570602e836123b6565b915061357b82613514565b604082019050919050565b6000602082019050818103600083015261359f81613563565b9050919050565b6135af826123ab565b67ffffffffffffffff8111156135c8576135c7612722565b5b6135d2825461293f565b6135dd828285612dce565b600060209050601f83116001811461361057600084156135fe578287015190505b6136088582612e3f565b865550613670565b601f19841661361e86612caf565b60005b8281101561364657848901518255600182019150602085019450602081019050613621565b86831015613663578489015161365f601f891682612e21565b8355505b6001600288020188555050505b505050505050565b7f4f776e61626c653a2063616c6c6572206973206e6f7420746865206f776e6572600082015250565b60006136ae6020836123b6565b91506136b982613678565b602082019050919050565b600060208201905081810360008301526136dd816136a1565b9050919050565b7f4552433732313a20617070726f766520746f2063616c6c657200000000000000600082015250565b600061371a6019836123b6565b9150613725826136e4565b602082019050919050565b600060208201905081810360008301526137498161370d565b9050919050565b7f4552433732313a207472616e7366657220746f206e6f6e20455243373231526560008201527f63656976657220696d706c656d656e7465720000000000000000000000000000602082015250565b60006137ac6032836123b6565b91506137b782613750565b604082019050919050565b600060208201905081810360008301526137db8161379f565b9050919050565b600081519050919050565b600082825260208201905092915050565b6000613809826137e2565b61381381856137ed565b93506138238185602086016123c7565b61382c816123f1565b840191505092915050565b600060808201905061384c60008301876124f2565b61385960208301866124f2565b6138666040830185612655565b818103606083015261387881846137fe565b905095945050505050565b6000815190506138928161231c565b92915050565b6000602082840312156138ae576138ad6122e6565b5b60006138bc84828501613883565b91505092915050565b60006138d08261245d565b91506138db8361245d565b9250826138eb576138ea613394565b5b82820490509291505056fea26469706673582212206fe5057bcae23e30d8d1c6dcd1a040ab4fece33fa956fa955057a7580d1f8dcf64736f6c63430008100033",
  "immutableReferences": {},
  "source": "// SPDX-License-Identifier: MIT\r\npragma solidity ^0.8.4;\r\n\r\nimport \"@openzeppelin/contracts/token/ERC721/ERC721.sol\";\r\nimport \"@openzeppelin/contracts/utils/Counters.sol\";\r\nimport \"@openzeppelin/contracts/access/Ownable.sol\";\r\nimport \"@openzeppelin/contracts/token/ERC721/extensions/ERC721URIStorage.sol\";\r\n\r\n/*\r\n    ?\r\n1.   \r\n2.      .\r\n3.   REST      ??     id       \r\n4,      .     .\r\n5.  struct     \r\n*/\r\ncontract AnimalNft is ERC721URIStorage, Ownable {\r\n    \r\n    //   \r\n    struct AnimalInfo {\r\n        uint32 species; //1~15: string      \r\n        uint32 rank; //EW - CR - EN - VU - LC\r\n        string tokenUri; //IPFS  \r\n        uint256 number; //     \r\n\r\n        //    \r\n        address minter;\r\n        address owner;\r\n    }\r\n    \r\n    //using   \r\n    using Counters for Counters.Counter;\r\n\r\n    //    :   1 \r\n    Counters.Counter private _tokenIds;\r\n\r\n    //const   \r\n    uint256 constant LIMITED_NUMBER = 22000;\r\n\r\n    //uint256 test;\r\n    //   :  22000\r\n    AnimalInfo[] LIMITED_ANIMALS; // 2    .\r\n    mapping(uint256 => AnimalInfo) MINTED_ANIMALS; //    => ArrayList     \r\n\r\n    //ERC721URIStrage :  ID  URI \r\n    //mapping(uint256 => string) private _tokenURIs;\r\n\r\n    //   /\r\n    //mapping(uint256 => address) private _tokenOwners;\r\n\r\n    //  : 22000      =>   transactionHistories[tokenId]\r\n    //mapping(uint256 => address) private _minters; => AnimalInfo Struct    \r\n\r\n    //AnimalInfo   (  )\r\n    mapping(uint256 => AnimalInfo) private _animalInfos;\r\n\r\n\r\n    // \r\n    //: ,  ->  {: AMT}\r\n    constructor(\r\n        uint32[] memory species,\r\n        uint32[] memory rank,\r\n        string[] memory tokenUri,\r\n        uint256[] memory number) ERC721(\"AnimalNFT\", \"AMT\") {\r\n        \r\n        //22000    \r\n        for(uint256 i = 0; i< species.length; i++){\r\n            LIMITED_ANIMALS.push(\r\n                AnimalInfo(\r\n                    species[i],\r\n                    rank[i],\r\n                    tokenUri[i],\r\n                    number[i],\r\n                    address(0),\r\n                    address(0)\r\n                )\r\n            );\r\n        }\r\n    }\r\n\r\n    function _createAnimalNft (\r\n        //address recipient\r\n        //string memory tokenURI\r\n    ) public returns (uint256)\r\n    {\r\n        // \r\n        require(_tokenIds.current() < 22000, \"ALL ANIMALS WERE ISSUED\");\r\n        require(LIMITED_ANIMALS[_tokenIds.current()].minter == address(0), \"ALREADY ISSUED NFT\");\r\n        \r\n        //   \r\n        uint256 random = _randomAnimalNft();\r\n\r\n        // :    \r\n        require(LIMITED_ANIMALS[random].minter == address(0), \"NFT MINTER ALREADY EXISTS\");\r\n\r\n        _tokenIds.increment(); //   NFT  1  INDEX \r\n        \r\n        //AnimalInfo newAnimalInfo = new AnimalInfo(LIMITED_ANIMAL[random].species, LIMITED_ANIMAL[random])\r\n        \r\n        uint256 newItemId = _tokenIds.current();\r\n        MINTED_ANIMALS[newItemId] = LIMITED_ANIMALS[random];\r\n\r\n        //ERC721  owner =>  contract   ->     \r\n        _mint(msg.sender, newItemId); \r\n        _setMinter(newItemId, msg.sender);\r\n        _setTokenURI(newItemId, MINTED_ANIMALS[newItemId].tokenUri);\r\n\r\n        return newItemId;\r\n    }\r\n\r\n    \r\n    function _randomAnimalNft(  \r\n    ) private view returns(uint){\r\n        //1\r\n        //Solidity deterministic -> random  \r\n        // keccak256  abi     \r\n        // Solidity  ArrayList add  delete  \r\n        //uint256 random = uint(keccak256(abi.encodePacked(block.timestamp, msg.sender, _tokenIds.current()))) % (MINTED_ANIMALS.length);\r\n        //MINTED_ANIMALS.push(LIMITED_ANIMALS[random]);\r\n        //delete LIMITED_ANIMALS\r\n        \r\n        //2\r\n        //   \r\n        //       i   tmp        j   \r\n        //uint256[] memory tmp = new uint256[](LIMITED_NUMBER - _tokenIds.current());\r\n        //for(uint256 i=0; i<LIMITED_ANIMALS.length; i++){\r\n        //    if(LIMITED_ANIMALS[i].minter == address(0)){\r\n        //        tmp.push(i); \r\n        //    }\r\n        //}\r\n        \r\n        //3 = 1 + 2 = view   gas      gas .\r\n        uint256 random = uint(keccak256(abi.encodePacked(block.timestamp, msg.sender,  _tokenIds.current()))) %  LIMITED_ANIMALS.length;\r\n        // random         .\r\n        for(uint256 i = random ; i < random +  LIMITED_ANIMALS.length; i++){\r\n            //   \r\n            if(LIMITED_ANIMALS[ i % LIMITED_ANIMALS.length].minter == address(0)){ \r\n                return i;\r\n            }\r\n        }\r\n\r\n        return random;\r\n        //delete LIMITED_ANIMALS\r\n        \r\n    }\r\n\r\n    function _getSpecies(\r\n        uint256 tokenId\r\n    ) public view returns(uint32){\r\n        return LIMITED_ANIMALS[tokenId].species;\r\n    } \r\n    function _getRank(\r\n        uint256 tokenId\r\n    ) public view returns(uint32){\r\n        return LIMITED_ANIMALS[tokenId].rank;\r\n    }\r\n\r\n    function _getTokenUri(\r\n        uint256 tokenId\r\n    ) public view returns(string memory){\r\n        return LIMITED_ANIMALS[tokenId].tokenUri;\r\n    }\r\n\r\n    function _getNumber(\r\n        uint256 tokenId\r\n    ) public view returns(uint256){\r\n        return LIMITED_ANIMALS[tokenId].number;\r\n    }\r\n\r\n    //Animal Info  mint \r\n    function _setMinter (\r\n        uint256 tokenId,\r\n        address minter \r\n    ) private {\r\n        MINTED_ANIMALS[tokenId].minter = minter;\r\n    }\r\n\r\n    function _getMinter (\r\n        uint256 tokenId\r\n    ) public view returns(address){\r\n        //require(_tokenIds.current() < tokenId, \"tokenId is a cause of OverFlow\");\r\n        return MINTED_ANIMALS[tokenId].minter;\r\n    }\r\n\r\n    function _setOwner (\r\n        uint256 tokenId,\r\n        address newOwner\r\n    ) public {\r\n        MINTED_ANIMALS[tokenId].owner = newOwner;\r\n    }\r\n\r\n    function _getOwner (\r\n        uint256 tokenId\r\n    ) public view returns(address){\r\n        //require(_tokenIds.current() < tokenId, \"tokenId is a cause of OverFlow\");\r\n        return MINTED_ANIMALS[tokenId].owner;\r\n    }\r\n}",
  "sourcePath": "C:\\Users\\multicampus\\Documents\\Dev\\Git\\S07P22D103\\smart-contract\\src\\contracts\\AnimalNft.sol",
  "compiler": {
    "name": "solc",
    "version": "0.8.16+commit.07a7930e.Emscripten.clang"
  },
  "schemaVersion": "3.4.9",
  "updatedAt": "2022-09-07T02:22:10.670Z",
  "networkType": "ethereum",
  "devdoc": {
    "kind": "dev",
    "methods": {
      "approve(address,uint256)": {
        "details": "See {IERC721-approve}."
      },
      "balanceOf(address)": {
        "details": "See {IERC721-balanceOf}."
      },
      "getApproved(uint256)": {
        "details": "See {IERC721-getApproved}."
      },
      "isApprovedForAll(address,address)": {
        "details": "See {IERC721-isApprovedForAll}."
      },
      "name()": {
        "details": "See {IERC721Metadata-name}."
      },
      "owner()": {
        "details": "Returns the address of the current owner."
      },
      "ownerOf(uint256)": {
        "details": "See {IERC721-ownerOf}."
      },
      "renounceOwnership()": {
        "details": "Leaves the contract without owner. It will not be possible to call `onlyOwner` functions anymore. Can only be called by the current owner. NOTE: Renouncing ownership will leave the contract without an owner, thereby removing any functionality that is only available to the owner."
      },
      "safeTransferFrom(address,address,uint256)": {
        "details": "See {IERC721-safeTransferFrom}."
      },
      "safeTransferFrom(address,address,uint256,bytes)": {
        "details": "See {IERC721-safeTransferFrom}."
      },
      "setApprovalForAll(address,bool)": {
        "details": "See {IERC721-setApprovalForAll}."
      },
      "supportsInterface(bytes4)": {
        "details": "See {IERC165-supportsInterface}."
      },
      "symbol()": {
        "details": "See {IERC721Metadata-symbol}."
      },
      "tokenURI(uint256)": {
        "details": "See {IERC721Metadata-tokenURI}."
      },
      "transferFrom(address,address,uint256)": {
        "details": "See {IERC721-transferFrom}."
      },
      "transferOwnership(address)": {
        "details": "Transfers ownership of the contract to a new account (`newOwner`). Can only be called by the current owner."
      }
    },
    "version": 1
  },
  "userdoc": {
    "kind": "user",
    "methods": {},
    "version": 1
  }
}