{
  "contractName": "MascortNft",
  "abi": [
    {
      "inputs": [
        {
          "internalType": "string",
          "name": "tokenUri",
          "type": "string"
        },
        {
          "internalType": "string",
          "name": "name",
          "type": "string"
        },
        {
          "internalType": "string",
          "name": "class",
          "type": "string"
        }
      ],
      "stateMutability": "nonpayable",
      "type": "constructor"
    },
    {
      "anonymous": false,
      "inputs": [
        {
          "indexed": true,
          "internalType": "address",
          "name": "owner",
          "type": "address"
        },
        {
          "indexed": true,
          "internalType": "address",
          "name": "approved",
          "type": "address"
        },
        {
          "indexed": true,
          "internalType": "uint256",
          "name": "tokenId",
          "type": "uint256"
        }
      ],
      "name": "Approval",
      "type": "event"
    },
    {
      "anonymous": false,
      "inputs": [
        {
          "indexed": true,
          "internalType": "address",
          "name": "owner",
          "type": "address"
        },
        {
          "indexed": true,
          "internalType": "address",
          "name": "operator",
          "type": "address"
        },
        {
          "indexed": false,
          "internalType": "bool",
          "name": "approved",
          "type": "bool"
        }
      ],
      "name": "ApprovalForAll",
      "type": "event"
    },
    {
      "anonymous": false,
      "inputs": [
        {
          "indexed": true,
          "internalType": "address",
          "name": "previousOwner",
          "type": "address"
        },
        {
          "indexed": true,
          "internalType": "address",
          "name": "newOwner",
          "type": "address"
        }
      ],
      "name": "OwnershipTransferred",
      "type": "event"
    },
    {
      "anonymous": false,
      "inputs": [
        {
          "indexed": true,
          "internalType": "address",
          "name": "from",
          "type": "address"
        },
        {
          "indexed": true,
          "internalType": "address",
          "name": "to",
          "type": "address"
        },
        {
          "indexed": true,
          "internalType": "uint256",
          "name": "tokenId",
          "type": "uint256"
        }
      ],
      "name": "Transfer",
      "type": "event"
    },
    {
      "inputs": [
        {
          "internalType": "address",
          "name": "to",
          "type": "address"
        },
        {
          "internalType": "uint256",
          "name": "tokenId",
          "type": "uint256"
        }
      ],
      "name": "approve",
      "outputs": [],
      "stateMutability": "nonpayable",
      "type": "function"
    },
    {
      "inputs": [
        {
          "internalType": "address",
          "name": "owner",
          "type": "address"
        }
      ],
      "name": "balanceOf",
      "outputs": [
        {
          "internalType": "uint256",
          "name": "",
          "type": "uint256"
        }
      ],
      "stateMutability": "view",
      "type": "function",
      "constant": true
    },
    {
      "inputs": [
        {
          "internalType": "uint256",
          "name": "tokenId",
          "type": "uint256"
        }
      ],
      "name": "getApproved",
      "outputs": [
        {
          "internalType": "address",
          "name": "",
          "type": "address"
        }
      ],
      "stateMutability": "view",
      "type": "function",
      "constant": true
    },
    {
      "inputs": [
        {
          "internalType": "address",
          "name": "owner",
          "type": "address"
        },
        {
          "internalType": "address",
          "name": "operator",
          "type": "address"
        }
      ],
      "name": "isApprovedForAll",
      "outputs": [
        {
          "internalType": "bool",
          "name": "",
          "type": "bool"
        }
      ],
      "stateMutability": "view",
      "type": "function",
      "constant": true
    },
    {
      "inputs": [],
      "name": "name",
      "outputs": [
        {
          "internalType": "string",
          "name": "",
          "type": "string"
        }
      ],
      "stateMutability": "view",
      "type": "function",
      "constant": true
    },
    {
      "inputs": [],
      "name": "owner",
      "outputs": [
        {
          "internalType": "address",
          "name": "",
          "type": "address"
        }
      ],
      "stateMutability": "view",
      "type": "function",
      "constant": true
    },
    {
      "inputs": [
        {
          "internalType": "uint256",
          "name": "tokenId",
          "type": "uint256"
        }
      ],
      "name": "ownerOf",
      "outputs": [
        {
          "internalType": "address",
          "name": "",
          "type": "address"
        }
      ],
      "stateMutability": "view",
      "type": "function",
      "constant": true
    },
    {
      "inputs": [],
      "name": "renounceOwnership",
      "outputs": [],
      "stateMutability": "nonpayable",
      "type": "function"
    },
    {
      "inputs": [
        {
          "internalType": "address",
          "name": "from",
          "type": "address"
        },
        {
          "internalType": "address",
          "name": "to",
          "type": "address"
        },
        {
          "internalType": "uint256",
          "name": "tokenId",
          "type": "uint256"
        }
      ],
      "name": "safeTransferFrom",
      "outputs": [],
      "stateMutability": "nonpayable",
      "type": "function"
    },
    {
      "inputs": [
        {
          "internalType": "address",
          "name": "from",
          "type": "address"
        },
        {
          "internalType": "address",
          "name": "to",
          "type": "address"
        },
        {
          "internalType": "uint256",
          "name": "tokenId",
          "type": "uint256"
        },
        {
          "internalType": "bytes",
          "name": "data",
          "type": "bytes"
        }
      ],
      "name": "safeTransferFrom",
      "outputs": [],
      "stateMutability": "nonpayable",
      "type": "function"
    },
    {
      "inputs": [
        {
          "internalType": "address",
          "name": "operator",
          "type": "address"
        },
        {
          "internalType": "bool",
          "name": "approved",
          "type": "bool"
        }
      ],
      "name": "setApprovalForAll",
      "outputs": [],
      "stateMutability": "nonpayable",
      "type": "function"
    },
    {
      "inputs": [
        {
          "internalType": "bytes4",
          "name": "interfaceId",
          "type": "bytes4"
        }
      ],
      "name": "supportsInterface",
      "outputs": [
        {
          "internalType": "bool",
          "name": "",
          "type": "bool"
        }
      ],
      "stateMutability": "view",
      "type": "function",
      "constant": true
    },
    {
      "inputs": [],
      "name": "symbol",
      "outputs": [
        {
          "internalType": "string",
          "name": "",
          "type": "string"
        }
      ],
      "stateMutability": "view",
      "type": "function",
      "constant": true
    },
    {
      "inputs": [
        {
          "internalType": "uint256",
          "name": "index",
          "type": "uint256"
        }
      ],
      "name": "tokenByIndex",
      "outputs": [
        {
          "internalType": "uint256",
          "name": "",
          "type": "uint256"
        }
      ],
      "stateMutability": "view",
      "type": "function",
      "constant": true
    },
    {
      "inputs": [
        {
          "internalType": "address",
          "name": "owner",
          "type": "address"
        },
        {
          "internalType": "uint256",
          "name": "index",
          "type": "uint256"
        }
      ],
      "name": "tokenOfOwnerByIndex",
      "outputs": [
        {
          "internalType": "uint256",
          "name": "",
          "type": "uint256"
        }
      ],
      "stateMutability": "view",
      "type": "function",
      "constant": true
    },
    {
      "inputs": [
        {
          "internalType": "uint256",
          "name": "tokenId",
          "type": "uint256"
        }
      ],
      "name": "tokenURI",
      "outputs": [
        {
          "internalType": "string",
          "name": "",
          "type": "string"
        }
      ],
      "stateMutability": "view",
      "type": "function",
      "constant": true
    },
    {
      "inputs": [],
      "name": "totalSupply",
      "outputs": [
        {
          "internalType": "uint256",
          "name": "",
          "type": "uint256"
        }
      ],
      "stateMutability": "view",
      "type": "function",
      "constant": true
    },
    {
      "inputs": [
        {
          "internalType": "address",
          "name": "from",
          "type": "address"
        },
        {
          "internalType": "address",
          "name": "to",
          "type": "address"
        },
        {
          "internalType": "uint256",
          "name": "tokenId",
          "type": "uint256"
        }
      ],
      "name": "transferFrom",
      "outputs": [],
      "stateMutability": "nonpayable",
      "type": "function"
    },
    {
      "inputs": [
        {
          "internalType": "address",
          "name": "newOwner",
          "type": "address"
        }
      ],
      "name": "transferOwnership",
      "outputs": [],
      "stateMutability": "nonpayable",
      "type": "function"
    },
    {
      "inputs": [],
      "name": "_createMascortNft",
      "outputs": [
        {
          "internalType": "uint256",
          "name": "",
          "type": "uint256"
        }
      ],
      "stateMutability": "nonpayable",
      "type": "function"
    },
    {
      "inputs": [],
      "name": "_getName",
      "outputs": [
        {
          "internalType": "string",
          "name": "",
          "type": "string"
        }
      ],
      "stateMutability": "view",
      "type": "function",
      "constant": true
    },
    {
      "inputs": [],
      "name": "_getClass",
      "outputs": [
        {
          "internalType": "string",
          "name": "",
          "type": "string"
        }
      ],
      "stateMutability": "view",
      "type": "function",
      "constant": true
    },
    {
      "inputs": [],
      "name": "_getTokenUri",
      "outputs": [
        {
          "internalType": "string",
          "name": "",
          "type": "string"
        }
      ],
      "stateMutability": "view",
      "type": "function",
      "constant": true
    },
    {
      "inputs": [],
      "name": "_getMintersNumber",
      "outputs": [
        {
          "internalType": "uint256",
          "name": "",
          "type": "uint256"
        }
      ],
      "stateMutability": "view",
      "type": "function",
      "constant": true
    },
    {
      "inputs": [
        {
          "internalType": "address",
          "name": "wallet",
          "type": "address"
        }
      ],
      "name": "_isOwner",
      "outputs": [
        {
          "internalType": "bool",
          "name": "",
          "type": "bool"
        }
      ],
      "stateMutability": "view",
      "type": "function",
      "constant": true
    }
  ],
  "bytecode": "0x60806040523480156200001157600080fd5b5060405162003a7438038062003a74833981810160405281019062000037919062000389565b6040518060400160405280600a81526020017f4d6173636f72744e4654000000000000000000000000000000000000000000008152506040518060400160405280600381526020017f4d435400000000000000000000000000000000000000000000000000000000008152508160009081620000b491906200068d565b508060019081620000c691906200068d565b505050620000e9620000dd6200012860201b60201c565b6200013060201b60201c565b82600c9081620000fa91906200068d565b5081600d90816200010c91906200068d565b5080600e90816200011e91906200068d565b5050505062000774565b600033905090565b6000600a60009054906101000a900473ffffffffffffffffffffffffffffffffffffffff16905081600a60006101000a81548173ffffffffffffffffffffffffffffffffffffffff021916908373ffffffffffffffffffffffffffffffffffffffff1602179055508173ffffffffffffffffffffffffffffffffffffffff168173ffffffffffffffffffffffffffffffffffffffff167f8be0079c531659141344cd1fd0a4f28419497f9722a3daafe3b4186f6b6457e060405160405180910390a35050565b6000604051905090565b600080fd5b600080fd5b600080fd5b600080fd5b6000601f19601f8301169050919050565b7f4e487b7100000000000000000000000000000000000000000000000000000000600052604160045260246000fd5b6200025f8262000214565b810181811067ffffffffffffffff8211171562000281576200028062000225565b5b80604052505050565b600062000296620001f6565b9050620002a4828262000254565b919050565b600067ffffffffffffffff821115620002c757620002c662000225565b5b620002d28262000214565b9050602081019050919050565b60005b83811015620002ff578082015181840152602081019050620002e2565b60008484015250505050565b6000620003226200031c84620002a9565b6200028a565b9050828152602081018484840111156200034157620003406200020f565b5b6200034e848285620002df565b509392505050565b600082601f8301126200036e576200036d6200020a565b5b8151620003808482602086016200030b565b91505092915050565b600080600060608486031215620003a557620003a462000200565b5b600084015167ffffffffffffffff811115620003c657620003c562000205565b5b620003d48682870162000356565b935050602084015167ffffffffffffffff811115620003f857620003f762000205565b5b620004068682870162000356565b925050604084015167ffffffffffffffff8111156200042a576200042962000205565b5b620004388682870162000356565b9150509250925092565b600081519050919050565b7f4e487b7100000000000000000000000000000000000000000000000000000000600052602260045260246000fd5b600060028204905060018216806200049557607f821691505b602082108103620004ab57620004aa6200044d565b5b50919050565b60008190508160005260206000209050919050565b60006020601f8301049050919050565b600082821b905092915050565b600060088302620005157fffffffffffffffffffffffffffffffffffffffffffffffffffffffffffffffff82620004d6565b620005218683620004d6565b95508019841693508086168417925050509392505050565b6000819050919050565b6000819050919050565b60006200056e62000568620005628462000539565b62000543565b62000539565b9050919050565b6000819050919050565b6200058a836200054d565b620005a2620005998262000575565b848454620004e3565b825550505050565b600090565b620005b9620005aa565b620005c68184846200057f565b505050565b5b81811015620005ee57620005e2600082620005af565b600181019050620005cc565b5050565b601f8211156200063d576200060781620004b1565b6200061284620004c6565b8101602085101562000622578190505b6200063a6200063185620004c6565b830182620005cb565b50505b505050565b600082821c905092915050565b6000620006626000198460080262000642565b1980831691505092915050565b60006200067d83836200064f565b9150826002028217905092915050565b620006988262000442565b67ffffffffffffffff811115620006b457620006b362000225565b5b620006c082546200047c565b620006cd828285620005f2565b600060209050601f831160018114620007055760008415620006f0578287015190505b620006fc85826200066f565b8655506200076c565b601f1984166200071586620004b1565b60005b828110156200073f5784890151825560018201915060208501945060208101905062000718565b868310156200075f57848901516200075b601f8916826200064f565b8355505b6001600288020188555050505b505050505050565b6132f080620007846000396000f3fe608060405234801561001057600080fd5b50600436106101735760003560e01c8063715018a6116100de578063b88d4fde11610097578063e985e9c511610071578063e985e9c514610460578063ea4d942d14610490578063f27fd791146104ae578063f2fde38b146104cc57610173565b8063b88d4fde146103f6578063bae8d5c314610412578063c87b56dd1461043057610173565b8063715018a6146103465780638da5cb5b14610350578063946899451461036e57806395d89b411461038c578063a22cb465146103aa578063b71fbe4b146103c657610173565b80632f745c59116101305780632f745c591461024c57806334c7bb581461027c57806342842e0e1461029a5780634f6ccce7146102b65780636352211e146102e657806370a082311461031657610173565b806301ffc9a71461017857806306fdde03146101a8578063081812fc146101c6578063095ea7b3146101f657806318160ddd1461021257806323b872dd14610230575b600080fd5b610192600480360381019061018d919061222b565b6104e8565b60405161019f9190612273565b60405180910390f35b6101b0610562565b6040516101bd919061231e565b60405180910390f35b6101e060048036038101906101db9190612376565b6105f4565b6040516101ed91906123e4565b60405180910390f35b610210600480360381019061020b919061242b565b61063a565b005b61021a610751565b604051610227919061247a565b60405180910390f35b61024a60048036038101906102459190612495565b61075e565b005b6102666004803603810190610261919061242b565b6107be565b604051610273919061247a565b60405180910390f35b610284610863565b604051610291919061231e565b60405180910390f35b6102b460048036038101906102af9190612495565b6108f5565b005b6102d060048036038101906102cb9190612376565b610915565b6040516102dd919061247a565b60405180910390f35b61030060048036038101906102fb9190612376565b610986565b60405161030d91906123e4565b60405180910390f35b610330600480360381019061032b91906124e8565b610a37565b60405161033d919061247a565b60405180910390f35b61034e610aee565b005b610358610b02565b60405161036591906123e4565b60405180910390f35b610376610b2c565b604051610383919061231e565b60405180910390f35b610394610bbe565b6040516103a1919061231e565b60405180910390f35b6103c460048036038101906103bf9190612541565b610c50565b005b6103e060048036038101906103db91906124e8565b610c66565b6040516103ed9190612273565b60405180910390f35b610410600480360381019061040b91906126b6565b610cc1565b005b61041a610d23565b604051610427919061231e565b60405180910390f35b61044a60048036038101906104459190612376565b610db5565b604051610457919061231e565b60405180910390f35b61047a60048036038101906104759190612739565b610e1d565b6040516104879190612273565b60405180910390f35b610498610eb1565b6040516104a5919061247a565b60405180910390f35b6104b6610f20565b6040516104c3919061247a565b60405180910390f35b6104e660048036038101906104e191906124e8565b610f31565b005b60007f780e9d63000000000000000000000000000000000000000000000000000000007bffffffffffffffffffffffffffffffffffffffffffffffffffffffff1916827bffffffffffffffffffffffffffffffffffffffffffffffffffffffff1916148061055b575061055a82610fb4565b5b9050919050565b606060008054610571906127a8565b80601f016020809104026020016040519081016040528092919081815260200182805461059d906127a8565b80156105ea5780601f106105bf576101008083540402835291602001916105ea565b820191906000526020600020905b8154815290600101906020018083116105cd57829003601f168201915b5050505050905090565b60006105ff82611096565b6004600083815260200190815260200160002060009054906101000a900473ffffffffffffffffffffffffffffffffffffffff169050919050565b600061064582610986565b90508073ffffffffffffffffffffffffffffffffffffffff168373ffffffffffffffffffffffffffffffffffffffff16036106b5576040517f08c379a00000000000000000000000000000000000000000000000000000000081526004016106ac9061284b565b60405180910390fd5b8073ffffffffffffffffffffffffffffffffffffffff166106d46110e1565b73ffffffffffffffffffffffffffffffffffffffff1614806107035750610702816106fd6110e1565b610e1d565b5b610742576040517f08c379a0000000000000000000000000000000000000000000000000000000008152600401610739906128dd565b60405180910390fd5b61074c83836110e9565b505050565b6000600880549050905090565b61076f6107696110e1565b826111a2565b6107ae576040517f08c379a00000000000000000000000000000000000000000000000000000000081526004016107a59061296f565b60405180910390fd5b6107b9838383611237565b505050565b60006107c983610a37565b821061080a576040517f08c379a000000000000000000000000000000000000000000000000000000000815260040161080190612a01565b60405180910390fd5b600660008473ffffffffffffffffffffffffffffffffffffffff1673ffffffffffffffffffffffffffffffffffffffff168152602001908152602001600020600083815260200190815260200160002054905092915050565b6060600e8054610872906127a8565b80601f016020809104026020016040519081016040528092919081815260200182805461089e906127a8565b80156108eb5780601f106108c0576101008083540402835291602001916108eb565b820191906000526020600020905b8154815290600101906020018083116108ce57829003601f168201915b5050505050905090565b61091083838360405180602001604052806000815250610cc1565b505050565b600061091f610751565b8210610960576040517f08c379a000000000000000000000000000000000000000000000000000000000815260040161095790612a93565b60405180910390fd5b6008828154811061097457610973612ab3565b5b90600052602060002001549050919050565b6000806002600084815260200190815260200160002060009054906101000a900473ffffffffffffffffffffffffffffffffffffffff169050600073ffffffffffffffffffffffffffffffffffffffff168173ffffffffffffffffffffffffffffffffffffffff1603610a2e576040517f08c379a0000000000000000000000000000000000000000000000000000000008152600401610a2590612b2e565b60405180910390fd5b80915050919050565b60008073ffffffffffffffffffffffffffffffffffffffff168273ffffffffffffffffffffffffffffffffffffffff1603610aa7576040517f08c379a0000000000000000000000000000000000000000000000000000000008152600401610a9e90612bc0565b60405180910390fd5b600360008373ffffffffffffffffffffffffffffffffffffffff1673ffffffffffffffffffffffffffffffffffffffff168152602001908152602001600020549050919050565b610af661149d565b610b00600061151b565b565b6000600a60009054906101000a900473ffffffffffffffffffffffffffffffffffffffff16905090565b6060600c8054610b3b906127a8565b80601f0160208091040260200160405190810160405280929190818152602001828054610b67906127a8565b8015610bb45780601f10610b8957610100808354040283529160200191610bb4565b820191906000526020600020905b815481529060010190602001808311610b9757829003601f168201915b5050505050905090565b606060018054610bcd906127a8565b80601f0160208091040260200160405190810160405280929190818152602001828054610bf9906127a8565b8015610c465780601f10610c1b57610100808354040283529160200191610c46565b820191906000526020600020905b815481529060010190602001808311610c2957829003601f168201915b5050505050905090565b610c62610c5b6110e1565b83836115e1565b5050565b600080600f60008473ffffffffffffffffffffffffffffffffffffffff1673ffffffffffffffffffffffffffffffffffffffff1681526020019081526020016000205403610cb75760009050610cbc565b600190505b919050565b610cd2610ccc6110e1565b836111a2565b610d11576040517f08c379a0000000000000000000000000000000000000000000000000000000008152600401610d089061296f565b60405180910390fd5b610d1d8484848461174d565b50505050565b6060600d8054610d32906127a8565b80601f0160208091040260200160405190810160405280929190818152602001828054610d5e906127a8565b8015610dab5780601f10610d8057610100808354040283529160200191610dab565b820191906000526020600020905b815481529060010190602001808311610d8e57829003601f168201915b5050505050905090565b6060610dc082611096565b6000610dca6117a9565b90506000815111610dea5760405180602001604052806000815250610e15565b80610df4846117c0565b604051602001610e05929190612c1c565b6040516020818303038152906040525b915050919050565b6000600560008473ffffffffffffffffffffffffffffffffffffffff1673ffffffffffffffffffffffffffffffffffffffff16815260200190815260200160002060008373ffffffffffffffffffffffffffffffffffffffff1673ffffffffffffffffffffffffffffffffffffffff16815260200190815260200160002060009054906101000a900460ff16905092915050565b6000610ebd600b611920565b6000610ec9600b611936565b9050610ed53382611944565b80600f60003373ffffffffffffffffffffffffffffffffffffffff1673ffffffffffffffffffffffffffffffffffffffff168152602001908152602001600020819055508091505090565b6000610f2c600b611936565b905090565b610f3961149d565b600073ffffffffffffffffffffffffffffffffffffffff168173ffffffffffffffffffffffffffffffffffffffff1603610fa8576040517f08c379a0000000000000000000000000000000000000000000000000000000008152600401610f9f90612cb2565b60405180910390fd5b610fb18161151b565b50565b60007f80ac58cd000000000000000000000000000000000000000000000000000000007bffffffffffffffffffffffffffffffffffffffffffffffffffffffff1916827bffffffffffffffffffffffffffffffffffffffffffffffffffffffff1916148061107f57507f5b5e139f000000000000000000000000000000000000000000000000000000007bffffffffffffffffffffffffffffffffffffffffffffffffffffffff1916827bffffffffffffffffffffffffffffffffffffffffffffffffffffffff1916145b8061108f575061108e82611b1d565b5b9050919050565b61109f81611b87565b6110de576040517f08c379a00000000000000000000000000000000000000000000000000000000081526004016110d590612b2e565b60405180910390fd5b50565b600033905090565b816004600083815260200190815260200160002060006101000a81548173ffffffffffffffffffffffffffffffffffffffff021916908373ffffffffffffffffffffffffffffffffffffffff160217905550808273ffffffffffffffffffffffffffffffffffffffff1661115c83610986565b73ffffffffffffffffffffffffffffffffffffffff167f8c5be1e5ebec7d5bd14f71427d1e84f3dd0314c0f7b2291e5b200ac8c7c3b92560405160405180910390a45050565b6000806111ae83610986565b90508073ffffffffffffffffffffffffffffffffffffffff168473ffffffffffffffffffffffffffffffffffffffff1614806111f057506111ef8185610e1d565b5b8061122e57508373ffffffffffffffffffffffffffffffffffffffff16611216846105f4565b73ffffffffffffffffffffffffffffffffffffffff16145b91505092915050565b8273ffffffffffffffffffffffffffffffffffffffff1661125782610986565b73ffffffffffffffffffffffffffffffffffffffff16146112ad576040517f08c379a00000000000000000000000000000000000000000000000000000000081526004016112a490612d44565b60405180910390fd5b600073ffffffffffffffffffffffffffffffffffffffff168273ffffffffffffffffffffffffffffffffffffffff160361131c576040517f08c379a000000000000000000000000000000000000000000000000000000000815260040161131390612dd6565b60405180910390fd5b611327838383611bf3565b6113326000826110e9565b6001600360008573ffffffffffffffffffffffffffffffffffffffff1673ffffffffffffffffffffffffffffffffffffffff16815260200190815260200160002060008282546113829190612e25565b925050819055506001600360008473ffffffffffffffffffffffffffffffffffffffff1673ffffffffffffffffffffffffffffffffffffffff16815260200190815260200160002060008282546113d99190612e59565b92505081905550816002600083815260200190815260200160002060006101000a81548173ffffffffffffffffffffffffffffffffffffffff021916908373ffffffffffffffffffffffffffffffffffffffff160217905550808273ffffffffffffffffffffffffffffffffffffffff168473ffffffffffffffffffffffffffffffffffffffff167fddf252ad1be2c89b69c2b068fc378daa952ba7f163c4a11628f55a4df523b3ef60405160405180910390a4611498838383611d05565b505050565b6114a56110e1565b73ffffffffffffffffffffffffffffffffffffffff166114c3610b02565b73ffffffffffffffffffffffffffffffffffffffff1614611519576040517f08c379a000000000000000000000000000000000000000000000000000000000815260040161151090612ed9565b60405180910390fd5b565b6000600a60009054906101000a900473ffffffffffffffffffffffffffffffffffffffff16905081600a60006101000a81548173ffffffffffffffffffffffffffffffffffffffff021916908373ffffffffffffffffffffffffffffffffffffffff1602179055508173ffffffffffffffffffffffffffffffffffffffff168173ffffffffffffffffffffffffffffffffffffffff167f8be0079c531659141344cd1fd0a4f28419497f9722a3daafe3b4186f6b6457e060405160405180910390a35050565b8173ffffffffffffffffffffffffffffffffffffffff168373ffffffffffffffffffffffffffffffffffffffff160361164f576040517f08c379a000000000000000000000000000000000000000000000000000000000815260040161164690612f45565b60405180910390fd5b80600560008573ffffffffffffffffffffffffffffffffffffffff1673ffffffffffffffffffffffffffffffffffffffff16815260200190815260200160002060008473ffffffffffffffffffffffffffffffffffffffff1673ffffffffffffffffffffffffffffffffffffffff16815260200190815260200160002060006101000a81548160ff0219169083151502179055508173ffffffffffffffffffffffffffffffffffffffff168373ffffffffffffffffffffffffffffffffffffffff167f17307eab39ab6107e8899845ad3d59bd9653f200f220920489ca2b5937696c31836040516117409190612273565b60405180910390a3505050565b611758848484611237565b61176484848484611d0a565b6117a3576040517f08c379a000000000000000000000000000000000000000000000000000000000815260040161179a90612fd7565b60405180910390fd5b50505050565b606060405180602001604052806000815250905090565b606060008203611807576040518060400160405280600181526020017f3000000000000000000000000000000000000000000000000000000000000000815250905061191b565b600082905060005b6000821461183957808061182290612ff7565b915050600a82611832919061306e565b915061180f565b60008167ffffffffffffffff8111156118555761185461258b565b5b6040519080825280601f01601f1916602001820160405280156118875781602001600182028036833780820191505090505b5090505b60008514611914576001826118a09190612e25565b9150600a856118af919061309f565b60306118bb9190612e59565b60f81b8183815181106118d1576118d0612ab3565b5b60200101907effffffffffffffffffffffffffffffffffffffffffffffffffffffffffffff1916908160001a905350600a8561190d919061306e565b945061188b565b8093505050505b919050565b6001816000016000828254019250508190555050565b600081600001549050919050565b600073ffffffffffffffffffffffffffffffffffffffff168273ffffffffffffffffffffffffffffffffffffffff16036119b3576040517f08c379a00000000000000000000000000000000000000000000000000000000081526004016119aa9061311c565b60405180910390fd5b6119bc81611b87565b156119fc576040517f08c379a00000000000000000000000000000000000000000000000000000000081526004016119f390613188565b60405180910390fd5b611a0860008383611bf3565b6001600360008473ffffffffffffffffffffffffffffffffffffffff1673ffffffffffffffffffffffffffffffffffffffff1681526020019081526020016000206000828254611a589190612e59565b92505081905550816002600083815260200190815260200160002060006101000a81548173ffffffffffffffffffffffffffffffffffffffff021916908373ffffffffffffffffffffffffffffffffffffffff160217905550808273ffffffffffffffffffffffffffffffffffffffff16600073ffffffffffffffffffffffffffffffffffffffff167fddf252ad1be2c89b69c2b068fc378daa952ba7f163c4a11628f55a4df523b3ef60405160405180910390a4611b1960008383611d05565b5050565b60007f01ffc9a7000000000000000000000000000000000000000000000000000000007bffffffffffffffffffffffffffffffffffffffffffffffffffffffff1916827bffffffffffffffffffffffffffffffffffffffffffffffffffffffff1916149050919050565b60008073ffffffffffffffffffffffffffffffffffffffff166002600084815260200190815260200160002060009054906101000a900473ffffffffffffffffffffffffffffffffffffffff1673ffffffffffffffffffffffffffffffffffffffff1614159050919050565b611bfe838383611e91565b600073ffffffffffffffffffffffffffffffffffffffff168373ffffffffffffffffffffffffffffffffffffffff1603611c4057611c3b81611e96565b611c7f565b8173ffffffffffffffffffffffffffffffffffffffff168373ffffffffffffffffffffffffffffffffffffffff1614611c7e57611c7d8382611edf565b5b5b600073ffffffffffffffffffffffffffffffffffffffff168273ffffffffffffffffffffffffffffffffffffffff1603611cc157611cbc8161204c565b611d00565b8273ffffffffffffffffffffffffffffffffffffffff168273ffffffffffffffffffffffffffffffffffffffff1614611cff57611cfe828261211d565b5b5b505050565b505050565b6000611d2b8473ffffffffffffffffffffffffffffffffffffffff1661219c565b15611e84578373ffffffffffffffffffffffffffffffffffffffff1663150b7a02611d546110e1565b8786866040518563ffffffff1660e01b8152600401611d7694939291906131fd565b6020604051808303816000875af1925050508015611db257506040513d601f19601f82011682018060405250810190611daf919061325e565b60015b611e34573d8060008114611de2576040519150601f19603f3d011682016040523d82523d6000602084013e611de7565b606091505b506000815103611e2c576040517f08c379a0000000000000000000000000000000000000000000000000000000008152600401611e2390612fd7565b60405180910390fd5b805181602001fd5b63150b7a0260e01b7bffffffffffffffffffffffffffffffffffffffffffffffffffffffff1916817bffffffffffffffffffffffffffffffffffffffffffffffffffffffff191614915050611e89565b600190505b949350505050565b505050565b6008805490506009600083815260200190815260200160002081905550600881908060018154018082558091505060019003906000526020600020016000909190919091505550565b60006001611eec84610a37565b611ef69190612e25565b9050600060076000848152602001908152602001600020549050818114611fdb576000600660008673ffffffffffffffffffffffffffffffffffffffff1673ffffffffffffffffffffffffffffffffffffffff168152602001908152602001600020600084815260200190815260200160002054905080600660008773ffffffffffffffffffffffffffffffffffffffff1673ffffffffffffffffffffffffffffffffffffffff168152602001908152602001600020600084815260200190815260200160002081905550816007600083815260200190815260200160002081905550505b6007600084815260200190815260200160002060009055600660008573ffffffffffffffffffffffffffffffffffffffff1673ffffffffffffffffffffffffffffffffffffffff16815260200190815260200160002060008381526020019081526020016000206000905550505050565b600060016008805490506120609190612e25565b90506000600960008481526020019081526020016000205490506000600883815481106120905761208f612ab3565b5b9060005260206000200154905080600883815481106120b2576120b1612ab3565b5b9060005260206000200181905550816009600083815260200190815260200160002081905550600960008581526020019081526020016000206000905560088054806121015761210061328b565b5b6001900381819060005260206000200160009055905550505050565b600061212883610a37565b905081600660008573ffffffffffffffffffffffffffffffffffffffff1673ffffffffffffffffffffffffffffffffffffffff168152602001908152602001600020600083815260200190815260200160002081905550806007600084815260200190815260200160002081905550505050565b6000808273ffffffffffffffffffffffffffffffffffffffff163b119050919050565b6000604051905090565b600080fd5b600080fd5b60007fffffffff0000000000000000000000000000000000000000000000000000000082169050919050565b612208816121d3565b811461221357600080fd5b50565b600081359050612225816121ff565b92915050565b600060208284031215612241576122406121c9565b5b600061224f84828501612216565b91505092915050565b60008115159050919050565b61226d81612258565b82525050565b60006020820190506122886000830184612264565b92915050565b600081519050919050565b600082825260208201905092915050565b60005b838110156122c85780820151818401526020810190506122ad565b60008484015250505050565b6000601f19601f8301169050919050565b60006122f08261228e565b6122fa8185612299565b935061230a8185602086016122aa565b612313816122d4565b840191505092915050565b6000602082019050818103600083015261233881846122e5565b905092915050565b6000819050919050565b61235381612340565b811461235e57600080fd5b50565b6000813590506123708161234a565b92915050565b60006020828403121561238c5761238b6121c9565b5b600061239a84828501612361565b91505092915050565b600073ffffffffffffffffffffffffffffffffffffffff82169050919050565b60006123ce826123a3565b9050919050565b6123de816123c3565b82525050565b60006020820190506123f960008301846123d5565b92915050565b612408816123c3565b811461241357600080fd5b50565b600081359050612425816123ff565b92915050565b60008060408385031215612442576124416121c9565b5b600061245085828601612416565b925050602061246185828601612361565b9150509250929050565b61247481612340565b82525050565b600060208201905061248f600083018461246b565b92915050565b6000806000606084860312156124ae576124ad6121c9565b5b60006124bc86828701612416565b93505060206124cd86828701612416565b92505060406124de86828701612361565b9150509250925092565b6000602082840312156124fe576124fd6121c9565b5b600061250c84828501612416565b91505092915050565b61251e81612258565b811461252957600080fd5b50565b60008135905061253b81612515565b92915050565b60008060408385031215612558576125576121c9565b5b600061256685828601612416565b92505060206125778582860161252c565b9150509250929050565b600080fd5b600080fd5b7f4e487b7100000000000000000000000000000000000000000000000000000000600052604160045260246000fd5b6125c3826122d4565b810181811067ffffffffffffffff821117156125e2576125e161258b565b5b80604052505050565b60006125f56121bf565b905061260182826125ba565b919050565b600067ffffffffffffffff8211156126215761262061258b565b5b61262a826122d4565b9050602081019050919050565b82818337600083830152505050565b600061265961265484612606565b6125eb565b90508281526020810184848401111561267557612674612586565b5b612680848285612637565b509392505050565b600082601f83011261269d5761269c612581565b5b81356126ad848260208601612646565b91505092915050565b600080600080608085870312156126d0576126cf6121c9565b5b60006126de87828801612416565b94505060206126ef87828801612416565b935050604061270087828801612361565b925050606085013567ffffffffffffffff811115612721576127206121ce565b5b61272d87828801612688565b91505092959194509250565b600080604083850312156127505761274f6121c9565b5b600061275e85828601612416565b925050602061276f85828601612416565b9150509250929050565b7f4e487b7100000000000000000000000000000000000000000000000000000000600052602260045260246000fd5b600060028204905060018216806127c057607f821691505b6020821081036127d3576127d2612779565b5b50919050565b7f4552433732313a20617070726f76616c20746f2063757272656e74206f776e6560008201527f7200000000000000000000000000000000000000000000000000000000000000602082015250565b6000612835602183612299565b9150612840826127d9565b604082019050919050565b6000602082019050818103600083015261286481612828565b9050919050565b7f4552433732313a20617070726f76652063616c6c6572206973206e6f7420746f60008201527f6b656e206f776e6572206e6f7220617070726f76656420666f7220616c6c0000602082015250565b60006128c7603e83612299565b91506128d28261286b565b604082019050919050565b600060208201905081810360008301526128f6816128ba565b9050919050565b7f4552433732313a2063616c6c6572206973206e6f7420746f6b656e206f776e6560008201527f72206e6f7220617070726f766564000000000000000000000000000000000000602082015250565b6000612959602e83612299565b9150612964826128fd565b604082019050919050565b600060208201905081810360008301526129888161294c565b9050919050565b7f455243373231456e756d657261626c653a206f776e657220696e646578206f7560008201527f74206f6620626f756e6473000000000000000000000000000000000000000000602082015250565b60006129eb602b83612299565b91506129f68261298f565b604082019050919050565b60006020820190508181036000830152612a1a816129de565b9050919050565b7f455243373231456e756d657261626c653a20676c6f62616c20696e646578206f60008201527f7574206f6620626f756e64730000000000000000000000000000000000000000602082015250565b6000612a7d602c83612299565b9150612a8882612a21565b604082019050919050565b60006020820190508181036000830152612aac81612a70565b9050919050565b7f4e487b7100000000000000000000000000000000000000000000000000000000600052603260045260246000fd5b7f4552433732313a20696e76616c696420746f6b656e2049440000000000000000600082015250565b6000612b18601883612299565b9150612b2382612ae2565b602082019050919050565b60006020820190508181036000830152612b4781612b0b565b9050919050565b7f4552433732313a2061646472657373207a65726f206973206e6f74206120766160008201527f6c6964206f776e65720000000000000000000000000000000000000000000000602082015250565b6000612baa602983612299565b9150612bb582612b4e565b604082019050919050565b60006020820190508181036000830152612bd981612b9d565b9050919050565b600081905092915050565b6000612bf68261228e565b612c008185612be0565b9350612c108185602086016122aa565b80840191505092915050565b6000612c288285612beb565b9150612c348284612beb565b91508190509392505050565b7f4f776e61626c653a206e6577206f776e657220697320746865207a65726f206160008201527f6464726573730000000000000000000000000000000000000000000000000000602082015250565b6000612c9c602683612299565b9150612ca782612c40565b604082019050919050565b60006020820190508181036000830152612ccb81612c8f565b9050919050565b7f4552433732313a207472616e736665722066726f6d20696e636f72726563742060008201527f6f776e6572000000000000000000000000000000000000000000000000000000602082015250565b6000612d2e602583612299565b9150612d3982612cd2565b604082019050919050565b60006020820190508181036000830152612d5d81612d21565b9050919050565b7f4552433732313a207472616e7366657220746f20746865207a65726f2061646460008201527f7265737300000000000000000000000000000000000000000000000000000000602082015250565b6000612dc0602483612299565b9150612dcb82612d64565b604082019050919050565b60006020820190508181036000830152612def81612db3565b9050919050565b7f4e487b7100000000000000000000000000000000000000000000000000000000600052601160045260246000fd5b6000612e3082612340565b9150612e3b83612340565b9250828203905081811115612e5357612e52612df6565b5b92915050565b6000612e6482612340565b9150612e6f83612340565b9250828201905080821115612e8757612e86612df6565b5b92915050565b7f4f776e61626c653a2063616c6c6572206973206e6f7420746865206f776e6572600082015250565b6000612ec3602083612299565b9150612ece82612e8d565b602082019050919050565b60006020820190508181036000830152612ef281612eb6565b9050919050565b7f4552433732313a20617070726f766520746f2063616c6c657200000000000000600082015250565b6000612f2f601983612299565b9150612f3a82612ef9565b602082019050919050565b60006020820190508181036000830152612f5e81612f22565b9050919050565b7f4552433732313a207472616e7366657220746f206e6f6e20455243373231526560008201527f63656976657220696d706c656d656e7465720000000000000000000000000000602082015250565b6000612fc1603283612299565b9150612fcc82612f65565b604082019050919050565b60006020820190508181036000830152612ff081612fb4565b9050919050565b600061300282612340565b91507fffffffffffffffffffffffffffffffffffffffffffffffffffffffffffffffff820361303457613033612df6565b5b600182019050919050565b7f4e487b7100000000000000000000000000000000000000000000000000000000600052601260045260246000fd5b600061307982612340565b915061308483612340565b9250826130945761309361303f565b5b828204905092915050565b60006130aa82612340565b91506130b583612340565b9250826130c5576130c461303f565b5b828206905092915050565b7f4552433732313a206d696e7420746f20746865207a65726f2061646472657373600082015250565b6000613106602083612299565b9150613111826130d0565b602082019050919050565b60006020820190508181036000830152613135816130f9565b9050919050565b7f4552433732313a20746f6b656e20616c7265616479206d696e74656400000000600082015250565b6000613172601c83612299565b915061317d8261313c565b602082019050919050565b600060208201905081810360008301526131a181613165565b9050919050565b600081519050919050565b600082825260208201905092915050565b60006131cf826131a8565b6131d981856131b3565b93506131e98185602086016122aa565b6131f2816122d4565b840191505092915050565b600060808201905061321260008301876123d5565b61321f60208301866123d5565b61322c604083018561246b565b818103606083015261323e81846131c4565b905095945050505050565b600081519050613258816121ff565b92915050565b600060208284031215613274576132736121c9565b5b600061328284828501613249565b91505092915050565b7f4e487b7100000000000000000000000000000000000000000000000000000000600052603160045260246000fdfea2646970667358221220de4e5006d8fbf11e82013c173f6e2fb613efefc18f5ff534ab09124399942d4264736f6c63430008100033",
  "immutableReferences": {},
  "source": "// SPDX-License-Identifier: MIT\r\npragma solidity ^0.8.16;\r\n\r\nimport \"@openzeppelin/contracts/token/ERC721/ERC721.sol\";\r\nimport \"@openzeppelin/contracts/utils/Counters.sol\";\r\nimport \"@openzeppelin/contracts/access/Ownable.sol\";\r\nimport \"@openzeppelin/contracts/token/ERC721/extensions/ERC721Enumerable.sol\";\r\n\r\n/*\r\n  NFT \r\n     .\r\n  .\r\n*/\r\ncontract MascortNft is ERC721Enumerable, Ownable {\r\n    \r\n    //using   \r\n    using Counters for Counters.Counter;\r\n\r\n    //    :   1 \r\n    Counters.Counter private _tokenIds;\r\n\r\n    //ERC721URIStrage :  ID  URI \r\n    string private _tokenUri;\r\n\r\n    //    \r\n    string private _name;\r\n\r\n    //    \r\n    string private _class;\r\n\r\n    mapping(address => uint256) private _minters;\r\n\r\n\r\n    // \r\n    //@param address tokenUri :  NFT   IPFS URI\r\n    //@param string name :   NFT   (=)\r\n    //@param string class :   NFT  \r\n    constructor(\r\n        string memory tokenUri,\r\n        string memory name,\r\n        string memory class\r\n    ) ERC721(\"MascortNFT\", \"MCT\") {\r\n        _tokenUri = tokenUri;\r\n        _name = name;\r\n        _class = class;\r\n    }\r\n\r\n    function _createMascortNft ()\r\n    public returns (uint256)\r\n    {\r\n        //   token  1 \r\n        _tokenIds.increment();\r\n        \r\n        uint256 newItemId = _tokenIds.current();\r\n\r\n        //ERC721  \r\n        _mint(msg.sender, newItemId);\r\n        _minters[msg.sender] = newItemId;\r\n\r\n        return newItemId;\r\n    }\r\n\r\n    function _getName()\r\n    public view returns(string memory){\r\n        return _name;\r\n    } \r\n\r\n    function _getClass() \r\n    public view returns(string memory){\r\n        return _class;\r\n    }\r\n\r\n    function _getTokenUri()\r\n    public view returns(string memory){\r\n        return _tokenUri;\r\n    }\r\n\r\n    function _getMintersNumber()\r\n    public view returns(uint256){\r\n        return _tokenIds.current();\r\n    }\r\n\r\n    function _isOwner(\r\n        address wallet\r\n    ) public view returns(bool){\r\n        \r\n        //key    \r\n        if(_minters[wallet] == 0){\r\n            return false;\r\n        }\r\n\r\n        return true;\r\n    }\r\n}",
  "sourcePath": "C:\\Users\\multicampus\\Documents\\Dev\\Git\\S07P22D103\\smart-contract\\src\\contracts\\MascortNft.sol",
  "compiler": {
    "name": "solc",
    "version": "0.8.16+commit.07a7930e.Emscripten.clang"
  },
  "schemaVersion": "3.4.9",
  "updatedAt": "2022-09-07T02:22:10.688Z",
  "networkType": "ethereum",
  "devdoc": {
    "kind": "dev",
    "methods": {
      "approve(address,uint256)": {
        "details": "See {IERC721-approve}."
      },
      "balanceOf(address)": {
        "details": "See {IERC721-balanceOf}."
      },
      "getApproved(uint256)": {
        "details": "See {IERC721-getApproved}."
      },
      "isApprovedForAll(address,address)": {
        "details": "See {IERC721-isApprovedForAll}."
      },
      "name()": {
        "details": "See {IERC721Metadata-name}."
      },
      "owner()": {
        "details": "Returns the address of the current owner."
      },
      "ownerOf(uint256)": {
        "details": "See {IERC721-ownerOf}."
      },
      "renounceOwnership()": {
        "details": "Leaves the contract without owner. It will not be possible to call `onlyOwner` functions anymore. Can only be called by the current owner. NOTE: Renouncing ownership will leave the contract without an owner, thereby removing any functionality that is only available to the owner."
      },
      "safeTransferFrom(address,address,uint256)": {
        "details": "See {IERC721-safeTransferFrom}."
      },
      "safeTransferFrom(address,address,uint256,bytes)": {
        "details": "See {IERC721-safeTransferFrom}."
      },
      "setApprovalForAll(address,bool)": {
        "details": "See {IERC721-setApprovalForAll}."
      },
      "supportsInterface(bytes4)": {
        "details": "See {IERC165-supportsInterface}."
      },
      "symbol()": {
        "details": "See {IERC721Metadata-symbol}."
      },
      "tokenByIndex(uint256)": {
        "details": "See {IERC721Enumerable-tokenByIndex}."
      },
      "tokenOfOwnerByIndex(address,uint256)": {
        "details": "See {IERC721Enumerable-tokenOfOwnerByIndex}."
      },
      "tokenURI(uint256)": {
        "details": "See {IERC721Metadata-tokenURI}."
      },
      "totalSupply()": {
        "details": "See {IERC721Enumerable-totalSupply}."
      },
      "transferFrom(address,address,uint256)": {
        "details": "See {IERC721-transferFrom}."
      },
      "transferOwnership(address)": {
        "details": "Transfers ownership of the contract to a new account (`newOwner`). Can only be called by the current owner."
      }
    },
    "version": 1
  },
  "userdoc": {
    "kind": "user",
    "methods": {},
    "version": 1
  }
}