{
  "contractName": "NftDonate",
  "abi": [
    {
      "inputs": [
        {
          "internalType": "address",
          "name": "currencyContractAddress",
          "type": "address"
        },
        {
          "internalType": "address",
          "name": "animalNftContractAddress",
          "type": "address"
        },
        {
          "internalType": "address",
          "name": "buyer",
          "type": "address"
        },
        {
          "internalType": "uint256",
          "name": "mintedAt",
          "type": "uint256"
        }
      ],
      "stateMutability": "nonpayable",
      "type": "constructor"
    },
    {
      "anonymous": false,
      "inputs": [
        {
          "indexed": true,
          "internalType": "uint256",
          "name": "animalId",
          "type": "uint256"
        }
      ],
      "name": "Closed",
      "type": "event"
    },
    {
      "anonymous": false,
      "inputs": [
        {
          "indexed": false,
          "internalType": "address",
          "name": "seller",
          "type": "address"
        },
        {
          "indexed": false,
          "internalType": "address",
          "name": "buyer",
          "type": "address"
        }
      ],
      "name": "Donate",
      "type": "event"
    },
    {
      "anonymous": false,
      "inputs": [
        {
          "indexed": true,
          "internalType": "address",
          "name": "previousOwner",
          "type": "address"
        },
        {
          "indexed": true,
          "internalType": "address",
          "name": "newOwner",
          "type": "address"
        }
      ],
      "name": "OwnershipTransferred",
      "type": "event"
    },
    {
      "inputs": [],
      "name": "owner",
      "outputs": [
        {
          "internalType": "address",
          "name": "",
          "type": "address"
        }
      ],
      "stateMutability": "view",
      "type": "function"
    },
    {
      "inputs": [],
      "name": "renounceOwnership",
      "outputs": [],
      "stateMutability": "nonpayable",
      "type": "function"
    },
    {
      "inputs": [
        {
          "internalType": "address",
          "name": "newOwner",
          "type": "address"
        }
      ],
      "name": "transferOwnership",
      "outputs": [],
      "stateMutability": "nonpayable",
      "type": "function"
    },
    {
      "inputs": [],
      "name": "donate",
      "outputs": [
        {
          "internalType": "uint256",
          "name": "",
          "type": "uint256"
        }
      ],
      "stateMutability": "payable",
      "type": "function"
    }
  ],
  "bytecode": "0x60806040523480156200001157600080fd5b5060405162000db138038062000db183398181016040528101906200003791906200037d565b620000576200004b6200020c60201b60201c565b6200021460201b60201c565b83600460016101000a81548173ffffffffffffffffffffffffffffffffffffffff021916908373ffffffffffffffffffffffffffffffffffffffff160217905550600460019054906101000a900473ffffffffffffffffffffffffffffffffffffffff16600560006101000a81548173ffffffffffffffffffffffffffffffffffffffff021916908373ffffffffffffffffffffffffffffffffffffffff16021790555082600660006101000a81548173ffffffffffffffffffffffffffffffffffffffff021916908373ffffffffffffffffffffffffffffffffffffffff160217905550600660009054906101000a900473ffffffffffffffffffffffffffffffffffffffff16600760006101000a81548173ffffffffffffffffffffffffffffffffffffffff021916908373ffffffffffffffffffffffffffffffffffffffff16021790555081600260006101000a81548173ffffffffffffffffffffffffffffffffffffffff021916908373ffffffffffffffffffffffffffffffffffffffff160217905550806003819055506000600460006101000a81548160ff02191690831515021790555050505050620003ef565b600033905090565b60008060009054906101000a900473ffffffffffffffffffffffffffffffffffffffff169050816000806101000a81548173ffffffffffffffffffffffffffffffffffffffff021916908373ffffffffffffffffffffffffffffffffffffffff1602179055508173ffffffffffffffffffffffffffffffffffffffff168173ffffffffffffffffffffffffffffffffffffffff167f8be0079c531659141344cd1fd0a4f28419497f9722a3daafe3b4186f6b6457e060405160405180910390a35050565b600080fd5b600073ffffffffffffffffffffffffffffffffffffffff82169050919050565b60006200030a82620002dd565b9050919050565b6200031c81620002fd565b81146200032857600080fd5b50565b6000815190506200033c8162000311565b92915050565b6000819050919050565b620003578162000342565b81146200036357600080fd5b50565b60008151905062000377816200034c565b92915050565b600080600080608085870312156200039a5762000399620002d8565b5b6000620003aa878288016200032b565b9450506020620003bd878288016200032b565b9350506040620003d0878288016200032b565b9250506060620003e38782880162000366565b91505092959194509250565b6109b280620003ff6000396000f3fe60806040526004361061003f5760003560e01c8063715018a6146100445780638da5cb5b1461005b578063ed88c68e14610086578063f2fde38b146100a4575b600080fd5b34801561005057600080fd5b506100596100cd565b005b34801561006757600080fd5b506100706100e1565b60405161007d9190610636565b60405180910390f35b61008e61010a565b60405161009b919061066a565b60405180910390f35b3480156100b057600080fd5b506100cb60048036038101906100c691906106b6565b6103dc565b005b6100d561045f565b6100df60006104dd565b565b60008060009054906101000a900473ffffffffffffffffffffffffffffffffffffffff16905090565b6000600460009054906101000a900460ff161561012657600080fd5b61012c600560009054906101000a900473ffffffffffffffffffffffffffffffffffffffff1673ffffffffffffffffffffffffffffffffffffffff166370a08231600260009054906101000a900473ffffffffffffffffffffffffffffffffffffffff166040518263ffffffff1660e01b81526004016101a69190610636565b602060405180830381865afa1580156101c3573d6000803e3d6000fd5b505050506040513d601f19601f820116820180604052508101906101e7919061070f565b1015610228576040517f08c379a000000000000000000000000000000000000000000000000000000000815260040161021f90610799565b60405180910390fd5b6000600760009054906101000a900473ffffffffffffffffffffffffffffffffffffffff1673ffffffffffffffffffffffffffffffffffffffff166362b514b06040518163ffffffff1660e01b81526004016020604051808303816000875af1158015610299573d6000803e3d6000fd5b505050506040513d601f19601f820116820180604052508101906102bd919061070f565b9050600560009054906101000a900473ffffffffffffffffffffffffffffffffffffffff1673ffffffffffffffffffffffffffffffffffffffff166323b872dd336103066100e1565b61012c6040518463ffffffff1660e01b8152600401610327939291906107b9565b6020604051808303816000875af1158015610346573d6000803e3d6000fd5b505050506040513d601f19601f8201168201806040525081019061036a9190610828565b50806001819055507fdcb38bc05e6d7e5d6a23da8fea8b3e7f9728a7432a78759f21af211c50af70af600260009054906101000a900473ffffffffffffffffffffffffffffffffffffffff16336040516103c5929190610855565b60405180910390a16103d56105a1565b8091505090565b6103e461045f565b600073ffffffffffffffffffffffffffffffffffffffff168173ffffffffffffffffffffffffffffffffffffffff1603610453576040517f08c379a000000000000000000000000000000000000000000000000000000000815260040161044a906108f0565b60405180910390fd5b61045c816104dd565b50565b6104676105ed565b73ffffffffffffffffffffffffffffffffffffffff166104856100e1565b73ffffffffffffffffffffffffffffffffffffffff16146104db576040517f08c379a00000000000000000000000000000000000000000000000000000000081526004016104d29061095c565b60405180910390fd5b565b60008060009054906101000a900473ffffffffffffffffffffffffffffffffffffffff169050816000806101000a81548173ffffffffffffffffffffffffffffffffffffffff021916908373ffffffffffffffffffffffffffffffffffffffff1602179055508173ffffffffffffffffffffffffffffffffffffffff168173ffffffffffffffffffffffffffffffffffffffff167f8be0079c531659141344cd1fd0a4f28419497f9722a3daafe3b4186f6b6457e060405160405180910390a35050565b6001600460006101000a81548160ff0219169083151502179055506001547f6cc09e7b5c3e49861ebe8f6867e1618fbfc14c8d0e968fde37c4243ca02a6f8360405160405180910390a2565b600033905090565b600073ffffffffffffffffffffffffffffffffffffffff82169050919050565b6000610620826105f5565b9050919050565b61063081610615565b82525050565b600060208201905061064b6000830184610627565b92915050565b6000819050919050565b61066481610651565b82525050565b600060208201905061067f600083018461065b565b92915050565b600080fd5b61069381610615565b811461069e57600080fd5b50565b6000813590506106b08161068a565b92915050565b6000602082840312156106cc576106cb610685565b5b60006106da848285016106a1565b91505092915050565b6106ec81610651565b81146106f757600080fd5b50565b600081519050610709816106e3565b92915050565b60006020828403121561072557610724610685565b5b6000610733848285016106fa565b91505092915050565b600082825260208201905092915050565b7f62616c616e636520697320657868617573746564000000000000000000000000600082015250565b600061078360148361073c565b915061078e8261074d565b602082019050919050565b600060208201905081810360008301526107b281610776565b9050919050565b60006060820190506107ce6000830186610627565b6107db6020830185610627565b6107e8604083018461065b565b949350505050565b60008115159050919050565b610805816107f0565b811461081057600080fd5b50565b600081519050610822816107fc565b92915050565b60006020828403121561083e5761083d610685565b5b600061084c84828501610813565b91505092915050565b600060408201905061086a6000830185610627565b6108776020830184610627565b9392505050565b7f4f776e61626c653a206e6577206f776e657220697320746865207a65726f206160008201527f6464726573730000000000000000000000000000000000000000000000000000602082015250565b60006108da60268361073c565b91506108e58261087e565b604082019050919050565b60006020820190508181036000830152610909816108cd565b9050919050565b7f4f776e61626c653a2063616c6c6572206973206e6f7420746865206f776e6572600082015250565b600061094660208361073c565b915061095182610910565b602082019050919050565b6000602082019050818103600083015261097581610939565b905091905056fea264697066735822122014bc4e82b3a4c499830623f5cbfcf246026b25f52679cbf2814723262222085e64736f6c63430008100033",
  "immutableReferences": {},
  "source": "// SPDX-License-Identifier: MIT\r\npragma solidity ^0.8.16;\r\n\r\nimport \"@openzeppelin/contracts/token/ERC20/ERC20.sol\";\r\nimport \"@openzeppelin/contracts/access/Ownable.sol\";\r\nimport \"@openzeppelin/contracts/utils/Counters.sol\";\r\nimport \"@openzeppelin/contracts/utils/math/SafeMath.sol\";\r\n\r\nimport \"./AnimalNft.sol\";\r\n/*\r\n*    Contracts\r\n*     \r\n* @author\r\n* @version\r\n*/\r\n\r\ncontract NftDonate is Ownable {\r\n    using SafeMath for uint256;\r\n\r\n    event Closed(uint256 indexed animalId);\r\n    event Donate(address seller, address buyer);\r\n    \r\n    /*\r\n          \r\n    */\r\n    //  ID \r\n    uint256 private _animalId;\r\n    //   \r\n    address private _buyer; \r\n    //UNIX TIME STAMP   \r\n    uint256 private _mintedAt;\r\n    //  \r\n    bool private _isClosed;\r\n\r\n    /* \r\n           \r\n    */\r\n    // \r\n    uint constant MINT_PRICE = 300;\r\n\r\n    // PRIVATE  Contract(ERC20) \r\n    address private _currencyContractAddress;\r\n    // ERC20 \r\n    IERC20 private _currencyContract;\r\n    // PRIVATE  NftContract(ERC-721)\r\n    address private _animalNftContractAddress;\r\n    // PRIVATE  AnimalNft(ERC-721) \r\n    AnimalNft private _animalNftContract;\r\n    \r\n    \r\n    /*\r\n    * constructor\r\n    *    \r\n    * @param address currencyContractAddress ERC-20   \r\n    * @param address animalNftContractAddress AnimalNft(ERC-721)   \r\n    * @param address seller  \r\n    * @param uint256 price  \r\n    * @param uint256 mintedAt UNIX TIMESTAMP  \r\n    */\r\n    constructor(\r\n        address currencyContractAddress,\r\n        address animalNftContractAddress,\r\n        address buyer,\r\n        uint256 mintedAt\r\n    ) {\r\n        _currencyContractAddress = currencyContractAddress;\r\n        _currencyContract = IERC20(_currencyContractAddress);\r\n        _animalNftContractAddress = animalNftContractAddress;\r\n        _animalNftContract = AnimalNft(_animalNftContractAddress);\r\n\r\n        _buyer = buyer;\r\n        _mintedAt = mintedAt;\r\n        _isClosed = false;\r\n    }\r\n\r\n    /*\r\n    * closed\r\n    *     \r\n    *      \r\n    *\r\n    * @ param None\r\n    * @ return None\r\n    * @ exception None\r\n    */\r\n    function closed() private {\r\n        _isClosed = true;\r\n        emit Closed(_animalId);\r\n    }\r\n\r\n    /*\r\n    * donate\r\n    *    ,\r\n    *     \r\n    * @ modifier ActiveMint    Nft \r\n    * @ param None\r\n    * @ return animalId\r\n    * @ exception     .\r\n    * @ exception      \r\n    */\r\n    function donate()\r\n    public payable ActiveMint \r\n    returns (uint256)\r\n    {\r\n\r\n        //     \r\n        require(_currencyContract.balanceOf(_buyer) >= MINT_PRICE, \"balance is exhausted\");\r\n\r\n        /*\r\n        [ => ]\r\n        */\r\n        uint256 newAnimalId = _animalNftContract._createAnimalNft();\r\n\r\n        /* \r\n        [ => ]\r\n           \r\n        */\r\n        _currencyContract.transferFrom(msg.sender, owner(), MINT_PRICE);\r\n\r\n        _animalId = newAnimalId;\r\n        emit Donate(_buyer, msg.sender);\r\n\r\n        //    \r\n        closed();\r\n\r\n        return newAnimalId;\r\n    }\r\n\r\n    // IERC721Receiver interface    .\r\n    // function onERC721Received(\r\n    //     address operator,\r\n    //     address from,\r\n    //     uint256 tokenId,\r\n    //     bytes calldata data\r\n    // ) external pure returns (bytes4) {\r\n    //     return this.onERC721Received.selector;\r\n    // }\r\n\r\n    modifier ActiveMint() {\r\n        require(!_isClosed);\r\n        _;\r\n    }\r\n}",
  "sourcePath": "C:\\Users\\multicampus\\project\\S07P22D103\\smart-contract\\src\\contracts\\NftDonate.sol",
  "compiler": {
    "name": "solc",
    "version": "0.8.16+commit.07a7930e.Emscripten.clang"
  },
  "schemaVersion": "3.4.9",
  "updatedAt": "2022-09-06T18:27:50.690Z",
  "devdoc": {
    "kind": "dev",
    "methods": {
      "owner()": {
        "details": "Returns the address of the current owner."
      },
      "renounceOwnership()": {
        "details": "Leaves the contract without owner. It will not be possible to call `onlyOwner` functions anymore. Can only be called by the current owner. NOTE: Renouncing ownership will leave the contract without an owner, thereby removing any functionality that is only available to the owner."
      },
      "transferOwnership(address)": {
        "details": "Transfers ownership of the contract to a new account (`newOwner`). Can only be called by the current owner."
      }
    },
    "version": 1
  },
  "userdoc": {
    "kind": "user",
    "methods": {},
    "version": 1
  }
}