{
  "contractName": "NftFree",
  "abi": [
    {
      "inputs": [
        {
          "internalType": "address",
          "name": "currencyContractAddress",
          "type": "address"
        },
        {
          "internalType": "address",
          "name": "mascortNftContractAddress",
          "type": "address"
        },
        {
          "internalType": "address",
          "name": "minter",
          "type": "address"
        },
        {
          "internalType": "uint256",
          "name": "mintedAt",
          "type": "uint256"
        }
      ],
      "stateMutability": "nonpayable",
      "type": "constructor"
    },
    {
      "anonymous": false,
      "inputs": [
        {
          "indexed": false,
          "internalType": "address",
          "name": "minter",
          "type": "address"
        }
      ],
      "name": "Free",
      "type": "event"
    },
    {
      "anonymous": false,
      "inputs": [
        {
          "indexed": true,
          "internalType": "address",
          "name": "previousOwner",
          "type": "address"
        },
        {
          "indexed": true,
          "internalType": "address",
          "name": "newOwner",
          "type": "address"
        }
      ],
      "name": "OwnershipTransferred",
      "type": "event"
    },
    {
      "inputs": [],
      "name": "owner",
      "outputs": [
        {
          "internalType": "address",
          "name": "",
          "type": "address"
        }
      ],
      "stateMutability": "view",
      "type": "function"
    },
    {
      "inputs": [],
      "name": "renounceOwnership",
      "outputs": [],
      "stateMutability": "nonpayable",
      "type": "function"
    },
    {
      "inputs": [
        {
          "internalType": "address",
          "name": "newOwner",
          "type": "address"
        }
      ],
      "name": "transferOwnership",
      "outputs": [],
      "stateMutability": "nonpayable",
      "type": "function"
    },
    {
      "inputs": [],
      "name": "free",
      "outputs": [
        {
          "internalType": "uint256",
          "name": "",
          "type": "uint256"
        }
      ],
      "stateMutability": "nonpayable",
      "type": "function"
    }
  ],
  "bytecode": "0x608060405234801561001057600080fd5b5060405162000bb938038062000bb98339818101604052810190610034919061034e565b6100506100456101e960201b60201c565b6101f160201b60201c565b83600360006101000a81548173ffffffffffffffffffffffffffffffffffffffff021916908373ffffffffffffffffffffffffffffffffffffffff160217905550600360009054906101000a900473ffffffffffffffffffffffffffffffffffffffff16600460006101000a81548173ffffffffffffffffffffffffffffffffffffffff021916908373ffffffffffffffffffffffffffffffffffffffff16021790555082600560006101000a81548173ffffffffffffffffffffffffffffffffffffffff021916908373ffffffffffffffffffffffffffffffffffffffff160217905550600560009054906101000a900473ffffffffffffffffffffffffffffffffffffffff16600660006101000a81548173ffffffffffffffffffffffffffffffffffffffff021916908373ffffffffffffffffffffffffffffffffffffffff16021790555081600160006101000a81548173ffffffffffffffffffffffffffffffffffffffff021916908373ffffffffffffffffffffffffffffffffffffffff16021790555080600281905550505050506103b5565b600033905090565b60008060009054906101000a900473ffffffffffffffffffffffffffffffffffffffff169050816000806101000a81548173ffffffffffffffffffffffffffffffffffffffff021916908373ffffffffffffffffffffffffffffffffffffffff1602179055508173ffffffffffffffffffffffffffffffffffffffff168173ffffffffffffffffffffffffffffffffffffffff167f8be0079c531659141344cd1fd0a4f28419497f9722a3daafe3b4186f6b6457e060405160405180910390a35050565b600080fd5b600073ffffffffffffffffffffffffffffffffffffffff82169050919050565b60006102e5826102ba565b9050919050565b6102f5816102da565b811461030057600080fd5b50565b600081519050610312816102ec565b92915050565b6000819050919050565b61032b81610318565b811461033657600080fd5b50565b60008151905061034881610322565b92915050565b60008060008060808587031215610368576103676102b5565b5b600061037687828801610303565b945050602061038787828801610303565b935050604061039887828801610303565b92505060606103a987828801610339565b91505092959194509250565b6107f480620003c56000396000f3fe608060405234801561001057600080fd5b506004361061004c5760003560e01c80631370128e14610051578063715018a61461006f5780638da5cb5b14610079578063f2fde38b14610097575b600080fd5b6100596100b3565b60405161006691906104b0565b60405180910390f35b61007761028d565b005b6100816102a1565b60405161008e919061050c565b60405180910390f35b6100b160048036038101906100ac9190610558565b6102ca565b005b6000801515600660009054906101000a900473ffffffffffffffffffffffffffffffffffffffff1673ffffffffffffffffffffffffffffffffffffffff1663b71fbe4b336040518263ffffffff1660e01b8152600401610113919061050c565b602060405180830381865afa158015610130573d6000803e3d6000fd5b505050506040513d601f19601f8201168201806040525081019061015491906105bd565b151514610196576040517f08c379a000000000000000000000000000000000000000000000000000000000815260040161018d90610647565b60405180910390fd5b6000600660009054906101000a900473ffffffffffffffffffffffffffffffffffffffff1673ffffffffffffffffffffffffffffffffffffffff1663ea4d942d6040518163ffffffff1660e01b81526004016020604051808303816000875af1158015610207573d6000803e3d6000fd5b505050506040513d601f19601f8201168201806040525081019061022b9190610693565b90507f4804d76736eb04adc53e52dccfb67748514108b26cd65b0fa9f04cb76a7724ec600160009054906101000a900473ffffffffffffffffffffffffffffffffffffffff1660405161027e919061050c565b60405180910390a18091505090565b61029561034d565b61029f60006103cb565b565b60008060009054906101000a900473ffffffffffffffffffffffffffffffffffffffff16905090565b6102d261034d565b600073ffffffffffffffffffffffffffffffffffffffff168173ffffffffffffffffffffffffffffffffffffffff1603610341576040517f08c379a000000000000000000000000000000000000000000000000000000000815260040161033890610732565b60405180910390fd5b61034a816103cb565b50565b61035561048f565b73ffffffffffffffffffffffffffffffffffffffff166103736102a1565b73ffffffffffffffffffffffffffffffffffffffff16146103c9576040517f08c379a00000000000000000000000000000000000000000000000000000000081526004016103c09061079e565b60405180910390fd5b565b60008060009054906101000a900473ffffffffffffffffffffffffffffffffffffffff169050816000806101000a81548173ffffffffffffffffffffffffffffffffffffffff021916908373ffffffffffffffffffffffffffffffffffffffff1602179055508173ffffffffffffffffffffffffffffffffffffffff168173ffffffffffffffffffffffffffffffffffffffff167f8be0079c531659141344cd1fd0a4f28419497f9722a3daafe3b4186f6b6457e060405160405180910390a35050565b600033905090565b6000819050919050565b6104aa81610497565b82525050565b60006020820190506104c560008301846104a1565b92915050565b600073ffffffffffffffffffffffffffffffffffffffff82169050919050565b60006104f6826104cb565b9050919050565b610506816104eb565b82525050565b600060208201905061052160008301846104fd565b92915050565b600080fd5b610535816104eb565b811461054057600080fd5b50565b6000813590506105528161052c565b92915050565b60006020828403121561056e5761056d610527565b5b600061057c84828501610543565b91505092915050565b60008115159050919050565b61059a81610585565b81146105a557600080fd5b50565b6000815190506105b781610591565b92915050565b6000602082840312156105d3576105d2610527565b5b60006105e1848285016105a8565b91505092915050565b600082825260208201905092915050565b7f414c524541445920495320414e204f574e455200000000000000000000000000600082015250565b60006106316013836105ea565b915061063c826105fb565b602082019050919050565b6000602082019050818103600083015261066081610624565b9050919050565b61067081610497565b811461067b57600080fd5b50565b60008151905061068d81610667565b92915050565b6000602082840312156106a9576106a8610527565b5b60006106b78482850161067e565b91505092915050565b7f4f776e61626c653a206e6577206f776e657220697320746865207a65726f206160008201527f6464726573730000000000000000000000000000000000000000000000000000602082015250565b600061071c6026836105ea565b9150610727826106c0565b604082019050919050565b6000602082019050818103600083015261074b8161070f565b9050919050565b7f4f776e61626c653a2063616c6c6572206973206e6f7420746865206f776e6572600082015250565b60006107886020836105ea565b915061079382610752565b602082019050919050565b600060208201905081810360008301526107b78161077b565b905091905056fea2646970667358221220a941442527809988bfe07d61f5d3d7275bc62ada5a43b6b068bb699d22809af664736f6c63430008100033",
  "immutableReferences": {},
  "source": "// SPDX-License-Identifier: MIT\r\npragma solidity ^0.8.16;\r\n\r\nimport \"@openzeppelin/contracts/token/ERC20/ERC20.sol\";\r\nimport \"@openzeppelin/contracts/access/Ownable.sol\";\r\nimport \"@openzeppelin/contracts/utils/Counters.sol\";\r\nimport \"@openzeppelin/contracts/utils/math/SafeMath.sol\";\r\n\r\nimport \"./MascortNft.sol\";\r\n/*\r\n*    Contracts\r\n*     \r\n* @author\r\n* @version\r\n*/\r\n\r\ncontract NftFree is Ownable {\r\n    using SafeMath for uint256;\r\n\r\n    event Free(address minter);\r\n    \r\n    /*\r\n          \r\n    */\r\n    //   \r\n    address private _minter; \r\n    //UNIX TIME STAMP   \r\n    uint256 private _mintedAt;\r\n\r\n    /* \r\n           \r\n    */\r\n    // \r\n    uint constant MINT_PRICE = 0;\r\n\r\n    // PRIVATE  Contract(ERC20) \r\n    address private _currencyContractAddress;\r\n    // ERC20 \r\n    IERC20 private _currencyContract;\r\n    // PRIVATE  NftContract(ERC-721)\r\n    address private _mascortNftContractAddress;\r\n    // PRIVATE  MascortNft(ERC-721) \r\n    MascortNft private _mascortNftContract;\r\n    \r\n    \r\n    /*\r\n    * constructor\r\n    *    \r\n    * @param address mascortNftContractAddress MascortNft(ERC-721)   \r\n    * @param address minter  \r\n    * @param uint256 price  \r\n    * @param uint256 mintedAt UNIX TIMESTAMP  \r\n    */\r\n    constructor(\r\n        address currencyContractAddress,\r\n        address mascortNftContractAddress,\r\n        address minter,\r\n        uint256 mintedAt\r\n    ) {\r\n        _currencyContractAddress = currencyContractAddress;\r\n        _currencyContract = IERC20(_currencyContractAddress);\r\n        _mascortNftContractAddress = mascortNftContractAddress;\r\n        _mascortNftContract = MascortNft(_mascortNftContractAddress);\r\n\r\n        _minter = minter;\r\n        _mintedAt = mintedAt;\r\n    }\r\n\r\n\r\n    /*\r\n    * free\r\n    *    ,  \r\n    * @ param None\r\n    * @ return newMascortId\r\n    * @ exception     .\r\n    * @ exception      \r\n    */\r\n    function free() public \r\n    returns (uint256)\r\n    {\r\n        require(_mascortNftContract._isOwner(msg.sender) == false, \"ALREADY IS AN OWNER\");\r\n        /*\r\n        [ => ]\r\n        */\r\n        uint256 newMascortId = _mascortNftContract._createMascortNft();\r\n\r\n        emit Free(_minter);\r\n\r\n        return newMascortId;\r\n    }\r\n\r\n    // IERC721Receiver interface    .\r\n    // function onERC721Received(\r\n    //     address operator,\r\n    //     address from,\r\n    //     uint256 tokenId,\r\n    //     bytes calldata data\r\n    // ) external pure returns (bytes4) {\r\n    //     return this.onERC721Received.selector;\r\n    // }\r\n\r\n}",
  "sourcePath": "C:\\Users\\multicampus\\Documents\\Dev\\Git\\S07P22D103\\smart-contract\\src\\contracts\\NftFree.sol",
  "compiler": {
    "name": "solc",
    "version": "0.8.16+commit.07a7930e.Emscripten.clang"
  },
  "schemaVersion": "3.4.9",
  "updatedAt": "2022-09-07T02:21:51.981Z",
  "devdoc": {
    "kind": "dev",
    "methods": {
      "owner()": {
        "details": "Returns the address of the current owner."
      },
      "renounceOwnership()": {
        "details": "Leaves the contract without owner. It will not be possible to call `onlyOwner` functions anymore. Can only be called by the current owner. NOTE: Renouncing ownership will leave the contract without an owner, thereby removing any functionality that is only available to the owner."
      },
      "transferOwnership(address)": {
        "details": "Transfers ownership of the contract to a new account (`newOwner`). Can only be called by the current owner."
      }
    },
    "version": 1
  },
  "userdoc": {
    "kind": "user",
    "methods": {},
    "version": 1
  }
}