{
  "contractName": "NFTSale",
  "abi": [
    {
      "inputs": [
        {
          "internalType": "address",
          "name": "originalContractAddress",
          "type": "address"
        },
        {
          "internalType": "address",
          "name": "animalNFTContractAddress",
          "type": "address"
        }
      ],
      "stateMutability": "nonpayable",
      "type": "constructor"
    },
    {
      "anonymous": false,
      "inputs": [
        {
          "indexed": true,
          "internalType": "uint256",
          "name": "transactionId",
          "type": "uint256"
        },
        {
          "indexed": false,
          "internalType": "address",
          "name": "transactionAddress",
          "type": "address"
        }
      ],
      "name": "TransactionCreated",
      "type": "event"
    },
    {
      "inputs": [
        {
          "internalType": "address",
          "name": "from",
          "type": "address"
        },
        {
          "internalType": "address",
          "name": "to",
          "type": "address"
        },
        {
          "internalType": "uint256",
          "name": "amount",
          "type": "uint256"
        },
        {
          "internalType": "uint256",
          "name": "tokenId",
          "type": "uint256"
        }
      ],
      "name": "_transfer",
      "outputs": [],
      "stateMutability": "nonpayable",
      "type": "function"
    }
  ],
  "bytecode": "0x608060405234801561001057600080fd5b5060405162000f0b38038062000f0b83398181016040528101906100349190610161565b81600360006101000a81548173ffffffffffffffffffffffffffffffffffffffff021916908373ffffffffffffffffffffffffffffffffffffffff16021790555080600460006101000a81548173ffffffffffffffffffffffffffffffffffffffff021916908373ffffffffffffffffffffffffffffffffffffffff16021790555081600260006101000a81548173ffffffffffffffffffffffffffffffffffffffff021916908373ffffffffffffffffffffffffffffffffffffffff16021790555050506101a1565b600080fd5b600073ffffffffffffffffffffffffffffffffffffffff82169050919050565b600061012e82610103565b9050919050565b61013e81610123565b811461014957600080fd5b50565b60008151905061015b81610135565b92915050565b60008060408385031215610178576101776100fe565b5b60006101868582860161014c565b92505060206101978582860161014c565b9150509250929050565b610d5a80620001b16000396000f3fe608060405234801561001057600080fd5b506004361061002b5760003560e01c80631d6456c414610030575b600080fd5b61004a60048036038101906100459190610a02565b61004c565b005b6000600260009054906101000a900473ffffffffffffffffffffffffffffffffffffffff1673ffffffffffffffffffffffffffffffffffffffff166370a08231336040518263ffffffff1660e01b81526004016100a99190610a78565b602060405180830381865afa1580156100c6573d6000803e3d6000fd5b505050506040513d601f19601f820116820180604052508101906100ea9190610aa8565b1180156100f75750600082115b610136576040517f08c379a000000000000000000000000000000000000000000000000000000000815260040161012d90610b32565b60405180910390fd5b600073ffffffffffffffffffffffffffffffffffffffff168473ffffffffffffffffffffffffffffffffffffffff1614158061019f5750600073ffffffffffffffffffffffffffffffffffffffff168373ffffffffffffffffffffffffffffffffffffffff1614155b6101de576040517f08c379a00000000000000000000000000000000000000000000000000000000081526004016101d590610bc4565b60405180910390fd5b600073ffffffffffffffffffffffffffffffffffffffff168473ffffffffffffffffffffffffffffffffffffffff161480156102475750600073ffffffffffffffffffffffffffffffffffffffff168373ffffffffffffffffffffffffffffffffffffffff1614155b801561027e57503373ffffffffffffffffffffffffffffffffffffffff168373ffffffffffffffffffffffffffffffffffffffff16145b15610601576005600260009054906101000a900473ffffffffffffffffffffffffffffffffffffffff1673ffffffffffffffffffffffffffffffffffffffff166370a08231336040518263ffffffff1660e01b81526004016102e09190610a78565b602060405180830381865afa1580156102fd573d6000803e3d6000fd5b505050506040513d601f19601f820116820180604052508101906103219190610aa8565b11610361576040517f08c379a000000000000000000000000000000000000000000000000000000000815260040161035890610c30565b60405180910390fd5b600260009054906101000a900473ffffffffffffffffffffffffffffffffffffffff1673ffffffffffffffffffffffffffffffffffffffff166323b872dd303360056040518463ffffffff1660e01b81526004016103c193929190610c5f565b6020604051808303816000875af11580156103e0573d6000803e3d6000fd5b505050506040513d601f19601f820116820180604052508101906104049190610cce565b50600460009054906101000a900473ffffffffffffffffffffffffffffffffffffffff1673ffffffffffffffffffffffffffffffffffffffff166389ae77a86040518163ffffffff1660e01b81526004016020604051808303816000875af1158015610474573d6000803e3d6000fd5b505050506040513d601f19601f820116820180604052508101906104989190610aa8565b506104a36000610945565b600160006104b1600061095b565b81526020019081526020016000206040518060800160405280600360009054906101000a900473ffffffffffffffffffffffffffffffffffffffff1673ffffffffffffffffffffffffffffffffffffffff1681526020018573ffffffffffffffffffffffffffffffffffffffff1681526020016005815260200142815250908060018154018082558091505060019003906000526020600020906004020160009091909190915060008201518160000160006101000a81548173ffffffffffffffffffffffffffffffffffffffff021916908373ffffffffffffffffffffffffffffffffffffffff16021790555060208201518160010160006101000a81548173ffffffffffffffffffffffffffffffffffffffff021916908373ffffffffffffffffffffffffffffffffffffffff1602179055506040820151816002015560608201518160030155505061093f565b81600260009054906101000a900473ffffffffffffffffffffffffffffffffffffffff1673ffffffffffffffffffffffffffffffffffffffff166370a08231856040518263ffffffff1660e01b815260040161065d9190610a78565b602060405180830381865afa15801561067a573d6000803e3d6000fd5b505050506040513d601f19601f8201168201806040525081019061069e9190610aa8565b116106de576040517f08c379a00000000000000000000000000000000000000000000000000000000081526004016106d590610c30565b60405180910390fd5b600260009054906101000a900473ffffffffffffffffffffffffffffffffffffffff1673ffffffffffffffffffffffffffffffffffffffff166323b872dd8585856040518463ffffffff1660e01b815260040161073d93929190610c5f565b6020604051808303816000875af115801561075c573d6000803e3d6000fd5b505050506040513d601f19601f820116820180604052508101906107809190610cce565b50600460009054906101000a900473ffffffffffffffffffffffffffffffffffffffff1673ffffffffffffffffffffffffffffffffffffffff16636205983982856040518363ffffffff1660e01b81526004016107de929190610cfb565b600060405180830381600087803b1580156107f857600080fd5b505af115801561080c573d6000803e3d6000fd5b505050506001600082815260200190815260200160002060405180608001604052808673ffffffffffffffffffffffffffffffffffffffff1681526020018573ffffffffffffffffffffffffffffffffffffffff1681526020016005815260200142815250908060018154018082558091505060019003906000526020600020906004020160009091909190915060008201518160000160006101000a81548173ffffffffffffffffffffffffffffffffffffffff021916908373ffffffffffffffffffffffffffffffffffffffff16021790555060208201518160010160006101000a81548173ffffffffffffffffffffffffffffffffffffffff021916908373ffffffffffffffffffffffffffffffffffffffff160217905550604082015181600201556060820151816003015550505b50505050565b6001816000016000828254019250508190555050565b600081600001549050919050565b600080fd5b600073ffffffffffffffffffffffffffffffffffffffff82169050919050565b60006109998261096e565b9050919050565b6109a98161098e565b81146109b457600080fd5b50565b6000813590506109c6816109a0565b92915050565b6000819050919050565b6109df816109cc565b81146109ea57600080fd5b50565b6000813590506109fc816109d6565b92915050565b60008060008060808587031215610a1c57610a1b610969565b5b6000610a2a878288016109b7565b9450506020610a3b878288016109b7565b9350506040610a4c878288016109ed565b9250506060610a5d878288016109ed565b91505092959194509250565b610a728161098e565b82525050565b6000602082019050610a8d6000830184610a69565b92915050565b600081519050610aa2816109d6565b92915050565b600060208284031215610abe57610abd610969565b5b6000610acc84828501610a93565b91505092915050565b600082825260208201905092915050565b7f616d6f756e742073686f756c64206265206d6f7265207468616e203000000000600082015250565b6000610b1c601c83610ad5565b9150610b2782610ae6565b602082019050919050565b60006020820190508181036000830152610b4b81610b0f565b9050919050565b7f426f746820616464726573732063616e6e6f742062652061646472657373283060008201527f2900000000000000000000000000000000000000000000000000000000000000602082015250565b6000610bae602183610ad5565b9150610bb982610b52565b604082019050919050565b60006020820190508181036000830152610bdd81610ba1565b9050919050565b7f4c455353205448414e204d494e494d554d20414d4f554e540000000000000000600082015250565b6000610c1a601883610ad5565b9150610c2582610be4565b602082019050919050565b60006020820190508181036000830152610c4981610c0d565b9050919050565b610c59816109cc565b82525050565b6000606082019050610c746000830186610a69565b610c816020830185610a69565b610c8e6040830184610c50565b949350505050565b60008115159050919050565b610cab81610c96565b8114610cb657600080fd5b50565b600081519050610cc881610ca2565b92915050565b600060208284031215610ce457610ce3610969565b5b6000610cf284828501610cb9565b91505092915050565b6000604082019050610d106000830185610c50565b610d1d6020830184610a69565b939250505056fea2646970667358221220442664bb7a069b22b3be3830b6036dcf7373d7dd48f221c3b82793a7232c0c6464736f6c63430008100033",
  "immutableReferences": {},
  "source": "pragma solidity ^0.8.16;\r\n\r\nimport \"@openzeppelin/contracts/token/ERC20/ERC20.sol\";\r\nimport \"@openzeppelin/contracts/utils/Counters.sol\";\r\nimport \"./AnimalNFT.sol\";\r\nimport \"./SsafyToken.sol\";\r\n/*\r\n*   Contracts\r\n* \r\n*\r\n*/\r\n\r\ncontract NFTSale {\r\n    using Counters for Counters.Counter;\r\n\r\n    event TransactionCreated(uint256 indexed transactionId, address transactionAddress);\r\n    \r\n    // \r\n    struct TransactionHistory {\r\n        address from; //\r\n        address to; //\r\n        uint256 price; //( wei  SSF)\r\n        uint256 date; //UNIX TIME STAMP   \r\n    }\r\n\r\n    //  ID\r\n    Counters.Counter private _transactionId;\r\n    \r\n    // (struct):  /      \r\n    mapping(uint256 => TransactionHistory[]) private _transactionHistories;\r\n    \r\n    //PRIVATE  Contract - ERC20\r\n    IERC20 private _originalContract;\r\n\r\n    // PRIVATE  ERC-20   \r\n    address private _originalContractAddress;\r\n    // PRIVATE  MyTicket(ERC-721)   \r\n    address private _animalNFTContractAddress;    \r\n    \r\n    uint256 private constant MINIMUM = 5;\r\n    /*\r\n    * constructor\r\n    *    \r\n    * @dev address currencyContractAddress ERC-20   \r\n    * @dev address ticketContractAddress MyTicket(ERC-721)   \r\n    */\r\n    constructor(address originalContractAddress, address animalNFTContractAddress) {\r\n        _originalContractAddress = originalContractAddress;\r\n        _animalNFTContractAddress = animalNFTContractAddress;\r\n        _originalContract = IERC20(originalContractAddress);\r\n    }\r\n\r\n    /*\r\n    * transfer\r\n    *  \r\n    * from, to, amount   \r\n    */\r\n    function _transfer(\r\n            address from,\r\n            address to,\r\n            uint256 amount,\r\n            uint256 tokenId\r\n        ) public {\r\n        \r\n        // \r\n        require(_originalContract.balanceOf(msg.sender) > 0 && amount > 0, \"amount should be more than 0\");\r\n        require(from != address(0) || to != address(0), \"Both address cannot be address(0)\");\r\n\r\n        //   \r\n        if(from == address(0) && to != address(0) && to == msg.sender)\r\n        {   \r\n            require(_originalContract.balanceOf(msg.sender) > MINIMUM, \"LESS THAN MINIMUM AMOUNT\");\r\n            _originalContract.transferFrom(address(this), msg.sender, MINIMUM); //  \r\n            AnimalNFT(_animalNFTContractAddress)._createAnimalNFT(); // msg.sender \r\n            _transactionId.increment();\r\n            _transactionHistories[_transactionId.current()].push(TransactionHistory(_originalContractAddress, to, MINIMUM, block.timestamp)); //  \r\n        }\r\n        else //   \r\n        {  \r\n            require(_originalContract.balanceOf(to) > amount, \"LESS THAN MINIMUM AMOUNT\");\r\n            _originalContract.transferFrom(from, to, amount); //  \r\n            AnimalNFT(_animalNFTContractAddress)._setOwner(tokenId, to);\r\n            _transactionHistories[tokenId].push(TransactionHistory(from, to, MINIMUM, block.timestamp)); //  \r\n        }\r\n\r\n        \r\n        }\r\n        \r\n}",
  "sourcePath": "C:\\Users\\multicampus\\project\\S07P21D103\\solidity\\truffle\\contracts\\NFTSale.sol",
  "compiler": {
    "name": "solc",
    "version": "0.8.16+commit.07a7930e.Emscripten.clang"
  },
  "schemaVersion": "3.4.9",
  "updatedAt": "2022-09-04T07:21:51.761Z",
  "devdoc": {
    "kind": "dev",
    "methods": {},
    "version": 1
  },
  "userdoc": {
    "kind": "user",
    "methods": {},
    "version": 1
  }
}