{
  "contractName": "NftSale",
  "abi": [
    {
      "inputs": [
        {
          "internalType": "address",
          "name": "currencyContractAddress",
          "type": "address"
        },
        {
          "internalType": "address",
          "name": "animalNftContractAddress",
          "type": "address"
        },
        {
          "internalType": "uint256",
          "name": "animalId",
          "type": "uint256"
        },
        {
          "internalType": "address",
          "name": "seller",
          "type": "address"
        },
        {
          "internalType": "uint256",
          "name": "price",
          "type": "uint256"
        },
        {
          "internalType": "uint256",
          "name": "startedAt",
          "type": "uint256"
        },
        {
          "internalType": "uint256",
          "name": "endedAt",
          "type": "uint256"
        }
      ],
      "stateMutability": "nonpayable",
      "type": "constructor"
    },
    {
      "anonymous": false,
      "inputs": [
        {
          "indexed": true,
          "internalType": "uint256",
          "name": "animalId",
          "type": "uint256"
        }
      ],
      "name": "Closed",
      "type": "event"
    },
    {
      "anonymous": false,
      "inputs": [
        {
          "indexed": true,
          "internalType": "address",
          "name": "previousOwner",
          "type": "address"
        },
        {
          "indexed": true,
          "internalType": "address",
          "name": "newOwner",
          "type": "address"
        }
      ],
      "name": "OwnershipTransferred",
      "type": "event"
    },
    {
      "anonymous": false,
      "inputs": [
        {
          "indexed": true,
          "internalType": "uint256",
          "name": "animalId",
          "type": "uint256"
        },
        {
          "indexed": false,
          "internalType": "address",
          "name": "seller",
          "type": "address"
        },
        {
          "indexed": false,
          "internalType": "address",
          "name": "buyer",
          "type": "address"
        }
      ],
      "name": "Purchase",
      "type": "event"
    },
    {
      "inputs": [],
      "name": "owner",
      "outputs": [
        {
          "internalType": "address",
          "name": "",
          "type": "address"
        }
      ],
      "stateMutability": "view",
      "type": "function"
    },
    {
      "inputs": [],
      "name": "renounceOwnership",
      "outputs": [],
      "stateMutability": "nonpayable",
      "type": "function"
    },
    {
      "inputs": [
        {
          "internalType": "address",
          "name": "newOwner",
          "type": "address"
        }
      ],
      "name": "transferOwnership",
      "outputs": [],
      "stateMutability": "nonpayable",
      "type": "function"
    },
    {
      "inputs": [],
      "name": "balanceOf",
      "outputs": [
        {
          "internalType": "uint256",
          "name": "",
          "type": "uint256"
        }
      ],
      "stateMutability": "view",
      "type": "function"
    },
    {
      "inputs": [],
      "name": "animalIdof",
      "outputs": [
        {
          "internalType": "address",
          "name": "",
          "type": "address"
        }
      ],
      "stateMutability": "view",
      "type": "function"
    },
    {
      "inputs": [
        {
          "internalType": "uint256",
          "name": "price1",
          "type": "uint256"
        }
      ],
      "name": "purchase",
      "outputs": [],
      "stateMutability": "payable",
      "type": "function"
    }
  ],
  "bytecode": "0x60806040523480156200001157600080fd5b506040516200111538038062001115833981810160405281019062000037919062000395565b620000576200004b6200022460201b60201c565b6200022c60201b60201c565b86600660016101000a81548173ffffffffffffffffffffffffffffffffffffffff021916908373ffffffffffffffffffffffffffffffffffffffff160217905550600660019054906101000a900473ffffffffffffffffffffffffffffffffffffffff16600760006101000a81548173ffffffffffffffffffffffffffffffffffffffff021916908373ffffffffffffffffffffffffffffffffffffffff16021790555085600860006101000a81548173ffffffffffffffffffffffffffffffffffffffff021916908373ffffffffffffffffffffffffffffffffffffffff160217905550600860009054906101000a900473ffffffffffffffffffffffffffffffffffffffff16600960006101000a81548173ffffffffffffffffffffffffffffffffffffffff021916908373ffffffffffffffffffffffffffffffffffffffff1602179055508460018190555083600260006101000a81548173ffffffffffffffffffffffffffffffffffffffff021916908373ffffffffffffffffffffffffffffffffffffffff1602179055508260038190555081600481905550806005819055506000600660006101000a81548160ff0219169083151502179055505050505050505062000448565b600033905090565b60008060009054906101000a900473ffffffffffffffffffffffffffffffffffffffff169050816000806101000a81548173ffffffffffffffffffffffffffffffffffffffff021916908373ffffffffffffffffffffffffffffffffffffffff1602179055508173ffffffffffffffffffffffffffffffffffffffff168173ffffffffffffffffffffffffffffffffffffffff167f8be0079c531659141344cd1fd0a4f28419497f9722a3daafe3b4186f6b6457e060405160405180910390a35050565b600080fd5b600073ffffffffffffffffffffffffffffffffffffffff82169050919050565b60006200032282620002f5565b9050919050565b620003348162000315565b81146200034057600080fd5b50565b600081519050620003548162000329565b92915050565b6000819050919050565b6200036f816200035a565b81146200037b57600080fd5b50565b6000815190506200038f8162000364565b92915050565b600080600080600080600060e0888a031215620003b757620003b6620002f0565b5b6000620003c78a828b0162000343565b9750506020620003da8a828b0162000343565b9650506040620003ed8a828b016200037e565b9550506060620004008a828b0162000343565b9450506080620004138a828b016200037e565b93505060a0620004268a828b016200037e565b92505060c0620004398a828b016200037e565b91505092959891949750929550565b610cbd80620004586000396000f3fe6080604052600436106100555760003560e01c80634f1371ac1461005a578063715018a614610085578063722713f71461009c5780638da5cb5b146100c7578063efef39a1146100f2578063f2fde38b1461010e575b600080fd5b34801561006657600080fd5b5061006f610137565b60405161007c9190610851565b60405180910390f35b34801561009157600080fd5b5061009a6101dc565b005b3480156100a857600080fd5b506100b16101f0565b6040516100be9190610885565b60405180910390f35b3480156100d357600080fd5b506100dc610293565b6040516100e99190610851565b60405180910390f35b61010c600480360381019061010791906108d1565b6102bc565b005b34801561011a57600080fd5b506101356004803603810190610130919061092a565b6105f7565b005b6000600960009054906101000a900473ffffffffffffffffffffffffffffffffffffffff1673ffffffffffffffffffffffffffffffffffffffff16636352211e6001546040518263ffffffff1660e01b81526004016101969190610885565b602060405180830381865afa1580156101b3573d6000803e3d6000fd5b505050506040513d601f19601f820116820180604052508101906101d7919061096c565b905090565b6101e461067a565b6101ee60006106f8565b565b6000600760009054906101000a900473ffffffffffffffffffffffffffffffffffffffff1673ffffffffffffffffffffffffffffffffffffffff166370a08231336040518263ffffffff1660e01b815260040161024d9190610851565b602060405180830381865afa15801561026a573d6000803e3d6000fd5b505050506040513d601f19601f8201168201806040525081019061028e91906109ae565b905090565b60008060009054906101000a900473ffffffffffffffffffffffffffffffffffffffff16905090565b600260009054906101000a900473ffffffffffffffffffffffffffffffffffffffff1673ffffffffffffffffffffffffffffffffffffffff16600960009054906101000a900473ffffffffffffffffffffffffffffffffffffffff1673ffffffffffffffffffffffffffffffffffffffff16636352211e6001546040518263ffffffff1660e01b81526004016103529190610885565b602060405180830381865afa15801561036f573d6000803e3d6000fd5b505050506040513d601f19601f82011682018060405250810190610393919061096c565b73ffffffffffffffffffffffffffffffffffffffff16146103e9576040517f08c379a00000000000000000000000000000000000000000000000000000000081526004016103e090610a38565b60405180910390fd5b600354600760009054906101000a900473ffffffffffffffffffffffffffffffffffffffff1673ffffffffffffffffffffffffffffffffffffffff166370a08231336040518263ffffffff1660e01b81526004016104479190610851565b602060405180830381865afa158015610464573d6000803e3d6000fd5b505050506040513d601f19601f8201168201806040525081019061048891906109ae565b10156104c9576040517f08c379a00000000000000000000000000000000000000000000000000000000081526004016104c090610aa4565b60405180910390fd5b600760009054906101000a900473ffffffffffffffffffffffffffffffffffffffff1673ffffffffffffffffffffffffffffffffffffffff166323b872dd33600260009054906101000a900473ffffffffffffffffffffffffffffffffffffffff16846040518463ffffffff1660e01b815260040161054a93929190610ac4565b6020604051808303816000875af1158015610569573d6000803e3d6000fd5b505050506040513d601f19601f8201168201806040525081019061058d9190610b33565b506001547f2d9abaed896ece5f9f4f4484ce756b21c297e5aa6739114910fc097c750f27a5600260009054906101000a900473ffffffffffffffffffffffffffffffffffffffff16336040516105e4929190610b60565b60405180910390a26105f46107bc565b50565b6105ff61067a565b600073ffffffffffffffffffffffffffffffffffffffff168173ffffffffffffffffffffffffffffffffffffffff160361066e576040517f08c379a000000000000000000000000000000000000000000000000000000000815260040161066590610bfb565b60405180910390fd5b610677816106f8565b50565b610682610808565b73ffffffffffffffffffffffffffffffffffffffff166106a0610293565b73ffffffffffffffffffffffffffffffffffffffff16146106f6576040517f08c379a00000000000000000000000000000000000000000000000000000000081526004016106ed90610c67565b60405180910390fd5b565b60008060009054906101000a900473ffffffffffffffffffffffffffffffffffffffff169050816000806101000a81548173ffffffffffffffffffffffffffffffffffffffff021916908373ffffffffffffffffffffffffffffffffffffffff1602179055508173ffffffffffffffffffffffffffffffffffffffff168173ffffffffffffffffffffffffffffffffffffffff167f8be0079c531659141344cd1fd0a4f28419497f9722a3daafe3b4186f6b6457e060405160405180910390a35050565b6001600660006101000a81548160ff0219169083151502179055506001547f6cc09e7b5c3e49861ebe8f6867e1618fbfc14c8d0e968fde37c4243ca02a6f8360405160405180910390a2565b600033905090565b600073ffffffffffffffffffffffffffffffffffffffff82169050919050565b600061083b82610810565b9050919050565b61084b81610830565b82525050565b60006020820190506108666000830184610842565b92915050565b6000819050919050565b61087f8161086c565b82525050565b600060208201905061089a6000830184610876565b92915050565b600080fd5b6108ae8161086c565b81146108b957600080fd5b50565b6000813590506108cb816108a5565b92915050565b6000602082840312156108e7576108e66108a0565b5b60006108f5848285016108bc565b91505092915050565b61090781610830565b811461091257600080fd5b50565b600081359050610924816108fe565b92915050565b6000602082840312156109405761093f6108a0565b5b600061094e84828501610915565b91505092915050565b600081519050610966816108fe565b92915050565b600060208284031215610982576109816108a0565b5b600061099084828501610957565b91505092915050565b6000815190506109a8816108a5565b92915050565b6000602082840312156109c4576109c36108a0565b5b60006109d284828501610999565b91505092915050565b600082825260208201905092915050565b7f73656c6c6572206973206e6f74206f776e657200000000000000000000000000600082015250565b6000610a226013836109db565b9150610a2d826109ec565b602082019050919050565b60006020820190508181036000830152610a5181610a15565b9050919050565b7f62616c616e636520697320657868617573746564000000000000000000000000600082015250565b6000610a8e6014836109db565b9150610a9982610a58565b602082019050919050565b60006020820190508181036000830152610abd81610a81565b9050919050565b6000606082019050610ad96000830186610842565b610ae66020830185610842565b610af36040830184610876565b949350505050565b60008115159050919050565b610b1081610afb565b8114610b1b57600080fd5b50565b600081519050610b2d81610b07565b92915050565b600060208284031215610b4957610b486108a0565b5b6000610b5784828501610b1e565b91505092915050565b6000604082019050610b756000830185610842565b610b826020830184610842565b9392505050565b7f4f776e61626c653a206e6577206f776e657220697320746865207a65726f206160008201527f6464726573730000000000000000000000000000000000000000000000000000602082015250565b6000610be56026836109db565b9150610bf082610b89565b604082019050919050565b60006020820190508181036000830152610c1481610bd8565b9050919050565b7f4f776e61626c653a2063616c6c6572206973206e6f7420746865206f776e6572600082015250565b6000610c516020836109db565b9150610c5c82610c1b565b602082019050919050565b60006020820190508181036000830152610c8081610c44565b905091905056fea2646970667358221220b4af1eb4eaf63a8fc77bffde63e04a443874ad025ec945f1f4376c76cb9dd54b64736f6c63430008100033",
  "immutableReferences": {},
  "source": "// SPDX-License-Identifier: MIT\r\npragma solidity ^0.8.4;\r\n\r\nimport \"@openzeppelin/contracts/token/ERC20/ERC20.sol\";\r\nimport \"@openzeppelin/contracts/access/Ownable.sol\";\r\nimport \"@openzeppelin/contracts/utils/Counters.sol\";\r\nimport \"@openzeppelin/contracts/utils/math/SafeMath.sol\";\r\n\r\nimport \"./AnimalNft.sol\";\r\n/*\r\n*    Contracts\r\n*     \r\n* @author\r\n* @version\r\n*/\r\n\r\ncontract NftSale is Ownable {\r\n    using SafeMath for uint256;\r\n\r\n    event Purchase(uint256 indexed animalId, address seller, address buyer);\r\n    event Closed(uint256 indexed animalId);\r\n    \r\n    /*\r\n          \r\n    */\r\n    //  ID\r\n    uint256 private _animalId;\r\n    //  \r\n    address private _seller; \r\n    //( wei  SSF)\r\n    uint256 private _price;\r\n    //UNIX TIME STAMP   \r\n    uint256 private _startedAt;\r\n    //UNIX TIME STAMP   \r\n    uint256 private _endedAt;\r\n    //  \r\n    bool private _isClosed;\r\n\r\n    /* \r\n           \r\n    */\r\n\r\n    // PRIVATE  Contract(ERC20) \r\n    address private _currencyContractAddress;\r\n    // ERC20 \r\n    IERC20 private _currencyContract;\r\n    // PRIVATE  NftContract(ERC-721)\r\n    address private _animalNftContractAddress;\r\n    // PRIVATE  AnimalNft(ERC-721) \r\n    AnimalNft private _animalNftContract;\r\n    \r\n    \r\n    /*\r\n    * constructor\r\n    *    \r\n    * @param address currencyContractAddress ERC-20   \r\n    * @param address animalNftContractAddress AnimalNft(ERC-721)   \r\n    * @param uint256 animalId   ID\r\n    * @param address seller  \r\n    * @param uint256 price  \r\n    * @param uint256 startedAt UNIX TIMESTAMP  \r\n    * @param uint256 endedAt UNIX TIMESTAMP  \r\n    */\r\n    constructor(\r\n        address currencyContractAddress,\r\n        address animalNftContractAddress,\r\n        uint256 animalId,\r\n        address seller,\r\n        uint256 price,\r\n        uint256 startedAt,\r\n        uint256 endedAt\r\n    ) {\r\n        _currencyContractAddress = currencyContractAddress;\r\n        _currencyContract = IERC20(_currencyContractAddress);\r\n        _animalNftContractAddress = animalNftContractAddress;\r\n        _animalNftContract = AnimalNft(_animalNftContractAddress);\r\n\r\n        _animalId = animalId;\r\n        _seller = seller;\r\n        _price = price;\r\n        _startedAt = startedAt;\r\n        _endedAt = endedAt;\r\n        _isClosed = false;\r\n    }\r\n\r\n    /*\r\n    * closed\r\n    *  /  \r\n    *      \r\n    *\r\n    * @ param None\r\n    * @ return None\r\n    * @ exception None\r\n    */\r\n    function closed() private {\r\n        _isClosed = true;\r\n        emit Closed(_animalId);\r\n    }\r\n\r\n    /*\r\n    * balanceOf\r\n    *    ERC-20   \r\n    *\r\n    * @ param None\r\n    * @ return uint256    ERC-20  \r\n    * @ exception None\r\n    */\r\n    function balanceOf() public view returns(uint256) {\r\n        return _currencyContract.balanceOf(msg.sender);\r\n        \r\n    }\r\n    function animalIdof() public view returns(address) {\r\n        return _animalNftContract.ownerOf(_animalId);\r\n    }\r\n\r\n    /*\r\n    * purchase\r\n    *    ,\r\n    *      AnimalNft(ERC-721)  \r\n    *        ERC-20  \r\n    * @ modifier ActiveSale     \r\n    * @ param None\r\n    * @ return None\r\n    * @ exception   (, ,  )   \r\n    * @ exception     \r\n    * @ exception         \r\n    */\r\n    function purchase(uint price1) public payable\r\n    //ActiveSale\r\n     {\r\n\r\n        //    \r\n        require(_animalNftContract.ownerOf(_animalId) == _seller, \"seller is not owner\");\r\n\r\n        //     \r\n        require(_currencyContract.balanceOf(msg.sender) >= _price, \"balance is exhausted\");\r\n\r\n\r\n\r\n        /*\r\n        [ => ]\r\n            \r\n            1. safeTransferFrom \r\n            2. _isApprovedOrOwner(_msgSender(), tokenId) \r\n            3. _transfer  -> ERC-721   \r\n            4.    ERC-721 Receiver (  )\r\n        */\r\n      //  _animalNftContract.safeTransferFrom(_seller, msg.sender, _animalId); //     \r\n\r\n        /* \r\n        [ => ]\r\n           \r\n        */\r\n\r\n        \r\n      //  _currencyContract.approve(msg.sender,_price);\r\n        _currencyContract.transferFrom(msg.sender, _seller, price1);\r\n        // _currencyContract.approve(address(this), _price);\r\n        // _currencyContract.transferFrom(address(this), _seller, _price);\r\n \r\n        emit Purchase(_animalId, _seller, msg.sender);\r\n\r\n        //    \r\n        closed();\r\n    }\r\n\r\n    // IERC721Receiver interface    .\r\n    // function onERC721Received(\r\n    //     address operator,\r\n    //     address from,\r\n    //     uint256 tokenId,\r\n    //     bytes calldata data\r\n    // ) external pure override returns (bytes4) {\r\n    //     return this.onERC721Received.selector;\r\n    // }\r\n\r\n    modifier ActiveSale() {\r\n        require(_startedAt < block.timestamp, \"This sale is not started yet\");\r\n        require(_endedAt > block.timestamp, \"This sale is already ended\");\r\n        require(!_isClosed);\r\n        _;\r\n    }\r\n}\r\n",
  "sourcePath": "C:\\Users\\multicampus\\Documents\\Dev\\Git\\S07P22D103\\smart-contract\\src\\contracts\\NftSale.sol",
  "compiler": {
    "name": "solc",
    "version": "0.8.16+commit.07a7930e.Emscripten.clang"
  },
  "schemaVersion": "3.4.9",
  "updatedAt": "2022-09-07T02:21:51.987Z",
  "devdoc": {
    "kind": "dev",
    "methods": {
      "owner()": {
        "details": "Returns the address of the current owner."
      },
      "renounceOwnership()": {
        "details": "Leaves the contract without owner. It will not be possible to call `onlyOwner` functions anymore. Can only be called by the current owner. NOTE: Renouncing ownership will leave the contract without an owner, thereby removing any functionality that is only available to the owner."
      },
      "transferOwnership(address)": {
        "details": "Transfers ownership of the contract to a new account (`newOwner`). Can only be called by the current owner."
      }
    },
    "version": 1
  },
  "userdoc": {
    "kind": "user",
    "methods": {},
    "version": 1
  }
}