{
  "contractName": "NftTradeManager",
  "abi": [
    {
      "inputs": [
        {
          "internalType": "address",
          "name": "currencyAddress",
          "type": "address"
        },
        {
          "internalType": "address",
          "name": "animalNftAddress",
          "type": "address"
        }
      ],
      "stateMutability": "nonpayable",
      "type": "constructor"
    },
    {
      "anonymous": false,
      "inputs": [
        {
          "indexed": true,
          "internalType": "address",
          "name": "previousOwner",
          "type": "address"
        },
        {
          "indexed": true,
          "internalType": "address",
          "name": "newOwner",
          "type": "address"
        }
      ],
      "name": "OwnershipTransferred",
      "type": "event"
    },
    {
      "anonymous": false,
      "inputs": [
        {
          "indexed": true,
          "internalType": "uint256",
          "name": "saleId",
          "type": "uint256"
        },
        {
          "indexed": false,
          "internalType": "address",
          "name": "saleAddr",
          "type": "address"
        },
        {
          "indexed": false,
          "internalType": "uint256",
          "name": "ticketId",
          "type": "uint256"
        }
      ],
      "name": "SaleCreated",
      "type": "event"
    },
    {
      "anonymous": false,
      "inputs": [
        {
          "indexed": true,
          "internalType": "address",
          "name": "to",
          "type": "address"
        },
        {
          "indexed": false,
          "internalType": "uint256",
          "name": "amount",
          "type": "uint256"
        }
      ],
      "name": "Withdrawal",
      "type": "event"
    },
    {
      "inputs": [],
      "name": "owner",
      "outputs": [
        {
          "internalType": "address",
          "name": "",
          "type": "address"
        }
      ],
      "stateMutability": "view",
      "type": "function",
      "constant": true
    },
    {
      "inputs": [],
      "name": "renounceOwnership",
      "outputs": [],
      "stateMutability": "nonpayable",
      "type": "function"
    },
    {
      "inputs": [
        {
          "internalType": "address",
          "name": "newOwner",
          "type": "address"
        }
      ],
      "name": "transferOwnership",
      "outputs": [],
      "stateMutability": "nonpayable",
      "type": "function"
    },
    {
      "inputs": [
        {
          "internalType": "uint256",
          "name": "animalId",
          "type": "uint256"
        },
        {
          "internalType": "uint256",
          "name": "price",
          "type": "uint256"
        },
        {
          "internalType": "uint256",
          "name": "startedAt",
          "type": "uint256"
        },
        {
          "internalType": "uint256",
          "name": "endedAt",
          "type": "uint256"
        }
      ],
      "name": "createSale",
      "outputs": [],
      "stateMutability": "nonpayable",
      "type": "function"
    },
    {
      "inputs": [
        {
          "internalType": "uint256",
          "name": "mintedAt",
          "type": "uint256"
        }
      ],
      "name": "createDonate",
      "outputs": [
        {
          "internalType": "uint256",
          "name": "",
          "type": "uint256"
        }
      ],
      "stateMutability": "nonpayable",
      "type": "function"
    },
    {
      "inputs": [
        {
          "internalType": "uint256",
          "name": "mintedAt",
          "type": "uint256"
        }
      ],
      "name": "createFree",
      "outputs": [
        {
          "internalType": "uint256",
          "name": "",
          "type": "uint256"
        }
      ],
      "stateMutability": "nonpayable",
      "type": "function"
    },
    {
      "inputs": [
        {
          "internalType": "uint256",
          "name": "saleId",
          "type": "uint256"
        }
      ],
      "name": "ownerOfSale",
      "outputs": [
        {
          "internalType": "address",
          "name": "",
          "type": "address"
        }
      ],
      "stateMutability": "view",
      "type": "function",
      "constant": true
    },
    {
      "inputs": [
        {
          "internalType": "uint256",
          "name": "donateId",
          "type": "uint256"
        }
      ],
      "name": "ownerOfDonate",
      "outputs": [
        {
          "internalType": "address",
          "name": "",
          "type": "address"
        }
      ],
      "stateMutability": "view",
      "type": "function",
      "constant": true
    },
    {
      "inputs": [
        {
          "internalType": "uint256",
          "name": "saleId",
          "type": "uint256"
        }
      ],
      "name": "getSaleAddress",
      "outputs": [
        {
          "internalType": "address",
          "name": "",
          "type": "address"
        }
      ],
      "stateMutability": "view",
      "type": "function",
      "constant": true
    },
    {
      "inputs": [
        {
          "internalType": "uint256",
          "name": "donateId",
          "type": "uint256"
        }
      ],
      "name": "getDonateAddress",
      "outputs": [
        {
          "internalType": "address",
          "name": "",
          "type": "address"
        }
      ],
      "stateMutability": "view",
      "type": "function",
      "constant": true
    },
    {
      "inputs": [],
      "name": "getCountSales",
      "outputs": [
        {
          "internalType": "uint256",
          "name": "",
          "type": "uint256"
        }
      ],
      "stateMutability": "view",
      "type": "function",
      "constant": true
    },
    {
      "inputs": [],
      "name": "getCountDonates",
      "outputs": [
        {
          "internalType": "uint256",
          "name": "",
          "type": "uint256"
        }
      ],
      "stateMutability": "view",
      "type": "function",
      "constant": true
    },
    {
      "inputs": [],
      "name": "getCountFrees",
      "outputs": [
        {
          "internalType": "uint256",
          "name": "",
          "type": "uint256"
        }
      ],
      "stateMutability": "view",
      "type": "function",
      "constant": true
    },
    {
      "inputs": [
        {
          "internalType": "uint256",
          "name": "animalId",
          "type": "uint256"
        }
      ],
      "name": "getSalesOfAnimal",
      "outputs": [
        {
          "internalType": "uint256[]",
          "name": "",
          "type": "uint256[]"
        }
      ],
      "stateMutability": "view",
      "type": "function",
      "constant": true
    },
    {
      "inputs": [
        {
          "internalType": "uint256",
          "name": "animalId",
          "type": "uint256"
        }
      ],
      "name": "getDonatesOfAnimal",
      "outputs": [
        {
          "internalType": "uint256[]",
          "name": "",
          "type": "uint256[]"
        }
      ],
      "stateMutability": "view",
      "type": "function",
      "constant": true
    },
    {
      "inputs": [
        {
          "internalType": "address",
          "name": "walletAddr",
          "type": "address"
        }
      ],
      "name": "getSaleIdsByWallet",
      "outputs": [
        {
          "internalType": "uint256[]",
          "name": "",
          "type": "uint256[]"
        }
      ],
      "stateMutability": "view",
      "type": "function",
      "constant": true
    },
    {
      "inputs": [
        {
          "internalType": "address",
          "name": "walletAddr",
          "type": "address"
        }
      ],
      "name": "getDonateIdsByWallet",
      "outputs": [
        {
          "internalType": "uint256[]",
          "name": "",
          "type": "uint256[]"
        }
      ],
      "stateMutability": "view",
      "type": "function",
      "constant": true
    }
  ],
  "bytecode": "0x60806040523480156200001157600080fd5b506040516200474e3803806200474e8339818101604052810190620000379190620002dd565b620000576200004b620001a760201b60201c565b620001af60201b60201c565b81600b60006101000a81548173ffffffffffffffffffffffffffffffffffffffff021916908373ffffffffffffffffffffffffffffffffffffffff16021790555080600d60006101000a81548173ffffffffffffffffffffffffffffffffffffffff021916908373ffffffffffffffffffffffffffffffffffffffff160217905550600b60009054906101000a900473ffffffffffffffffffffffffffffffffffffffff16600c60006101000a81548173ffffffffffffffffffffffffffffffffffffffff021916908373ffffffffffffffffffffffffffffffffffffffff160217905550600d60009054906101000a900473ffffffffffffffffffffffffffffffffffffffff16600e60006101000a81548173ffffffffffffffffffffffffffffffffffffffff021916908373ffffffffffffffffffffffffffffffffffffffff160217905550505062000324565b600033905090565b60008060009054906101000a900473ffffffffffffffffffffffffffffffffffffffff169050816000806101000a81548173ffffffffffffffffffffffffffffffffffffffff021916908373ffffffffffffffffffffffffffffffffffffffff1602179055508173ffffffffffffffffffffffffffffffffffffffff168173ffffffffffffffffffffffffffffffffffffffff167f8be0079c531659141344cd1fd0a4f28419497f9722a3daafe3b4186f6b6457e060405160405180910390a35050565b600080fd5b600073ffffffffffffffffffffffffffffffffffffffff82169050919050565b6000620002a58262000278565b9050919050565b620002b78162000298565b8114620002c357600080fd5b50565b600081519050620002d781620002ac565b92915050565b60008060408385031215620002f757620002f662000273565b5b60006200030785828601620002c6565b92505060206200031a85828601620002c6565b9150509250929050565b61441a80620003346000396000f3fe60806040523480156200001157600080fd5b5060043610620001245760003560e01c806378acc4a711620000b1578063d30758e7116200007b578063d30758e71462000335578063d7bb951f146200036b578063e7be394414620003a1578063f2fde38b14620003d7578063fe40c9cd14620003f75762000124565b806378acc4a714620002875780638da5cb5b14620002bd578063a52fb13a14620002df578063aa5735c414620002ff5762000124565b80635e8fbeed11620000f35780635e8fbeed14620001ed578063609604c31462000223578063715018a61462000245578063755ac98414620002515762000124565b80632711c04a14620001295780632a685130146200015f5780635928991614620001815780635e0cb35114620001b7575b600080fd5b6200014760048036038101906200014191906200132e565b62000419565b6040516200015691906200142e565b60405180910390f35b6200016962000486565b60405162000178919062001463565b60405180910390f35b6200019f6004803603810190620001999190620014e5565b62000499565b604051620001ae91906200142e565b60405180910390f35b620001d56004803603810190620001cf91906200132e565b62000532565b604051620001e4919062001528565b60405180910390f35b6200020b6004803603810190620002059190620014e5565b62000572565b6040516200021a91906200142e565b60405180910390f35b6200022d6200060b565b6040516200023c919062001463565b60405180910390f35b6200024f6200061e565b005b6200026f60048036038101906200026991906200132e565b62000636565b6040516200027e919062001463565b60405180910390f35b620002a560048036038101906200029f91906200132e565b620008e8565b604051620002b491906200142e565b60405180910390f35b620002c762000955565b604051620002d6919062001528565b60405180910390f35b620002fd6004803603810190620002f7919062001545565b6200097e565b005b6200031d60048036038101906200031791906200132e565b62000de0565b6040516200032c919062001528565b60405180910390f35b6200035360048036038101906200034d91906200132e565b62000e20565b60405162000362919062001463565b60405180910390f35b6200038960048036038101906200038391906200132e565b62001032565b60405162000398919062001528565b60405180910390f35b620003bf6004803603810190620003b991906200132e565b62001072565b604051620003ce919062001528565b60405180910390f35b620003f56004803603810190620003ef9190620014e5565b620010b2565b005b620004016200113c565b60405162000410919062001463565b60405180910390f35b6060600560008381526020019081526020016000208054806020026020016040519081016040528092919081815260200182805480156200047a57602002820191906000526020600020905b81548152602001906001019080831162000465575b50505050509050919050565b60006200049460036200114f565b905090565b6060600960008373ffffffffffffffffffffffffffffffffffffffff1673ffffffffffffffffffffffffffffffffffffffff1681526020019081526020016000208054806020026020016040519081016040528092919081815260200182805480156200052657602002820191906000526020600020905b81548152602001906001019080831162000511575b50505050509050919050565b60006007600083815260200190815260200160002060000160009054906101000a900473ffffffffffffffffffffffffffffffffffffffff169050919050565b6060600660008373ffffffffffffffffffffffffffffffffffffffff1673ffffffffffffffffffffffffffffffffffffffff168152602001908152602001600020805480602002602001604051908101604052809291908181526020018280548015620005ff57602002820191906000526020600020905b815481526020019060010190808311620005ea575b50505050509050919050565b60006200061960016200114f565b905090565b620006286200115d565b620006346000620011e2565b565b600080600b60009054906101000a900473ffffffffffffffffffffffffffffffffffffffff16600d60009054906101000a900473ffffffffffffffffffffffffffffffffffffffff1633856040516200068f90620012c4565b6200069e9493929190620015b7565b604051809103906000f080158015620006bb573d6000803e3d6000fd5b50905060008173ffffffffffffffffffffffffffffffffffffffff1663ed88c68e6040518163ffffffff1660e01b81526004016020604051808303816000875af11580156200070e573d6000803e3d6000fd5b505050506040513d601f19601f820116820180604052508101906200073491906200161b565b9050600060405180604001604052808473ffffffffffffffffffffffffffffffffffffffff1681526020013373ffffffffffffffffffffffffffffffffffffffff168152509050620007876002620012a6565b60006200079560026200114f565b9050816007600083815260200190815260200160002060008201518160000160006101000a81548173ffffffffffffffffffffffffffffffffffffffff021916908373ffffffffffffffffffffffffffffffffffffffff16021790555060208201518160010160006101000a81548173ffffffffffffffffffffffffffffffffffffffff021916908373ffffffffffffffffffffffffffffffffffffffff16021790555090505060086000848152602001908152602001600020819080600181540180825580915050600190039060005260206000200160009091909190915055600960003373ffffffffffffffffffffffffffffffffffffffff1673ffffffffffffffffffffffffffffffffffffffff16815260200190815260200160002083908060018154018082558091505060019003906000526020600020016000909190919091505582945050505050919050565b6060600860008381526020019081526020016000208054806020026020016040519081016040528092919081815260200182805480156200094957602002820191906000526020600020905b81548152602001906001019080831162000934575b50505050509050919050565b60008060009054906101000a900473ffffffffffffffffffffffffffffffffffffffff16905090565b600d60009054906101000a900473ffffffffffffffffffffffffffffffffffffffff1673ffffffffffffffffffffffffffffffffffffffff166364d4eeab856040518263ffffffff1660e01b8152600401620009db919062001463565b602060405180830381865afa158015620009f9573d6000803e3d6000fd5b505050506040513d601f19601f8201168201806040525081019062000a1f919062001664565b73ffffffffffffffffffffffffffffffffffffffff163373ffffffffffffffffffffffffffffffffffffffff161462000a8f576040517f08c379a000000000000000000000000000000000000000000000000000000000815260040162000a86906200171d565b60405180910390fd5b6000831162000ad5576040517f08c379a000000000000000000000000000000000000000000000000000000000815260040162000acc906200178f565b60405180910390fd5b62000ae16001620012a6565b600062000aef60016200114f565b90506000600b60009054906101000a900473ffffffffffffffffffffffffffffffffffffffff16600d60009054906101000a900473ffffffffffffffffffffffffffffffffffffffff16873388888860405162000b4c90620012d2565b62000b5e9796959493929190620017b1565b604051809103906000f08015801562000b7b573d6000803e3d6000fd5b509050600d60009054906101000a900473ffffffffffffffffffffffffffffffffffffffff1673ffffffffffffffffffffffffffffffffffffffff1663095ea7b382886040518363ffffffff1660e01b815260040162000bdd9291906200182e565b600060405180830381600087803b15801562000bf857600080fd5b505af115801562000c0d573d6000803e3d6000fd5b50505050600060405180604001604052808373ffffffffffffffffffffffffffffffffffffffff1681526020013373ffffffffffffffffffffffffffffffffffffffff168152509050806004600085815260200190815260200160002060008201518160000160006101000a81548173ffffffffffffffffffffffffffffffffffffffff021916908373ffffffffffffffffffffffffffffffffffffffff16021790555060208201518160010160006101000a81548173ffffffffffffffffffffffffffffffffffffffff021916908373ffffffffffffffffffffffffffffffffffffffff16021790555090505060056000888152602001908152602001600020839080600181540180825580915050600190039060005260206000200160009091909190915055600660003373ffffffffffffffffffffffffffffffffffffffff1673ffffffffffffffffffffffffffffffffffffffff168152602001908152602001600020839080600181540180825580915050600190039060005260206000200160009091909190915055827fa29262303591d48ce94646a46b652916ce782073349bb5dc261ac4c5237d9397838960405162000dcf9291906200182e565b60405180910390a250505050505050565b60006004600083815260200190815260200160002060000160009054906101000a900473ffffffffffffffffffffffffffffffffffffffff169050919050565b600080600b60009054906101000a900473ffffffffffffffffffffffffffffffffffffffff16600d60009054906101000a900473ffffffffffffffffffffffffffffffffffffffff16338560405162000e7990620012e0565b62000e889493929190620015b7565b604051809103906000f08015801562000ea5573d6000803e3d6000fd5b50905060008173ffffffffffffffffffffffffffffffffffffffff16631370128e6040518163ffffffff1660e01b81526004016020604051808303816000875af115801562000ef8573d6000803e3d6000fd5b505050506040513d601f19601f8201168201806040525081019062000f1e91906200161b565b905062000f2c6003620012a6565b600062000f3a60036200114f565b9050600060405180604001604052808573ffffffffffffffffffffffffffffffffffffffff1681526020013373ffffffffffffffffffffffffffffffffffffffff16815250905080600a600084815260200190815260200160002060008201518160000160006101000a81548173ffffffffffffffffffffffffffffffffffffffff021916908373ffffffffffffffffffffffffffffffffffffffff16021790555060208201518160010160006101000a81548173ffffffffffffffffffffffffffffffffffffffff021916908373ffffffffffffffffffffffffffffffffffffffff16021790555090505081945050505050919050565b60006004600083815260200190815260200160002060010160009054906101000a900473ffffffffffffffffffffffffffffffffffffffff169050919050565b60006007600083815260200190815260200160002060010160009054906101000a900473ffffffffffffffffffffffffffffffffffffffff169050919050565b620010bc6200115d565b600073ffffffffffffffffffffffffffffffffffffffff168173ffffffffffffffffffffffffffffffffffffffff16036200112e576040517f08c379a00000000000000000000000000000000000000000000000000000000081526004016200112590620018d1565b60405180910390fd5b6200113981620011e2565b50565b60006200114a60026200114f565b905090565b600081600001549050919050565b62001167620012bc565b73ffffffffffffffffffffffffffffffffffffffff166200118762000955565b73ffffffffffffffffffffffffffffffffffffffff1614620011e0576040517f08c379a0000000000000000000000000000000000000000000000000000000008152600401620011d79062001943565b60405180910390fd5b565b60008060009054906101000a900473ffffffffffffffffffffffffffffffffffffffff169050816000806101000a81548173ffffffffffffffffffffffffffffffffffffffff021916908373ffffffffffffffffffffffffffffffffffffffff1602179055508173ffffffffffffffffffffffffffffffffffffffff168173ffffffffffffffffffffffffffffffffffffffff167f8be0079c531659141344cd1fd0a4f28419497f9722a3daafe3b4186f6b6457e060405160405180910390a35050565b6001816000016000828254019250508190555050565b600033905090565b610db1806200196683390190565b611115806200271783390190565b610bb9806200382c83390190565b600080fd5b6000819050919050565b6200130881620012f3565b81146200131457600080fd5b50565b6000813590506200132881620012fd565b92915050565b600060208284031215620013475762001346620012ee565b5b6000620013578482850162001317565b91505092915050565b600081519050919050565b600082825260208201905092915050565b6000819050602082019050919050565b6200139781620012f3565b82525050565b6000620013ab83836200138c565b60208301905092915050565b6000602082019050919050565b6000620013d18262001360565b620013dd81856200136b565b9350620013ea836200137c565b8060005b83811015620014215781516200140588826200139d565b97506200141283620013b7565b925050600181019050620013ee565b5085935050505092915050565b600060208201905081810360008301526200144a8184620013c4565b905092915050565b6200145d81620012f3565b82525050565b60006020820190506200147a600083018462001452565b92915050565b600073ffffffffffffffffffffffffffffffffffffffff82169050919050565b6000620014ad8262001480565b9050919050565b620014bf81620014a0565b8114620014cb57600080fd5b50565b600081359050620014df81620014b4565b92915050565b600060208284031215620014fe57620014fd620012ee565b5b60006200150e84828501620014ce565b91505092915050565b6200152281620014a0565b82525050565b60006020820190506200153f600083018462001517565b92915050565b60008060008060808587031215620015625762001561620012ee565b5b6000620015728782880162001317565b9450506020620015858782880162001317565b9350506040620015988782880162001317565b9250506060620015ab8782880162001317565b91505092959194509250565b6000608082019050620015ce600083018762001517565b620015dd602083018662001517565b620015ec604083018562001517565b620015fb606083018462001452565b95945050505050565b6000815190506200161581620012fd565b92915050565b600060208284031215620016345762001633620012ee565b5b6000620016448482850162001604565b91505092915050565b6000815190506200165e81620014b4565b92915050565b6000602082840312156200167d576200167c620012ee565b5b60006200168d848285016200164d565b91505092915050565b600082825260208201905092915050565b7f416e696d616c204e4654206973206e6f74206f776e656420627920526567697360008201527f7465720000000000000000000000000000000000000000000000000000000000602082015250565b60006200170560238362001696565b91506200171282620016a7565b604082019050919050565b600060208201905081810360008301526200173881620016f6565b9050919050565b7f596f75206d75737420736574207072696365206f766572203000000000000000600082015250565b60006200177760198362001696565b915062001784826200173f565b602082019050919050565b60006020820190508181036000830152620017aa8162001768565b9050919050565b600060e082019050620017c8600083018a62001517565b620017d7602083018962001517565b620017e6604083018862001452565b620017f5606083018762001517565b62001804608083018662001452565b6200181360a083018562001452565b6200182260c083018462001452565b98975050505050505050565b600060408201905062001845600083018562001517565b62001854602083018462001452565b9392505050565b7f4f776e61626c653a206e6577206f776e657220697320746865207a65726f206160008201527f6464726573730000000000000000000000000000000000000000000000000000602082015250565b6000620018b960268362001696565b9150620018c6826200185b565b604082019050919050565b60006020820190508181036000830152620018ec81620018aa565b9050919050565b7f4f776e61626c653a2063616c6c6572206973206e6f7420746865206f776e6572600082015250565b60006200192b60208362001696565b91506200193882620018f3565b602082019050919050565b600060208201905081810360008301526200195e816200191c565b905091905056fe60806040523480156200001157600080fd5b5060405162000db138038062000db183398181016040528101906200003791906200037d565b620000576200004b6200020c60201b60201c565b6200021460201b60201c565b83600460016101000a81548173ffffffffffffffffffffffffffffffffffffffff021916908373ffffffffffffffffffffffffffffffffffffffff160217905550600460019054906101000a900473ffffffffffffffffffffffffffffffffffffffff16600560006101000a81548173ffffffffffffffffffffffffffffffffffffffff021916908373ffffffffffffffffffffffffffffffffffffffff16021790555082600660006101000a81548173ffffffffffffffffffffffffffffffffffffffff021916908373ffffffffffffffffffffffffffffffffffffffff160217905550600660009054906101000a900473ffffffffffffffffffffffffffffffffffffffff16600760006101000a81548173ffffffffffffffffffffffffffffffffffffffff021916908373ffffffffffffffffffffffffffffffffffffffff16021790555081600260006101000a81548173ffffffffffffffffffffffffffffffffffffffff021916908373ffffffffffffffffffffffffffffffffffffffff160217905550806003819055506000600460006101000a81548160ff02191690831515021790555050505050620003ef565b600033905090565b60008060009054906101000a900473ffffffffffffffffffffffffffffffffffffffff169050816000806101000a81548173ffffffffffffffffffffffffffffffffffffffff021916908373ffffffffffffffffffffffffffffffffffffffff1602179055508173ffffffffffffffffffffffffffffffffffffffff168173ffffffffffffffffffffffffffffffffffffffff167f8be0079c531659141344cd1fd0a4f28419497f9722a3daafe3b4186f6b6457e060405160405180910390a35050565b600080fd5b600073ffffffffffffffffffffffffffffffffffffffff82169050919050565b60006200030a82620002dd565b9050919050565b6200031c81620002fd565b81146200032857600080fd5b50565b6000815190506200033c8162000311565b92915050565b6000819050919050565b620003578162000342565b81146200036357600080fd5b50565b60008151905062000377816200034c565b92915050565b600080600080608085870312156200039a5762000399620002d8565b5b6000620003aa878288016200032b565b9450506020620003bd878288016200032b565b9350506040620003d0878288016200032b565b9250506060620003e38782880162000366565b91505092959194509250565b6109b280620003ff6000396000f3fe60806040526004361061003f5760003560e01c8063715018a6146100445780638da5cb5b1461005b578063ed88c68e14610086578063f2fde38b146100a4575b600080fd5b34801561005057600080fd5b506100596100cd565b005b34801561006757600080fd5b506100706100e1565b60405161007d9190610636565b60405180910390f35b61008e61010a565b60405161009b919061066a565b60405180910390f35b3480156100b057600080fd5b506100cb60048036038101906100c691906106b6565b6103dc565b005b6100d561045f565b6100df60006104dd565b565b60008060009054906101000a900473ffffffffffffffffffffffffffffffffffffffff16905090565b6000600460009054906101000a900460ff161561012657600080fd5b61012c600560009054906101000a900473ffffffffffffffffffffffffffffffffffffffff1673ffffffffffffffffffffffffffffffffffffffff166370a08231600260009054906101000a900473ffffffffffffffffffffffffffffffffffffffff166040518263ffffffff1660e01b81526004016101a69190610636565b602060405180830381865afa1580156101c3573d6000803e3d6000fd5b505050506040513d601f19601f820116820180604052508101906101e7919061070f565b1015610228576040517f08c379a000000000000000000000000000000000000000000000000000000000815260040161021f90610799565b60405180910390fd5b6000600760009054906101000a900473ffffffffffffffffffffffffffffffffffffffff1673ffffffffffffffffffffffffffffffffffffffff166362b514b06040518163ffffffff1660e01b81526004016020604051808303816000875af1158015610299573d6000803e3d6000fd5b505050506040513d601f19601f820116820180604052508101906102bd919061070f565b9050600560009054906101000a900473ffffffffffffffffffffffffffffffffffffffff1673ffffffffffffffffffffffffffffffffffffffff166323b872dd336103066100e1565b61012c6040518463ffffffff1660e01b8152600401610327939291906107b9565b6020604051808303816000875af1158015610346573d6000803e3d6000fd5b505050506040513d601f19601f8201168201806040525081019061036a9190610828565b50806001819055507fdcb38bc05e6d7e5d6a23da8fea8b3e7f9728a7432a78759f21af211c50af70af600260009054906101000a900473ffffffffffffffffffffffffffffffffffffffff16336040516103c5929190610855565b60405180910390a16103d56105a1565b8091505090565b6103e461045f565b600073ffffffffffffffffffffffffffffffffffffffff168173ffffffffffffffffffffffffffffffffffffffff1603610453576040517f08c379a000000000000000000000000000000000000000000000000000000000815260040161044a906108f0565b60405180910390fd5b61045c816104dd565b50565b6104676105ed565b73ffffffffffffffffffffffffffffffffffffffff166104856100e1565b73ffffffffffffffffffffffffffffffffffffffff16146104db576040517f08c379a00000000000000000000000000000000000000000000000000000000081526004016104d29061095c565b60405180910390fd5b565b60008060009054906101000a900473ffffffffffffffffffffffffffffffffffffffff169050816000806101000a81548173ffffffffffffffffffffffffffffffffffffffff021916908373ffffffffffffffffffffffffffffffffffffffff1602179055508173ffffffffffffffffffffffffffffffffffffffff168173ffffffffffffffffffffffffffffffffffffffff167f8be0079c531659141344cd1fd0a4f28419497f9722a3daafe3b4186f6b6457e060405160405180910390a35050565b6001600460006101000a81548160ff0219169083151502179055506001547f6cc09e7b5c3e49861ebe8f6867e1618fbfc14c8d0e968fde37c4243ca02a6f8360405160405180910390a2565b600033905090565b600073ffffffffffffffffffffffffffffffffffffffff82169050919050565b6000610620826105f5565b9050919050565b61063081610615565b82525050565b600060208201905061064b6000830184610627565b92915050565b6000819050919050565b61066481610651565b82525050565b600060208201905061067f600083018461065b565b92915050565b600080fd5b61069381610615565b811461069e57600080fd5b50565b6000813590506106b08161068a565b92915050565b6000602082840312156106cc576106cb610685565b5b60006106da848285016106a1565b91505092915050565b6106ec81610651565b81146106f757600080fd5b50565b600081519050610709816106e3565b92915050565b60006020828403121561072557610724610685565b5b6000610733848285016106fa565b91505092915050565b600082825260208201905092915050565b7f62616c616e636520697320657868617573746564000000000000000000000000600082015250565b600061078360148361073c565b915061078e8261074d565b602082019050919050565b600060208201905081810360008301526107b281610776565b9050919050565b60006060820190506107ce6000830186610627565b6107db6020830185610627565b6107e8604083018461065b565b949350505050565b60008115159050919050565b610805816107f0565b811461081057600080fd5b50565b600081519050610822816107fc565b92915050565b60006020828403121561083e5761083d610685565b5b600061084c84828501610813565b91505092915050565b600060408201905061086a6000830185610627565b6108776020830184610627565b9392505050565b7f4f776e61626c653a206e6577206f776e657220697320746865207a65726f206160008201527f6464726573730000000000000000000000000000000000000000000000000000602082015250565b60006108da60268361073c565b91506108e58261087e565b604082019050919050565b60006020820190508181036000830152610909816108cd565b9050919050565b7f4f776e61626c653a2063616c6c6572206973206e6f7420746865206f776e6572600082015250565b600061094660208361073c565b915061095182610910565b602082019050919050565b6000602082019050818103600083015261097581610939565b905091905056fea264697066735822122014bc4e82b3a4c499830623f5cbfcf246026b25f52679cbf2814723262222085e64736f6c6343000810003360806040523480156200001157600080fd5b506040516200111538038062001115833981810160405281019062000037919062000395565b620000576200004b6200022460201b60201c565b6200022c60201b60201c565b86600660016101000a81548173ffffffffffffffffffffffffffffffffffffffff021916908373ffffffffffffffffffffffffffffffffffffffff160217905550600660019054906101000a900473ffffffffffffffffffffffffffffffffffffffff16600760006101000a81548173ffffffffffffffffffffffffffffffffffffffff021916908373ffffffffffffffffffffffffffffffffffffffff16021790555085600860006101000a81548173ffffffffffffffffffffffffffffffffffffffff021916908373ffffffffffffffffffffffffffffffffffffffff160217905550600860009054906101000a900473ffffffffffffffffffffffffffffffffffffffff16600960006101000a81548173ffffffffffffffffffffffffffffffffffffffff021916908373ffffffffffffffffffffffffffffffffffffffff1602179055508460018190555083600260006101000a81548173ffffffffffffffffffffffffffffffffffffffff021916908373ffffffffffffffffffffffffffffffffffffffff1602179055508260038190555081600481905550806005819055506000600660006101000a81548160ff0219169083151502179055505050505050505062000448565b600033905090565b60008060009054906101000a900473ffffffffffffffffffffffffffffffffffffffff169050816000806101000a81548173ffffffffffffffffffffffffffffffffffffffff021916908373ffffffffffffffffffffffffffffffffffffffff1602179055508173ffffffffffffffffffffffffffffffffffffffff168173ffffffffffffffffffffffffffffffffffffffff167f8be0079c531659141344cd1fd0a4f28419497f9722a3daafe3b4186f6b6457e060405160405180910390a35050565b600080fd5b600073ffffffffffffffffffffffffffffffffffffffff82169050919050565b60006200032282620002f5565b9050919050565b620003348162000315565b81146200034057600080fd5b50565b600081519050620003548162000329565b92915050565b6000819050919050565b6200036f816200035a565b81146200037b57600080fd5b50565b6000815190506200038f8162000364565b92915050565b600080600080600080600060e0888a031215620003b757620003b6620002f0565b5b6000620003c78a828b0162000343565b9750506020620003da8a828b0162000343565b9650506040620003ed8a828b016200037e565b9550506060620004008a828b0162000343565b9450506080620004138a828b016200037e565b93505060a0620004268a828b016200037e565b92505060c0620004398a828b016200037e565b91505092959891949750929550565b610cbd80620004586000396000f3fe6080604052600436106100555760003560e01c80634f1371ac1461005a578063715018a614610085578063722713f71461009c5780638da5cb5b146100c7578063efef39a1146100f2578063f2fde38b1461010e575b600080fd5b34801561006657600080fd5b5061006f610137565b60405161007c9190610851565b60405180910390f35b34801561009157600080fd5b5061009a6101dc565b005b3480156100a857600080fd5b506100b16101f0565b6040516100be9190610885565b60405180910390f35b3480156100d357600080fd5b506100dc610293565b6040516100e99190610851565b60405180910390f35b61010c600480360381019061010791906108d1565b6102bc565b005b34801561011a57600080fd5b506101356004803603810190610130919061092a565b6105f7565b005b6000600960009054906101000a900473ffffffffffffffffffffffffffffffffffffffff1673ffffffffffffffffffffffffffffffffffffffff16636352211e6001546040518263ffffffff1660e01b81526004016101969190610885565b602060405180830381865afa1580156101b3573d6000803e3d6000fd5b505050506040513d601f19601f820116820180604052508101906101d7919061096c565b905090565b6101e461067a565b6101ee60006106f8565b565b6000600760009054906101000a900473ffffffffffffffffffffffffffffffffffffffff1673ffffffffffffffffffffffffffffffffffffffff166370a08231336040518263ffffffff1660e01b815260040161024d9190610851565b602060405180830381865afa15801561026a573d6000803e3d6000fd5b505050506040513d601f19601f8201168201806040525081019061028e91906109ae565b905090565b60008060009054906101000a900473ffffffffffffffffffffffffffffffffffffffff16905090565b600260009054906101000a900473ffffffffffffffffffffffffffffffffffffffff1673ffffffffffffffffffffffffffffffffffffffff16600960009054906101000a900473ffffffffffffffffffffffffffffffffffffffff1673ffffffffffffffffffffffffffffffffffffffff16636352211e6001546040518263ffffffff1660e01b81526004016103529190610885565b602060405180830381865afa15801561036f573d6000803e3d6000fd5b505050506040513d601f19601f82011682018060405250810190610393919061096c565b73ffffffffffffffffffffffffffffffffffffffff16146103e9576040517f08c379a00000000000000000000000000000000000000000000000000000000081526004016103e090610a38565b60405180910390fd5b600354600760009054906101000a900473ffffffffffffffffffffffffffffffffffffffff1673ffffffffffffffffffffffffffffffffffffffff166370a08231336040518263ffffffff1660e01b81526004016104479190610851565b602060405180830381865afa158015610464573d6000803e3d6000fd5b505050506040513d601f19601f8201168201806040525081019061048891906109ae565b10156104c9576040517f08c379a00000000000000000000000000000000000000000000000000000000081526004016104c090610aa4565b60405180910390fd5b600760009054906101000a900473ffffffffffffffffffffffffffffffffffffffff1673ffffffffffffffffffffffffffffffffffffffff166323b872dd33600260009054906101000a900473ffffffffffffffffffffffffffffffffffffffff16846040518463ffffffff1660e01b815260040161054a93929190610ac4565b6020604051808303816000875af1158015610569573d6000803e3d6000fd5b505050506040513d601f19601f8201168201806040525081019061058d9190610b33565b506001547f2d9abaed896ece5f9f4f4484ce756b21c297e5aa6739114910fc097c750f27a5600260009054906101000a900473ffffffffffffffffffffffffffffffffffffffff16336040516105e4929190610b60565b60405180910390a26105f46107bc565b50565b6105ff61067a565b600073ffffffffffffffffffffffffffffffffffffffff168173ffffffffffffffffffffffffffffffffffffffff160361066e576040517f08c379a000000000000000000000000000000000000000000000000000000000815260040161066590610bfb565b60405180910390fd5b610677816106f8565b50565b610682610808565b73ffffffffffffffffffffffffffffffffffffffff166106a0610293565b73ffffffffffffffffffffffffffffffffffffffff16146106f6576040517f08c379a00000000000000000000000000000000000000000000000000000000081526004016106ed90610c67565b60405180910390fd5b565b60008060009054906101000a900473ffffffffffffffffffffffffffffffffffffffff169050816000806101000a81548173ffffffffffffffffffffffffffffffffffffffff021916908373ffffffffffffffffffffffffffffffffffffffff1602179055508173ffffffffffffffffffffffffffffffffffffffff168173ffffffffffffffffffffffffffffffffffffffff167f8be0079c531659141344cd1fd0a4f28419497f9722a3daafe3b4186f6b6457e060405160405180910390a35050565b6001600660006101000a81548160ff0219169083151502179055506001547f6cc09e7b5c3e49861ebe8f6867e1618fbfc14c8d0e968fde37c4243ca02a6f8360405160405180910390a2565b600033905090565b600073ffffffffffffffffffffffffffffffffffffffff82169050919050565b600061083b82610810565b9050919050565b61084b81610830565b82525050565b60006020820190506108666000830184610842565b92915050565b6000819050919050565b61087f8161086c565b82525050565b600060208201905061089a6000830184610876565b92915050565b600080fd5b6108ae8161086c565b81146108b957600080fd5b50565b6000813590506108cb816108a5565b92915050565b6000602082840312156108e7576108e66108a0565b5b60006108f5848285016108bc565b91505092915050565b61090781610830565b811461091257600080fd5b50565b600081359050610924816108fe565b92915050565b6000602082840312156109405761093f6108a0565b5b600061094e84828501610915565b91505092915050565b600081519050610966816108fe565b92915050565b600060208284031215610982576109816108a0565b5b600061099084828501610957565b91505092915050565b6000815190506109a8816108a5565b92915050565b6000602082840312156109c4576109c36108a0565b5b60006109d284828501610999565b91505092915050565b600082825260208201905092915050565b7f73656c6c6572206973206e6f74206f776e657200000000000000000000000000600082015250565b6000610a226013836109db565b9150610a2d826109ec565b602082019050919050565b60006020820190508181036000830152610a5181610a15565b9050919050565b7f62616c616e636520697320657868617573746564000000000000000000000000600082015250565b6000610a8e6014836109db565b9150610a9982610a58565b602082019050919050565b60006020820190508181036000830152610abd81610a81565b9050919050565b6000606082019050610ad96000830186610842565b610ae66020830185610842565b610af36040830184610876565b949350505050565b60008115159050919050565b610b1081610afb565b8114610b1b57600080fd5b50565b600081519050610b2d81610b07565b92915050565b600060208284031215610b4957610b486108a0565b5b6000610b5784828501610b1e565b91505092915050565b6000604082019050610b756000830185610842565b610b826020830184610842565b9392505050565b7f4f776e61626c653a206e6577206f776e657220697320746865207a65726f206160008201527f6464726573730000000000000000000000000000000000000000000000000000602082015250565b6000610be56026836109db565b9150610bf082610b89565b604082019050919050565b60006020820190508181036000830152610c1481610bd8565b9050919050565b7f4f776e61626c653a2063616c6c6572206973206e6f7420746865206f776e6572600082015250565b6000610c516020836109db565b9150610c5c82610c1b565b602082019050919050565b60006020820190508181036000830152610c8081610c44565b905091905056fea2646970667358221220b4af1eb4eaf63a8fc77bffde63e04a443874ad025ec945f1f4376c76cb9dd54b64736f6c63430008100033608060405234801561001057600080fd5b5060405162000bb938038062000bb98339818101604052810190610034919061034e565b6100506100456101e960201b60201c565b6101f160201b60201c565b83600360006101000a81548173ffffffffffffffffffffffffffffffffffffffff021916908373ffffffffffffffffffffffffffffffffffffffff160217905550600360009054906101000a900473ffffffffffffffffffffffffffffffffffffffff16600460006101000a81548173ffffffffffffffffffffffffffffffffffffffff021916908373ffffffffffffffffffffffffffffffffffffffff16021790555082600560006101000a81548173ffffffffffffffffffffffffffffffffffffffff021916908373ffffffffffffffffffffffffffffffffffffffff160217905550600560009054906101000a900473ffffffffffffffffffffffffffffffffffffffff16600660006101000a81548173ffffffffffffffffffffffffffffffffffffffff021916908373ffffffffffffffffffffffffffffffffffffffff16021790555081600160006101000a81548173ffffffffffffffffffffffffffffffffffffffff021916908373ffffffffffffffffffffffffffffffffffffffff16021790555080600281905550505050506103b5565b600033905090565b60008060009054906101000a900473ffffffffffffffffffffffffffffffffffffffff169050816000806101000a81548173ffffffffffffffffffffffffffffffffffffffff021916908373ffffffffffffffffffffffffffffffffffffffff1602179055508173ffffffffffffffffffffffffffffffffffffffff168173ffffffffffffffffffffffffffffffffffffffff167f8be0079c531659141344cd1fd0a4f28419497f9722a3daafe3b4186f6b6457e060405160405180910390a35050565b600080fd5b600073ffffffffffffffffffffffffffffffffffffffff82169050919050565b60006102e5826102ba565b9050919050565b6102f5816102da565b811461030057600080fd5b50565b600081519050610312816102ec565b92915050565b6000819050919050565b61032b81610318565b811461033657600080fd5b50565b60008151905061034881610322565b92915050565b60008060008060808587031215610368576103676102b5565b5b600061037687828801610303565b945050602061038787828801610303565b935050604061039887828801610303565b92505060606103a987828801610339565b91505092959194509250565b6107f480620003c56000396000f3fe608060405234801561001057600080fd5b506004361061004c5760003560e01c80631370128e14610051578063715018a61461006f5780638da5cb5b14610079578063f2fde38b14610097575b600080fd5b6100596100b3565b60405161006691906104b0565b60405180910390f35b61007761028d565b005b6100816102a1565b60405161008e919061050c565b60405180910390f35b6100b160048036038101906100ac9190610558565b6102ca565b005b6000801515600660009054906101000a900473ffffffffffffffffffffffffffffffffffffffff1673ffffffffffffffffffffffffffffffffffffffff1663b71fbe4b336040518263ffffffff1660e01b8152600401610113919061050c565b602060405180830381865afa158015610130573d6000803e3d6000fd5b505050506040513d601f19601f8201168201806040525081019061015491906105bd565b151514610196576040517f08c379a000000000000000000000000000000000000000000000000000000000815260040161018d90610647565b60405180910390fd5b6000600660009054906101000a900473ffffffffffffffffffffffffffffffffffffffff1673ffffffffffffffffffffffffffffffffffffffff1663ea4d942d6040518163ffffffff1660e01b81526004016020604051808303816000875af1158015610207573d6000803e3d6000fd5b505050506040513d601f19601f8201168201806040525081019061022b9190610693565b90507f4804d76736eb04adc53e52dccfb67748514108b26cd65b0fa9f04cb76a7724ec600160009054906101000a900473ffffffffffffffffffffffffffffffffffffffff1660405161027e919061050c565b60405180910390a18091505090565b61029561034d565b61029f60006103cb565b565b60008060009054906101000a900473ffffffffffffffffffffffffffffffffffffffff16905090565b6102d261034d565b600073ffffffffffffffffffffffffffffffffffffffff168173ffffffffffffffffffffffffffffffffffffffff1603610341576040517f08c379a000000000000000000000000000000000000000000000000000000000815260040161033890610732565b60405180910390fd5b61034a816103cb565b50565b61035561048f565b73ffffffffffffffffffffffffffffffffffffffff166103736102a1565b73ffffffffffffffffffffffffffffffffffffffff16146103c9576040517f08c379a00000000000000000000000000000000000000000000000000000000081526004016103c09061079e565b60405180910390fd5b565b60008060009054906101000a900473ffffffffffffffffffffffffffffffffffffffff169050816000806101000a81548173ffffffffffffffffffffffffffffffffffffffff021916908373ffffffffffffffffffffffffffffffffffffffff1602179055508173ffffffffffffffffffffffffffffffffffffffff168173ffffffffffffffffffffffffffffffffffffffff167f8be0079c531659141344cd1fd0a4f28419497f9722a3daafe3b4186f6b6457e060405160405180910390a35050565b600033905090565b6000819050919050565b6104aa81610497565b82525050565b60006020820190506104c560008301846104a1565b92915050565b600073ffffffffffffffffffffffffffffffffffffffff82169050919050565b60006104f6826104cb565b9050919050565b610506816104eb565b82525050565b600060208201905061052160008301846104fd565b92915050565b600080fd5b610535816104eb565b811461054057600080fd5b50565b6000813590506105528161052c565b92915050565b60006020828403121561056e5761056d610527565b5b600061057c84828501610543565b91505092915050565b60008115159050919050565b61059a81610585565b81146105a557600080fd5b50565b6000815190506105b781610591565b92915050565b6000602082840312156105d3576105d2610527565b5b60006105e1848285016105a8565b91505092915050565b600082825260208201905092915050565b7f414c524541445920495320414e204f574e455200000000000000000000000000600082015250565b60006106316013836105ea565b915061063c826105fb565b602082019050919050565b6000602082019050818103600083015261066081610624565b9050919050565b61067081610497565b811461067b57600080fd5b50565b60008151905061068d81610667565b92915050565b6000602082840312156106a9576106a8610527565b5b60006106b78482850161067e565b91505092915050565b7f4f776e61626c653a206e6577206f776e657220697320746865207a65726f206160008201527f6464726573730000000000000000000000000000000000000000000000000000602082015250565b600061071c6026836105ea565b9150610727826106c0565b604082019050919050565b6000602082019050818103600083015261074b8161070f565b9050919050565b7f4f776e61626c653a2063616c6c6572206973206e6f7420746865206f776e6572600082015250565b60006107886020836105ea565b915061079382610752565b602082019050919050565b600060208201905081810360008301526107b78161077b565b905091905056fea2646970667358221220a941442527809988bfe07d61f5d3d7275bc62ada5a43b6b068bb699d22809af664736f6c63430008100033a2646970667358221220a3ebfd1a52d98aac5e96ad9183451da20af66a13facfa0eb09b0ba6d5632661064736f6c63430008100033",
  "immutableReferences": {},
  "source": "// SPDX-License-Identifier: MIT\r\npragma solidity ^0.8.16;\r\n\r\nimport \"@openzeppelin/contracts/token/ERC20/ERC20.sol\";\r\nimport \"@openzeppelin/contracts/access/Ownable.sol\";\r\nimport \"@openzeppelin/contracts/utils/Counters.sol\";\r\nimport \"./NftSale.sol\";\r\nimport \"./NftDonate.sol\";\r\nimport \"./NftFree.sol\";\r\nimport \"./AnimalNft.sol\";\r\n\r\n/*\r\n* P2P    Factory Contract\r\n* \r\n* @author \r\n* @version 0.1\r\n* @see None\r\n*/\r\n\r\ncontract NftTradeManager is Ownable {\r\n    \r\n    //   \r\n    struct Sale {\r\n        address saleAddress;\r\n        address saleOwner;\r\n    }\r\n    \r\n    //   \r\n    struct Donate {\r\n        address donateAddress;\r\n        address donator;\r\n    }\r\n\r\n    //   \r\n    struct Free {\r\n        address freeAddress;\r\n        address minter;\r\n    }\r\n\r\n    using Counters for Counters.Counter;\r\n\r\n    event SaleCreated(uint256 indexed saleId, address saleAddr, uint256 ticketId);\r\n    event Withdrawal(address indexed to, uint256 amount);\r\n    \r\n    //  Id\r\n    Counters.Counter private _saleIds; \r\n    //  Id\r\n    Counters.Counter private _donateIds;\r\n    //  Id\r\n    Counters.Counter private _freeIds;\r\n    \r\n\r\n    // // \r\n    // uint constant MINT_PRICE = 300;\r\n\r\n    //Sale Contract   \r\n    mapping(uint256 => Sale) private _sales;\r\n\r\n    //     ID  => To Much? => Id     gas  \r\n    mapping(uint256 => uint256[]) private _salesByAnimal;\r\n\r\n    //     ID  => To Much? => Id     gas  \r\n    mapping(address => uint256[]) private _saleIdsByWallet;\r\n\r\n    //     ID \r\n    mapping(uint256 => Donate) private _donates;\r\n\r\n    //     ID \r\n    mapping(uint256 => uint256[]) private _donatesByAnimal;\r\n\r\n    //     ID \r\n    mapping(address => uint256[]) private _donateIdsByWallet;\r\n\r\n    //     ID \r\n    mapping(uint256 => Free) private _frees;\r\n\r\n    //   ERC-20   \r\n    address private _currencyAddress;\r\n    // ERC20 \r\n    IERC20 private _currencyContract;\r\n\r\n    //   AnimalNft(ERC-721)   \r\n    address private _animalNftAddress;\r\n    // PRIVATE  AnimalNft(ERC-721) \r\n    AnimalNft private _animalNftContract; \r\n \r\n    \r\n    /*\r\n    * constructor\r\n    * P2P     \r\n    * \r\n    * @ param address currencyAddress ERC-20   \r\n    * @ param address animalNftAddress AnimalNft(ERC-721)   \r\n    * @ param address nftSaleAddress NftSale  \r\n    * @ return None\r\n    * @ exception None\r\n    */\r\n    constructor(\r\n        address currencyAddress,\r\n        address animalNftAddress\r\n    ){\r\n        _currencyAddress = currencyAddress;\r\n        _animalNftAddress = animalNftAddress;\r\n\r\n        _currencyContract = IERC20(_currencyAddress);\r\n        _animalNftContract = AnimalNft(_animalNftAddress);\r\n    }\r\n\r\n\r\n    /*\r\n    * createSale\r\n    *  P2P    Contract \r\n    * @ param uint256 animalId  ID\r\n    * @ param address seller   \r\n    * @ param uint256 price  \r\n    * @ param uint256 startedAt   \r\n    * @ param uint256 endedAt   \r\n    * @ return None\r\n    */\r\n    function createSale(\r\n            uint256 animalId,\r\n            uint256 price,\r\n            uint256 startedAt,\r\n            uint256 endedAt \r\n        ) public {\r\n\r\n        /*  \r\n            1.    Id   \r\n            2.   0   \r\n        */\r\n        require(msg.sender == AnimalNft(_animalNftAddress)._getOwner(animalId), \"Animal NFT is not owned by Register\");\r\n        require(price > 0, \"You must set price over 0\");\r\n        \r\n        //  \r\n        _saleIds.increment();\r\n        uint256 newNftSaleId = _saleIds.current();\r\n\r\n        //  \r\n        NftSale newNftSale = new NftSale(_currencyAddress, _animalNftAddress, animalId, msg.sender, price, startedAt, endedAt);\r\n\r\n        //ERC721   animalId    .\r\n        AnimalNft(_animalNftAddress).approve(address(newNftSale), animalId);\r\n\r\n        /* Sale Struct  \r\n            1.  \r\n            2. \r\n        */\r\n        Sale memory newSale = Sale(address(newNftSale), msg.sender);\r\n        _sales[newNftSaleId] = newSale; \r\n        _salesByAnimal[animalId].push(newNftSaleId);\r\n        _saleIdsByWallet[msg.sender].push(newNftSaleId);\r\n\r\n        emit SaleCreated(newNftSaleId, address(newNftSale), animalId);\r\n    }\r\n\r\n    /*\r\n    * donate\r\n    * Donate  \r\n    * @ param none\r\n    * @ return animalId\r\n    */\r\n    function createDonate(\r\n            uint256 mintedAt\r\n    ) public returns (uint256){\r\n\r\n        //  \r\n        NftDonate newAnimalNftDonate = new NftDonate(_currencyAddress, _animalNftAddress, msg.sender, mintedAt);\r\n        uint256 newAnimalId = newAnimalNftDonate.donate();\r\n        \r\n        /* Donate Struct  \r\n            1.  \r\n            2. \r\n        */\r\n        Donate memory newDonate = Donate(address(newAnimalNftDonate), msg.sender);\r\n\r\n        //    \r\n        _donateIds.increment();\r\n        uint256 newDonateId = _donateIds.current();\r\n\r\n        _donates[newDonateId] = newDonate;\r\n        _donatesByAnimal[newAnimalId].push(newDonateId);\r\n        _donateIdsByWallet[msg.sender].push(newAnimalId);\r\n\r\n        //emit DonateCreated(newAnimalNftDonateId, address(newAnimalNftDonate), newAnimalNftDonateId);\r\n\r\n        return newAnimalId;\r\n    }\r\n\r\n    /*\r\n    * free\r\n    *        \r\n    * @ param uint256 mintedAt UNIX TIMESTAMP   : DB   \r\n    * @ return animalId\r\n    */\r\n    function createFree(\r\n            uint256 mintedAt\r\n    ) public returns (uint256){\r\n\r\n        //  \r\n        NftFree newNftFree = new NftFree(_currencyAddress, _animalNftAddress, msg.sender, mintedAt);\r\n        uint256 newNftFreeId = newNftFree.free();\r\n        /* Free Struct  \r\n            1.  \r\n            2.  \r\n        */\r\n\r\n        //    \r\n        _freeIds.increment();\r\n        uint256 newFreeId = _freeIds.current();\r\n\r\n        Free memory newFree = Free(address(newNftFree), msg.sender);\r\n        _frees[newFreeId] = newFree; \r\n\r\n        //emit DonateCreated(newAnimalNftDonateId, address(newAnimalNftDonate), newAnimalNftDonateId);\r\n\r\n        return newFreeId;\r\n    }\r\n\r\n    /*\r\n    * ownerOfSale\r\n    *    \r\n    *\r\n    * @ param uint256 saleId  ID\r\n    * @ return address   Wallet address\r\n    * @ exception None\r\n    */\r\n    function ownerOfSale(uint256 saleId) public view returns(address) {\r\n        return _sales[saleId].saleOwner;\r\n    }\r\n\r\n    /*\r\n    * ownerOfDonate\r\n    *  NFT  \r\n    *\r\n    * @ param uint256 donateId  ID\r\n    * @ return address   Wallet address\r\n    * @ exception None\r\n    */\r\n    function ownerOfDonate(uint256 donateId) public view returns(address) {\r\n        return _donates[donateId].donator;\r\n    }\r\n\r\n    /*\r\n    * getSaleAddress\r\n    *   Contract  \r\n    *\r\n    * @ param uint256 saleId  ID\r\n    * @ return address  Contract address\r\n    * @ exception None\r\n    */\r\n    function getSaleAddress(uint256 saleId) public view returns(address) {\r\n        return _sales[saleId].saleAddress;\r\n    }\r\n\r\n    /*\r\n    * getDonateAddress\r\n    *   Contract  \r\n    *\r\n    * @ param uint256 donateId  ID\r\n    * @ return address  Contract address\r\n    * @ exception None\r\n    */\r\n    function getDonateAddress(uint256 donateId) public view returns(address) {\r\n        return _donates[donateId].donateAddress;\r\n    }\r\n\r\n    /*\r\n    * getCountSales\r\n    *      \r\n    *\r\n    * @ param None\r\n    * @ return uint256   \r\n    * @ exception None\r\n    */\r\n    function getCountSales() public view returns (uint256) {\r\n        return _saleIds.current();\r\n    }\r\n\r\n    /*\r\n    * getCountDonates\r\n    *      \r\n    *\r\n    * @ param None\r\n    * @ return uint256   \r\n    * @ exception None\r\n    */\r\n    function getCountDonates() public view returns (uint256) {\r\n        return _donateIds.current();\r\n    }\r\n\r\n    /*\r\n    * getCountFrees\r\n    *      \r\n    *\r\n    * @ param None\r\n    * @ return uint256   \r\n    * @ exception None\r\n    */\r\n    function getCountFrees() public view returns (uint256) {\r\n        return _freeIds.current();\r\n    }\r\n\r\n    /*\r\n    * getSalesOfAnimal\r\n    *   ID  saleId \r\n    * @ param uint256 animalId  ID\r\n    * @ return uint256[]  ID \r\n    * @ exception None\r\n    */\r\n    function getSalesOfAnimal(uint256 animalId) public view returns(uint256[] memory) {\r\n        return _salesByAnimal[animalId];\r\n    }\r\n\r\n    /*\r\n    * getDonatesOfAnimal\r\n    *   ID  donateId \r\n    * @ param uint256 animalId  ID\r\n    * @ return uint256[]  ID \r\n    * @ exception None\r\n    */\r\n    function getDonatesOfAnimal(uint256 animalId) public view returns(uint256[] memory) {\r\n        return _donatesByAnimal[animalId];\r\n    }\r\n\r\n    /*\r\n    * getSaleIdsByWallet\r\n    *      \r\n    * @ param address walletAddr  \r\n    * @ return uint256[]  ID \r\n    * @ exception None\r\n    */\r\n    function getSaleIdsByWallet(address walletAddr) public view returns(uint256[] memory) {\r\n        return _saleIdsByWallet[walletAddr];\r\n    }\r\n\r\n    /*\r\n    * getDonateIdsByWallet\r\n    *      \r\n    * @ param address walletAddr  \r\n    * @ return uint256[]  ID \r\n    * @ exception None\r\n    */\r\n    function getDonateIdsByWallet(address walletAddr) public view returns(uint256[] memory) {\r\n        return _donateIdsByWallet[walletAddr];\r\n    }\r\n}\r\n",
  "sourcePath": "C:\\Users\\multicampus\\project\\S07P22D103\\smart-contract\\src\\contracts\\NftTradeManager.sol",
  "compiler": {
    "name": "solc",
    "version": "0.8.16+commit.07a7930e.Emscripten.clang"
  },
  "schemaVersion": "3.4.9",
  "updatedAt": "2022-09-06T18:28:07.100Z",
  "networkType": "ethereum",
  "devdoc": {
    "kind": "dev",
    "methods": {
      "owner()": {
        "details": "Returns the address of the current owner."
      },
      "renounceOwnership()": {
        "details": "Leaves the contract without owner. It will not be possible to call `onlyOwner` functions anymore. Can only be called by the current owner. NOTE: Renouncing ownership will leave the contract without an owner, thereby removing any functionality that is only available to the owner."
      },
      "transferOwnership(address)": {
        "details": "Transfers ownership of the contract to a new account (`newOwner`). Can only be called by the current owner."
      }
    },
    "version": 1
  },
  "userdoc": {
    "kind": "user",
    "methods": {},
    "version": 1
  }
}