{
    "contractName": "AnimalNFT",
    "abi": [
        {
            "inputs": [
                {
                    "internalType": "uint32[]",
                    "name": "_species",
                    "type": "uint32[]"
                },
                {
                    "internalType": "uint32[]",
                    "name": "_rank",
                    "type": "uint32[]"
                },
                {
                    "internalType": "string[]",
                    "name": "_ipfsURI",
                    "type": "string[]"
                },
                {
                    "internalType": "string[]",
                    "name": "_ipfsImage",
                    "type": "string[]"
                },
                {
                    "internalType": "uint256[]",
                    "name": "_number",
                    "type": "uint256[]"
                }
            ],
            "stateMutability": "nonpayable",
            "type": "constructor"
        },
        {
            "anonymous": false,
            "inputs": [
                {
                    "indexed": true,
                    "internalType": "address",
                    "name": "owner",
                    "type": "address"
                },
                {
                    "indexed": true,
                    "internalType": "address",
                    "name": "approved",
                    "type": "address"
                },
                {
                    "indexed": true,
                    "internalType": "uint256",
                    "name": "tokenId",
                    "type": "uint256"
                }
            ],
            "name": "Approval",
            "type": "event"
        },
        {
            "anonymous": false,
            "inputs": [
                {
                    "indexed": true,
                    "internalType": "address",
                    "name": "owner",
                    "type": "address"
                },
                {
                    "indexed": true,
                    "internalType": "address",
                    "name": "operator",
                    "type": "address"
                },
                {
                    "indexed": false,
                    "internalType": "bool",
                    "name": "approved",
                    "type": "bool"
                }
            ],
            "name": "ApprovalForAll",
            "type": "event"
        },
        {
            "anonymous": false,
            "inputs": [
                {
                    "indexed": true,
                    "internalType": "address",
                    "name": "previousOwner",
                    "type": "address"
                },
                {
                    "indexed": true,
                    "internalType": "address",
                    "name": "newOwner",
                    "type": "address"
                }
            ],
            "name": "OwnershipTransferred",
            "type": "event"
        },
        {
            "anonymous": false,
            "inputs": [
                {
                    "indexed": true,
                    "internalType": "address",
                    "name": "from",
                    "type": "address"
                },
                {
                    "indexed": true,
                    "internalType": "address",
                    "name": "to",
                    "type": "address"
                },
                {
                    "indexed": true,
                    "internalType": "uint256",
                    "name": "tokenId",
                    "type": "uint256"
                }
            ],
            "name": "Transfer",
            "type": "event"
        },
        {
            "inputs": [],
            "name": "_createAnimalNFT",
            "outputs": [
                {
                    "internalType": "uint256",
                    "name": "",
                    "type": "uint256"
                }
            ],
            "stateMutability": "nonpayable",
            "type": "function"
        },
        {
            "inputs": [
                {
                    "internalType": "address",
                    "name": "to",
                    "type": "address"
                },
                {
                    "internalType": "uint256",
                    "name": "tokenId",
                    "type": "uint256"
                }
            ],
            "name": "approve",
            "outputs": [],
            "stateMutability": "nonpayable",
            "type": "function"
        },
        {
            "inputs": [
                {
                    "internalType": "address",
                    "name": "owner",
                    "type": "address"
                }
            ],
            "name": "balanceOf",
            "outputs": [
                {
                    "internalType": "uint256",
                    "name": "",
                    "type": "uint256"
                }
            ],
            "stateMutability": "view",
            "type": "function"
        },
        {
            "inputs": [
                {
                    "internalType": "uint256",
                    "name": "tokenId",
                    "type": "uint256"
                }
            ],
            "name": "getApproved",
            "outputs": [
                {
                    "internalType": "address",
                    "name": "",
                    "type": "address"
                }
            ],
            "stateMutability": "view",
            "type": "function"
        },
        {
            "inputs": [
                {
                    "internalType": "address",
                    "name": "owner",
                    "type": "address"
                },
                {
                    "internalType": "address",
                    "name": "operator",
                    "type": "address"
                }
            ],
            "name": "isApprovedForAll",
            "outputs": [
                {
                    "internalType": "bool",
                    "name": "",
                    "type": "bool"
                }
            ],
            "stateMutability": "view",
            "type": "function"
        },
        {
            "inputs": [],
            "name": "name",
            "outputs": [
                {
                    "internalType": "string",
                    "name": "",
                    "type": "string"
                }
            ],
            "stateMutability": "view",
            "type": "function"
        },
        {
            "inputs": [],
            "name": "owner",
            "outputs": [
                {
                    "internalType": "address",
                    "name": "",
                    "type": "address"
                }
            ],
            "stateMutability": "view",
            "type": "function"
        },
        {
            "inputs": [
                {
                    "internalType": "uint256",
                    "name": "tokenId",
                    "type": "uint256"
                }
            ],
            "name": "ownerOf",
            "outputs": [
                {
                    "internalType": "address",
                    "name": "",
                    "type": "address"
                }
            ],
            "stateMutability": "view",
            "type": "function"
        },
        {
            "inputs": [],
            "name": "renounceOwnership",
            "outputs": [],
            "stateMutability": "nonpayable",
            "type": "function"
        },
        {
            "inputs": [
                {
                    "internalType": "address",
                    "name": "from",
                    "type": "address"
                },
                {
                    "internalType": "address",
                    "name": "to",
                    "type": "address"
                },
                {
                    "internalType": "uint256",
                    "name": "tokenId",
                    "type": "uint256"
                }
            ],
            "name": "safeTransferFrom",
            "outputs": [],
            "stateMutability": "nonpayable",
            "type": "function"
        },
        {
            "inputs": [
                {
                    "internalType": "address",
                    "name": "from",
                    "type": "address"
                },
                {
                    "internalType": "address",
                    "name": "to",
                    "type": "address"
                },
                {
                    "internalType": "uint256",
                    "name": "tokenId",
                    "type": "uint256"
                },
                {
                    "internalType": "bytes",
                    "name": "data",
                    "type": "bytes"
                }
            ],
            "name": "safeTransferFrom",
            "outputs": [],
            "stateMutability": "nonpayable",
            "type": "function"
        },
        {
            "inputs": [
                {
                    "internalType": "address",
                    "name": "operator",
                    "type": "address"
                },
                {
                    "internalType": "bool",
                    "name": "approved",
                    "type": "bool"
                }
            ],
            "name": "setApprovalForAll",
            "outputs": [],
            "stateMutability": "nonpayable",
            "type": "function"
        },
        {
            "inputs": [
                {
                    "internalType": "bytes4",
                    "name": "interfaceId",
                    "type": "bytes4"
                }
            ],
            "name": "supportsInterface",
            "outputs": [
                {
                    "internalType": "bool",
                    "name": "",
                    "type": "bool"
                }
            ],
            "stateMutability": "view",
            "type": "function"
        },
        {
            "inputs": [],
            "name": "symbol",
            "outputs": [
                {
                    "internalType": "string",
                    "name": "",
                    "type": "string"
                }
            ],
            "stateMutability": "view",
            "type": "function"
        },
        {
            "inputs": [
                {
                    "internalType": "uint256",
                    "name": "tokenId",
                    "type": "uint256"
                }
            ],
            "name": "tokenURI",
            "outputs": [
                {
                    "internalType": "string",
                    "name": "",
                    "type": "string"
                }
            ],
            "stateMutability": "view",
            "type": "function"
        },
        {
            "inputs": [
                {
                    "internalType": "address",
                    "name": "from",
                    "type": "address"
                },
                {
                    "internalType": "address",
                    "name": "to",
                    "type": "address"
                },
                {
                    "internalType": "uint256",
                    "name": "tokenId",
                    "type": "uint256"
                }
            ],
            "name": "transferFrom",
            "outputs": [],
            "stateMutability": "nonpayable",
            "type": "function"
        },
        {
            "inputs": [
                {
                    "internalType": "address",
                    "name": "newOwner",
                    "type": "address"
                }
            ],
            "name": "transferOwnership",
            "outputs": [],
            "stateMutability": "nonpayable",
            "type": "function"
        }
    ],
    "bytecode": "60806040523480156200001157600080fd5b506040516200233638038062002336833981016040819052620000349162000524565b60405180604001604052806009815260200168105b9a5b585b13919560ba1b8152506040518060400160405280600381526020016210535560ea1b815250816000908162000083919062000694565b50600162000092828262000694565b505050620000af620000a96200026b60201b60201c565b6200026f565b60005b85518110156200025f5760096040518060e00160405280888481518110620000de57620000de62000760565b602002602001015163ffffffff16815260200187848151811062000106576200010662000760565b602002602001015163ffffffff1681526020018684815181106200012e576200012e62000760565b6020026020010151815260200185848151811062000150576200015062000760565b6020026020010151815260200184848151811062000172576200017262000760565b60209081029190910181015182526000828201819052604092830181905284546001818101875595825290829020845160069092020180549285015163ffffffff908116640100000000026001600160401b0319909416921691909117919091178155908201519192909190820190620001ed908262000694565b506060820151600282019062000204908262000694565b506080820151600382015560a08201516004820180546001600160a01b03199081166001600160a01b039384161790915560c09093015160059092018054909316911617905580620002568162000776565b915050620000b2565b5050505050506200079e565b3390565b600780546001600160a01b038381166001600160a01b0319831681179093556040519116919082907f8be0079c531659141344cd1fd0a4f28419497f9722a3daafe3b4186f6b6457e090600090a35050565b634e487b7160e01b600052604160045260246000fd5b604051601f8201601f191681016001600160401b0381118282101715620003025762000302620002c1565b604052919050565b60006001600160401b03821115620003265762000326620002c1565b5060051b60200190565b600082601f8301126200034257600080fd5b815160206200035b62000355836200030a565b620002d7565b82815260059290921b840181019181810190868411156200037b57600080fd5b8286015b84811015620003ac57805163ffffffff811681146200039e5760008081fd5b83529183019183016200037f565b509695505050505050565b6000601f8381840112620003ca57600080fd5b82516020620003dd62000355836200030a565b82815260059290921b85018101918181019087841115620003fd57600080fd5b8287015b84811015620004b65780516001600160401b0380821115620004235760008081fd5b818a0191508a603f830112620004395760008081fd5b8582015181811115620004505762000450620002c1565b62000463818a01601f19168801620002d7565b915080825260408c818386010111156200047d5760008081fd5b60005b828110156200049d578481018201518482018a0152880162000480565b5050600090820187015284525091830191830162000401565b50979650505050505050565b600082601f830112620004d457600080fd5b81516020620004e762000355836200030a565b82815260059290921b840181019181810190868411156200050757600080fd5b8286015b84811015620003ac57805183529183019183016200050b565b600080600080600060a086880312156200053d57600080fd5b85516001600160401b03808211156200055557600080fd5b6200056389838a0162000330565b965060208801519150808211156200057a57600080fd5b6200058889838a0162000330565b955060408801519150808211156200059f57600080fd5b620005ad89838a01620003b7565b94506060880151915080821115620005c457600080fd5b620005d289838a01620003b7565b93506080880151915080821115620005e957600080fd5b50620005f888828901620004c2565b9150509295509295909350565b600181811c908216806200061a57607f821691505b6020821081036200063b57634e487b7160e01b600052602260045260246000fd5b50919050565b601f8211156200068f57600081815260208120601f850160051c810160208610156200066a5750805b601f850160051c820191505b818110156200068b5782815560010162000676565b5050505b505050565b81516001600160401b03811115620006b057620006b0620002c1565b620006c881620006c1845462000605565b8462000641565b602080601f831160018114620007005760008415620006e75750858301515b600019600386901b1c1916600185901b1785556200068b565b600085815260208120601f198616915b82811015620007315788860151825594840194600190910190840162000710565b5085821015620007505787850151600019600388901b60f8161c191681555b5050505050600190811b01905550565b634e487b7160e01b600052603260045260246000fd5b6000600182016200079757634e487b7160e01b600052601160045260246000fd5b5060010190565b611b8880620007ae6000396000f3fe608060405234801561001057600080fd5b506004361061010b5760003560e01c8063715018a6116100a2578063a22cb46511610071578063a22cb46514610210578063b88d4fde14610223578063c87b56dd14610236578063e985e9c514610249578063f2fde38b1461025c57600080fd5b8063715018a6146101e757806389ae77a8146101ef5780638da5cb5b146101f757806395d89b411461020857600080fd5b806323b872dd116100de57806323b872dd1461018d57806342842e0e146101a05780636352211e146101b357806370a08231146101c657600080fd5b806301ffc9a71461011057806306fdde0314610138578063081812fc1461014d578063095ea7b314610178575b600080fd5b61012361011e3660046114cc565b61026f565b60405190151581526020015b60405180910390f35b6101406102c1565b60405161012f9190611539565b61016061015b36600461154c565b610353565b6040516001600160a01b03909116815260200161012f565b61018b610186366004611581565b61037a565b005b61018b61019b3660046115ab565b610494565b61018b6101ae3660046115ab565b6104c5565b6101606101c136600461154c565b6104e0565b6101d96101d43660046115e7565b610540565b60405190815260200161012f565b61018b6105c6565b6101d96105da565b6007546001600160a01b0316610160565b61014061090b565b61018b61021e366004611602565b61091a565b61018b610231366004611654565b610929565b61014061024436600461154c565b610961565b610123610257366004611730565b610a71565b61018b61026a3660046115e7565b610a9f565b60006001600160e01b031982166380ac58cd60e01b14806102a057506001600160e01b03198216635b5e139f60e01b145b806102bb57506301ffc9a760e01b6001600160e01b03198316145b92915050565b6060600080546102d090611763565b80601f01602080910402602001604051908101604052809291908181526020018280546102fc90611763565b80156103495780601f1061031e57610100808354040283529160200191610349565b820191906000526020600020905b81548152906001019060200180831161032c57829003601f168201915b5050505050905090565b600061035e82610b18565b506000908152600460205260409020546001600160a01b031690565b6000610385826104e0565b9050806001600160a01b0316836001600160a01b0316036103f75760405162461bcd60e51b815260206004820152602160248201527f4552433732313a20617070726f76616c20746f2063757272656e74206f776e656044820152603960f91b60648201526084015b60405180910390fd5b336001600160a01b038216148061041357506104138133610a71565b6104855760405162461bcd60e51b815260206004820152603e60248201527f4552433732313a20617070726f76652063616c6c6572206973206e6f7420746f60448201527f6b656e206f776e6572206e6f7220617070726f76656420666f7220616c6c000060648201526084016103ee565b61048f8383610b77565b505050565b61049e3382610be5565b6104ba5760405162461bcd60e51b81526004016103ee90611797565b61048f838383610c43565b61048f83838360405180602001604052806000815250610929565b6000818152600260205260408120546001600160a01b0316806102bb5760405162461bcd60e51b8152602060048201526018602482015277115490cdcc8c4e881a5b9d985b1a59081d1bdad95b88125160421b60448201526064016103ee565b60006001600160a01b0382166105aa5760405162461bcd60e51b815260206004820152602960248201527f4552433732313a2061646472657373207a65726f206973206e6f7420612076616044820152683634b21037bbb732b960b91b60648201526084016103ee565b506001600160a01b031660009081526003602052604090205490565b6105ce610ddf565b6105d86000610e39565b565b60006105e4610ddf565b6155f06105f060085490565b1061063d5760405162461bcd60e51b815260206004820152601760248201527f414c4c20414e494d414c5320574552452049535355454400000000000000000060448201526064016103ee565b6000600961064a60085490565b8154811061065a5761065a6117e5565b60009182526020909120600460069092020101546001600160a01b0316146106b95760405162461bcd60e51b815260206004820152601260248201527110531491505116481254d4d551510813919560721b60448201526064016103ee565b60006106c3610e8b565b905060006001600160a01b0316600982815481106106e3576106e36117e5565b60009182526020909120600460069092020101546001600160a01b03161461074d5760405162461bcd60e51b815260206004820152601960248201527f4e4654204d494e54455220414c5245414459204558495354530000000000000060448201526064016103ee565b61075b600880546001019055565b600061076660085490565b90506009828154811061077b5761077b6117e5565b60009182526020808320848452600a90915260409092206006919091029091018054825463ffffffff91821663ffffffff19821681178555835467ffffffffffffffff19909216176401000000009182900490921602178255906001808201906107e790840182611849565b506002818101906107fa90840182611849565b506003828101549082015560048083015490820180546001600160a01b03199081166001600160a01b0393841617909155600593840154939092018054909216921691909117905561084c3382610f6a565b6000818152600a602052604090206004810180546001600160a01b03191633179055600101805461090591839161088290611763565b80601f01602080910402602001604051908101604052809291908181526020018280546108ae90611763565b80156108fb5780601f106108d0576101008083540402835291602001916108fb565b820191906000526020600020905b8154815290600101906020018083116108de57829003601f168201915b50505050506110ac565b91505090565b6060600180546102d090611763565b61092533838361113f565b5050565b6109333383610be5565b61094f5760405162461bcd60e51b81526004016103ee90611797565b61095b8484848461120d565b50505050565b606061096c82610b18565b6000828152600660205260408120805461098590611763565b80601f01602080910402602001604051908101604052809291908181526020018280546109b190611763565b80156109fe5780601f106109d3576101008083540402835291602001916109fe565b820191906000526020600020905b8154815290600101906020018083116109e157829003601f168201915b505050505090506000610a1c60408051602081019091526000815290565b90508051600003610a2e575092915050565b815115610a60578082604051602001610a4892919061192a565b60405160208183030381529060405292505050919050565b610a6984611240565b949350505050565b6001600160a01b03918216600090815260056020908152604080832093909416825291909152205460ff1690565b610aa7610ddf565b6001600160a01b038116610b0c5760405162461bcd60e51b815260206004820152602660248201527f4f776e61626c653a206e6577206f776e657220697320746865207a65726f206160448201526564647265737360d01b60648201526084016103ee565b610b1581610e39565b50565b6000818152600260205260409020546001600160a01b0316610b155760405162461bcd60e51b8152602060048201526018602482015277115490cdcc8c4e881a5b9d985b1a59081d1bdad95b88125160421b60448201526064016103ee565b600081815260046020526040902080546001600160a01b0319166001600160a01b0384169081179091558190610bac826104e0565b6001600160a01b03167f8c5be1e5ebec7d5bd14f71427d1e84f3dd0314c0f7b2291e5b200ac8c7c3b92560405160405180910390a45050565b600080610bf1836104e0565b9050806001600160a01b0316846001600160a01b03161480610c185750610c188185610a71565b80610a695750836001600160a01b0316610c3184610353565b6001600160a01b031614949350505050565b826001600160a01b0316610c56826104e0565b6001600160a01b031614610cba5760405162461bcd60e51b815260206004820152602560248201527f4552433732313a207472616e736665722066726f6d20696e636f72726563742060448201526437bbb732b960d91b60648201526084016103ee565b6001600160a01b038216610d1c5760405162461bcd60e51b8152602060048201526024808201527f4552433732313a207472616e7366657220746f20746865207a65726f206164646044820152637265737360e01b60648201526084016103ee565b610d27600082610b77565b6001600160a01b0383166000908152600360205260408120805460019290610d5090849061196f565b90915550506001600160a01b0382166000908152600360205260408120805460019290610d7e908490611982565b909155505060008181526002602052604080822080546001600160a01b0319166001600160a01b0386811691821790925591518493918716917fddf252ad1be2c89b69c2b068fc378daa952ba7f163c4a11628f55a4df523b3ef91a4505050565b6007546001600160a01b031633146105d85760405162461bcd60e51b815260206004820181905260248201527f4f776e61626c653a2063616c6c6572206973206e6f7420746865206f776e657260448201526064016103ee565b600780546001600160a01b038381166001600160a01b0319831681179093556040519116919082907f8be0079c531659141344cd1fd0a4f28419497f9722a3daafe3b4186f6b6457e090600090a35050565b600080610e9760085490565b4233610ea260085490565b604051602001610ed79392919092835260609190911b6bffffffffffffffffffffffff19166020830152603482015260540190565b6040516020818303038152906040528051906020012060001c610efa91906119ab565b9050805b600954811015610f64576009805460009190610f1a90846119ab565b81548110610f2a57610f2a6117e5565b60009182526020909120600460069092020101546001600160a01b031603610f525792915050565b80610f5c816119bf565b915050610efe565b50919050565b6001600160a01b038216610fc05760405162461bcd60e51b815260206004820181905260248201527f4552433732313a206d696e7420746f20746865207a65726f206164647265737360448201526064016103ee565b6000818152600260205260409020546001600160a01b0316156110255760405162461bcd60e51b815260206004820152601c60248201527f4552433732313a20746f6b656e20616c7265616479206d696e7465640000000060448201526064016103ee565b6001600160a01b038216600090815260036020526040812080546001929061104e908490611982565b909155505060008181526002602052604080822080546001600160a01b0319166001600160a01b03861690811790915590518392907fddf252ad1be2c89b69c2b068fc378daa952ba7f163c4a11628f55a4df523b3ef908290a45050565b6000828152600260205260409020546001600160a01b03166111275760405162461bcd60e51b815260206004820152602e60248201527f45524337323155524953746f726167653a2055524920736574206f66206e6f6e60448201526d32bc34b9ba32b73a103a37b5b2b760911b60648201526084016103ee565b600082815260066020526040902061048f82826119d8565b816001600160a01b0316836001600160a01b0316036111a05760405162461bcd60e51b815260206004820152601960248201527f4552433732313a20617070726f766520746f2063616c6c65720000000000000060448201526064016103ee565b6001600160a01b03838116600081815260056020908152604080832094871680845294825291829020805460ff191686151590811790915591519182527f17307eab39ab6107e8899845ad3d59bd9653f200f220920489ca2b5937696c31910160405180910390a3505050565b611218848484610c43565b611224848484846112b4565b61095b5760405162461bcd60e51b81526004016103ee90611a92565b606061124b82610b18565b600061126260408051602081019091526000815290565b9050600081511161128257604051806020016040528060008152506112ad565b8061128c846113b5565b60405160200161129d92919061192a565b6040516020818303038152906040525b9392505050565b60006001600160a01b0384163b156113aa57604051630a85bd0160e11b81526001600160a01b0385169063150b7a02906112f8903390899088908890600401611ae4565b6020604051808303816000875af1925050508015611333575060408051601f3d908101601f1916820190925261133091810190611b21565b60015b611390573d808015611361576040519150601f19603f3d011682016040523d82523d6000602084013e611366565b606091505b5080516000036113885760405162461bcd60e51b81526004016103ee90611a92565b805181602001fd5b6001600160e01b031916630a85bd0160e11b149050610a69565b506001949350505050565b6060816000036113dc5750506040805180820190915260018152600360fc1b602082015290565b8160005b811561140657806113f0816119bf565b91506113ff9050600a83611b3e565b91506113e0565b60008167ffffffffffffffff8111156114215761142161163e565b6040519080825280601f01601f19166020018201604052801561144b576020820181803683370190505b5090505b8415610a695761146060018361196f565b915061146d600a866119ab565b611478906030611982565b60f81b81838151811061148d5761148d6117e5565b60200101906001600160f81b031916908160001a9053506114af600a86611b3e565b945061144f565b6001600160e01b031981168114610b1557600080fd5b6000602082840312156114de57600080fd5b81356112ad816114b6565b60005b838110156115045781810151838201526020016114ec565b50506000910152565b600081518084526115258160208601602086016114e9565b601f01601f19169290920160200192915050565b6020815260006112ad602083018461150d565b60006020828403121561155e57600080fd5b5035919050565b80356001600160a01b038116811461157c57600080fd5b919050565b6000806040838503121561159457600080fd5b61159d83611565565b946020939093013593505050565b6000806000606084860312156115c057600080fd5b6115c984611565565b92506115d760208501611565565b9150604084013590509250925092565b6000602082840312156115f957600080fd5b6112ad82611565565b6000806040838503121561161557600080fd5b61161e83611565565b91506020830135801515811461163357600080fd5b809150509250929050565b634e487b7160e01b600052604160045260246000fd5b6000806000806080858703121561166a57600080fd5b61167385611565565b935061168160208601611565565b925060408501359150606085013567ffffffffffffffff808211156116a557600080fd5b818701915087601f8301126116b957600080fd5b8135818111156116cb576116cb61163e565b604051601f8201601f19908116603f011681019083821181831017156116f3576116f361163e565b816040528281528a602084870101111561170c57600080fd5b82602086016020830137600060208483010152809550505050505092959194509250565b6000806040838503121561174357600080fd5b61174c83611565565b915061175a60208401611565565b90509250929050565b600181811c9082168061177757607f821691505b602082108103610f6457634e487b7160e01b600052602260045260246000fd5b6020808252602e908201527f4552433732313a2063616c6c6572206973206e6f7420746f6b656e206f776e6560408201526d1c881b9bdc88185c1c1c9bdd995960921b606082015260800190565b634e487b7160e01b600052603260045260246000fd5b601f82111561048f57600081815260208120601f850160051c810160208610156118225750805b601f850160051c820191505b818110156118415782815560010161182e565b505050505050565b818103611854575050565b61185e8254611763565b67ffffffffffffffff8111156118765761187661163e565b61188a816118848454611763565b846117fb565b6000601f8211600181146118be57600083156118a65750848201545b600019600385901b1c1916600184901b178455611923565b600085815260209020601f19841690600086815260209020845b838110156118f857828601548255600195860195909101906020016118d8565b50858310156119165781850154600019600388901b60f8161c191681555b50505060018360011b0184555b5050505050565b6000835161193c8184602088016114e9565b8351908301906119508183602088016114e9565b01949350505050565b634e487b7160e01b600052601160045260246000fd5b818103818111156102bb576102bb611959565b808201808211156102bb576102bb611959565b634e487b7160e01b600052601260045260246000fd5b6000826119ba576119ba611995565b500690565b6000600182016119d1576119d1611959565b5060010190565b815167ffffffffffffffff8111156119f2576119f261163e565b611a00816118848454611763565b602080601f831160018114611a355760008415611a1d5750858301515b600019600386901b1c1916600185901b178555611841565b600085815260208120601f198616915b82811015611a6457888601518255948401946001909101908401611a45565b5085821015611a825787850151600019600388901b60f8161c191681555b5050505050600190811b01905550565b60208082526032908201527f4552433732313a207472616e7366657220746f206e6f6e20455243373231526560408201527131b2b4bb32b91034b6b83632b6b2b73a32b960711b606082015260800190565b6001600160a01b0385811682528416602082015260408101839052608060608201819052600090611b179083018461150d565b9695505050505050565b600060208284031215611b3357600080fd5b81516112ad816114b6565b600082611b4d57611b4d611995565b50049056fea26469706673582212204cc025030daddcc9ae7c73ed27cae4bae0efdac16a102d9f5cd98bbf86f0286564736f6c63430008100033",
    "sourcePath": "c:/Users/multicampus/Desktop/test/truffle/contracts/AnimalNFT.sol",
    "compiler": {
        "name": "solc",
        "version": "0.8.16+commit.07a7930e"
    },
    "functionHashes": {
        "_createAnimalNFT()": "89ae77a8",
        "approve(address,uint256)": "095ea7b3",
        "balanceOf(address)": "70a08231",
        "getApproved(uint256)": "081812fc",
        "isApprovedForAll(address,address)": "e985e9c5",
        "name()": "06fdde03",
        "owner()": "8da5cb5b",
        "ownerOf(uint256)": "6352211e",
        "renounceOwnership()": "715018a6",
        "safeTransferFrom(address,address,uint256)": "42842e0e",
        "safeTransferFrom(address,address,uint256,bytes)": "b88d4fde",
        "setApprovalForAll(address,bool)": "a22cb465",
        "supportsInterface(bytes4)": "01ffc9a7",
        "symbol()": "95d89b41",
        "tokenURI(uint256)": "c87b56dd",
        "transferFrom(address,address,uint256)": "23b872dd",
        "transferOwnership(address)": "f2fde38b"
    },
    "gasEstimates": {
        "creation": {
            "codeDepositCost": "1409600",
            "executionCost": "infinite",
            "totalCost": "infinite"
        },
        "external": {
            "_createAnimalNFT()": "infinite",
            "approve(address,uint256)": "infinite",
            "balanceOf(address)": "2678",
            "getApproved(uint256)": "4792",
            "isApprovedForAll(address,address)": "infinite",
            "name()": "infinite",
            "owner()": "2398",
            "ownerOf(uint256)": "2605",
            "renounceOwnership()": "infinite",
            "safeTransferFrom(address,address,uint256)": "infinite",
            "safeTransferFrom(address,address,uint256,bytes)": "infinite",
            "setApprovalForAll(address,bool)": "26705",
            "supportsInterface(bytes4)": "534",
            "symbol()": "infinite",
            "tokenURI(uint256)": "infinite",
            "transferFrom(address,address,uint256)": "infinite",
            "transferOwnership(address)": "28446"
        },
        "internal": {
            "_getMinter(uint256)": "infinite",
            "_getOwner(uint256)": "infinite",
            "_randomAnimalNFT()": "infinite",
            "_setMinter(uint256,address)": "infinite",
            "_setOwner(uint256,address)": "infinite"
        }
    }
}